:1000000026C1000046C1000044C1000042C10000FA
:1000100040C100003EC100003CC100003AC10000E8
:1000200038C1000036C1000034C1000032C10000F8
:1000300030C100002EC100002CC100002AC1000008
:1000400028C1000026C1000024C1000022C1000018
:1000500020C100001EC100001CC100001AC1000028
:1000600018C10000D5C3000014C1000012C1000077
:100070001EC400000EC100000CC100000AC1000037
:1000800008C1000006C1000004C1000002C1000058
:1000900000C10000FEC00000FCC00000FAC000006B
:1000A000F8C00000F6C00000F4C00000F2C000007C
:1000B000F0C00000EEC00000ECC00000EAC000008C
:1000C000E8C00000E6C00000E4C00000E2C000009C
:1000D000E0C00000DEC00000DCC00000DAC00000AC
:1000E000D8C00000D6C000004AC20000D2C0000044
:1000F000D0C00000C9C40000CCC00000CAC00000CD
:10010000C8C00000C6C00000C4C00000C2C00000DB
:10011000C0C00000BEC00000BCC000007DC1000027
:100120009DC10000BDC10000DDC10000B2C00000E3
:10013000B0C00000AEC00000ACC00000AAC000000B
:10014000A8C00000A6C00000A4C00000A2C000001B
:10015000A0C000009EC000009CC000009AC000002B
:10016000F5C3000096C0000094C000003EC400002B
:1001700090C000008EC000008CC000008AC000004B
:1001800088C0000086C0000084C0000082C000005B
:1001900080C000007EC000007CC000007AC000006B
:1001A00078C0000076C0000074C0000072C000007B
:1001B00070C000006EC000006CC000006AC000008B
:1001C00068C0000066C0000064C0000062C000009B
:1001D00060C000005EC000005CC00000A4C400005D
:1001E00058C0000056C00000EDC4000052C000001E
:1001F00050C000004F7574206F66207468652042FF
:100200006F783A0D456C656374726F6E6963732025
:10021000616E6420526F626F746963730D50726512
:1002200073656E7473207468650D457069706861DC
:100230006E79204449590D536F6674776172652059
:1002400056657273696F6E2025730D257300112436
:100250001FBECFEFDFE2DEBFCDBF18BE19BE1ABE94
:100260001BBE10E2A0E0B0E2EAE5F5E100E00BBF62
:1002700002C007900D92A233B107D9F712E2A2E3B0
:10028000B0E201C01D92A139B107E1F701D20C948F
:10029000AB0AB6CE67FF2BC06F70813071F0813032
:1002A00040F0823091F0660F660F660F8330D1F414
:1002B00014C0660F660F660F15C0660F660F660FD7
:1002C000E0E0F2E061A780E829C0660F660F660FE4
:1002D000E0E0F2E061AB80E82AC0E0E0F2E061AF8C
:1002E00080E82BC0E0E0F2E061A380E82CC0813020
:1002F00071F0813040F0823099F0660F660F660F22
:100300008330E9F416C0660F660F660F18C0660FDB
:10031000660F660FE0E0F2E061A781E880A708952C
:10032000660F660F660FE0E0F2E061AB81E880AB3C
:100330000895E0E0F2E061AF81E880AF0895E0E089
:10034000F2E061A381E880A308958130E9F0813073
:1003500050F0823051F1833009F045C037C08F5FD3
:10036000813111F440C080E09091230290FFF7CFDB
:1003700081E080932302209110023091110235C058
:100380008F5F813111F42FC080E090912B0290FF9C
:10039000F7CF81E080932B0220911202309113025B
:1003A00024C08F5F813111F41EC080E09091330230
:1003B00090FFF7CF81E080933302209114023091B7
:1003C000150213C08F5F813111F40DC080E0909150
:1003D0003B0290FFF7CF81E080933B022091160211
:1003E0003091170202C02FEF3FEFC9010895A0E03E
:1003F000B2E08C9181608C93E0E4F2E080818160D6
:10040000808383E112968C931297828383E0149603
:100410008C931497848308951F920F920FB60F92B6
:1004200008B60F920BB60F92112418BE1BBE8F9305
:100430009F93EF93FF93E0E0F2E081A198E089279A
:1004400081A3FF91EF919F918F910F900BBE0F9021
:1004500008BE0F900FBE0F901F9018951F920F921D
:100460000FB60F9208B60F920BB60F92112418BE5A
:100470001BBE8F939F93EF93FF93E0E0F2E081A583
:1004800098E0892781A7FF91EF919F918F910F901D
:100490000BBE0F9008BE0F900FBE0F901F901895C7
:1004A0001F920F920FB60F9208B60F920BB60F92D3
:1004B000112418BE1BBE8F939F93EF93FF93E0E030
:1004C000F2E081A998E0892781ABFF91EF919F919C
:1004D0008F910F900BBE0F9008BE0F900FBE0F9024
:1004E0001F9018951F920F920FB60F9208B60F9299
:1004F0000BB60F92112418BE1BBE8F939F93EF93E0
:10050000FF93E0E0F2E081AD98E0892781AFFF91B1
:10051000EF919F918F910F900BBE0F9008BE0F909F
:100520000FBE0F901F901895E0E0FBE080E094E094
:1005300086A397A381E0808383EF818310A611A611
:1005400012A613A614A615A616A617A6089580EA45
:100550009AE040E051EE60E070E068D382E0E0EACB
:10056000F0E08283789480E090E02AE5FC01EE5C84
:10057000FF4D2083019688319105C1F708951F92A0
:100580000F920FB60F9208B60F9209B60F920AB6E5
:100590000F920BB60F92112418BE19BE1ABE1BBEC5
:1005A0002F933F934F935F936F937F938F939F937B
:1005B000AF93BF93CF93DF93EF93FF93F894C091E2
:1005C0008D22D0918E2283E290E280938D229093AF
:1005D0008E228091A00A823739F48091492090E0E0
:1005E00044D510924A2012C08E3661F490914A2070
:1005F000E92FF0E0EE5CFF4D80819F5F90934A20F1
:1006000090E003C0992787FD90952FD5C0938D2248
:10061000D0938E227894FF91EF91DF91CF91BF918B
:10062000AF919F918F917F916F915F914F913F918A
:100630002F910F900BBE0F900ABE0F9009BE0F9026
:1006400008BE0F900FBE0F901F901895E0E0F4E0E9
:1006500081E080831086118608958FE0E0EAF6E05D
:1006600081838FEFE0E2F7E0818382E0E0EEF7E064
:10067000818380915000826080935000809151006E
:1006800081FFFCCF88ED84BF81E0809340004CCF98
:10069000CF92DF92EF92FF920F931F93CF93DF934E
:1006A000DCDFD4DF82E0E0EEF7E0868350DF80EA33
:1006B00098E040E052EC61E070E0B8D280EB9AE064
:1006C00040E855E260E070E0B1D291DE78942DB759
:1006D0003EB7285030402DBF3EBFEDB7FEB7319634
:1006E000C5E1D0E2ADB7BEB71196CD93DC931297BA
:1006F00084EF91E08283938380E090E2848395830A
:1007000084E090E28683978367D42DB73EB7285F55
:100710003F4F2DBF3EBF7E01CDE0D0E28FEF91EE87
:10072000A4E081509040A040E1F700C000008CE0C0
:1007300090E065E170E26DD400E010E080E0602FB1
:10074000A9DD80E002DEADB7BEB71897ADBFBEBF72
:10075000EDB7FEB731961196EC9211971296FC9276
:10076000C283D383048315838683978325D40F5F45
:100770001F4F2DB73EB7285F3F4F2DBF3EBF0830FC
:100780001105E1F6CBCF9091A10A95FFFCCF8093A4
:10079000A00A08959091A10895FFFCCF8093A0082E
:1007A0000895E0912921F0912A212091252130916D
:1007B00026218081E217F30749F42091232130910B
:1007C00024212093292130932A2105C03196E093DA
:1007D0002921F0932A2190E00895E0912721F091BA
:1007E00028212091252130912621E217F30751F489
:1007F00080838091232190912421809327219093BD
:10080000282108958193E0932721F09328210895CA
:100810001F920F920FB60F9208B60F9209B60F9261
:100820000BB60F92112418BE19BE1BBE2F933F9317
:100830004F935F936F937F938F939F93AF93BF93E8
:10084000EF93FF938091A008C8DFFF91EF91BF91D4
:10085000AF919F918F917F916F915F914F913F9158
:100860002F910F900BBE0F9009BE0F9008BE0F90F6
:100870000FBE0F901F901895E0914F20F0915020DF
:1008800020914D2030914E20E217F30751F48083E0
:1008900080914B2090914C2080934F20909350203A
:1008A00008958193E0934F20F093502008951F9274
:1008B0000F920FB60F9208B60F9209B60F920BB6B1
:1008C0000F92112418BE19BE1BBE2F933F934F9356
:1008D0005F936F937F938F939F93AF93BF93EF93A8
:1008E000FF938091B008C8DFFF91EF91BF91AF9166
:1008F0009F918F917F916F915F914F913F912F9138
:100900000F900BBE0F9009BE0F9008BE0F900FBE48
:100910000F901F901895E0919720F09198202091CA
:10092000952030919620E217F30751F4808380914F
:1009300093209091942080939720909398200895ED
:100940008193E0939720F093982008951F920F923F
:100950000FB60F9208B60F9209B60F920BB60F9210
:10096000112418BE19BE1BBE2F933F934F935F9364
:100970006F937F938F939F93AF93BF93EF93FF9367
:100980008091A009C8DFFF91EF91BF91AF919F9136
:100990008F917F916F915F914F913F912F910F9028
:1009A0000BBE0F9009BE0F9008BE0F900FBE0F90A8
:1009B0001F901895E091DF20F091E0202091DD203C
:1009C0003091DE20E217F30751F480838091DB2021
:1009D0009091DC208093DF209093E0200895819314
:1009E000E093DF20F093E02008951F920F920FB65E
:1009F0000F9208B60F9209B60F920BB60F92112400
:100A000018BE19BE1BBE2F933F934F935F936F93F6
:100A10007F938F939F93AF93BF93EF93FF938091B7
:100A2000B009C8DFFF91EF91BF91AF919F918F9176
:100A30007F916F915F914F913F912F910F900BBEDE
:100A40000F9009BE0F9008BE0F900FBE0F901F9021
:100A50001895E0916F21F091702120916D213091D6
:100A60006E21E217F30751F4808380916B219091FE
:100A70006C2180936F219093702108958193E0936E
:100A80006F21F093702108951F920F920FB60F926D
:100A900008B60F9209B60F920BB60F92112418BE2A
:100AA00019BE1BBE2F933F934F935F936F937F931A
:100AB0008F939F93AF93BF93EF93FF938091B00A6F
:100AC000C8DFFF91EF91BF91AF919F918F917F917F
:100AD0006F915F914F913F912F910F900BBE0F90AF
:100AE00009BE0F9008BE0F900FBE0F901F90189573
:100AF000E0914722F09148222091452230914622F0
:100B0000E217F30751F480838091432290914422AD
:100B1000809347229093482208958193E09347223F
:100B2000F093482208951F920F920FB60F9208B6C5
:100B30000F9209B60F920BB60F92112418BE19BE70
:100B40001BBE2F933F934F935F936F937F938F932E
:100B50009F93AF93BF93EF93FF938091A00BC8DF58
:100B6000FF91EF91BF91AF919F918F917F916F9185
:100B70005F914F913F912F910F900BBE0F9009BE47
:100B80000F9008BE0F900FBE0F901F901895E09128
:100B9000FF21F09100222091FD213091FE21E217EA
:100BA000F30751F480838091FB219091FC21809385
:100BB000FF219093002208958193E093FF21F09309
:100BC000002208951F920F920FB60F9208B60F924F
:100BD00009B60F920BB60F92112418BE19BE1BBE98
:100BE0002F933F934F935F936F937F938F939F9335
:100BF000AF93BF93EF93FF938091B00BC8DFFF914A
:100C0000EF91BF91AF919F918F917F916F915F9184
:100C10004F913F912F910F900BBE0F9009BE0F90F7
:100C200008BE0F900FBE0F901F901895FC01809189
:100C3000A2008260A0EAB0E012968C93129788E03E
:100C4000E03AF807E9F488E0A0E4B6E011968C9366
:100C50008AE691E28093252190932621A3E2B1E2D6
:100C6000CD010896809323219093242114968D938F
:100C70009C93159716968D939C9317970000D2C05E
:100C800088E0E03BF807C1F4A0E4B6E080E8119604
:100C90008C93119788E011968C9382E990E280936F
:100CA0004D2090934E20ABE4B0E2CD0108968093A6
:100CB0004B2090934C20AEC089E0E03AF807C1F495
:100CC00088E0A0E6B6E011968C93A0E4B6E0119619
:100CD0008C938AED90E28093952090939620A3E9DF
:100CE000B0E2CD010896809393209093942092C017
:100CF00089E0E03BF807C9F480E8A0E6B6E0119689
:100D00008C9388E0A0E4B6E011968C9382E291E2A5
:100D10008093DD209093DE20ABEDB0E2CD0108960C
:100D20008093DB209093DC2075C08AE0E03AF807DE
:100D3000C1F488E0A0E8B6E011968C93A0E4B6E098
:100D400011968C938AEF91E28093B5219093B6210E
:100D5000A3EBB1E2CD0108968093B3219093B42127
:100D600059C08AE0E03BF807E9F480E8A0E8B6E083
:100D700011968C9382EB91E280936D2190936E217A
:100D8000ABE6B1E2CD01089680936B2190936C2184
:100D900014968D939C93159716968D939C93179705
:100DA000000040C08BE0E03AF807C1F488E0A0EA18
:100DB000B6E011968C93A0E4B6E011968C938AE885
:100DC00092E28093452290934622A3E4B2E2CD01C1
:100DD000089680934322909344221CC08BE0E03B12
:100DE000F80701F580E8A0EAB6E011968C9388E058
:100DF000A0E4B6E011968C9382E492E28093FD2108
:100E00009093FE21ABEFB1E2CD0108968093FB21D8
:100E10009093FC2114968D939C93159716968D9321
:100E20009C931797838180628383403880E75807BB
:100E300080E0680780E0780709F487C0413880E7E0
:100E4000580780E0680780E07807BCF5403885E205
:100E5000580780E0680780E0780709F4A4C04138AB
:100E600085E2580780E0680780E078079CF4403B03
:100E700084E0580780E0680780E0780709F452C0F2
:100E8000403C82E1580780E0680780E0780709F07D
:100E90008AC04FC0403488E3580780E0680780E08C
:100EA000780709F44EC040308BE4580780E06807AB
:100EB00080E0780709F077C046C0403081EE5807DF
:100EC00080E0680780E0780709F455C0413081EE82
:100ED000580780E0680780E0780794F4403086E99E
:100EE000580780E0680780E07807B9F1403C8AED58
:100EF000580780E0680780E0780709F054C035C0E3
:100F0000403082EC580781E0680780E07807D9F12B
:100F1000403084E8580783E0680780E0780709F0EC
:100F200042C039C088E1848383E0858386838DEC69
:100F300041C088E1848383E085838DEF86838CEDD7
:100F400039C088E103C08CE12FC08CE1848383E049
:100F500085838EE9868388EC2DC08CE1848383E0D1
:100F6000858385EE86838CEB25C08CE1848383E0CA
:100F700085838EEC05C08CE1848383E085838EE8D5
:100F8000868388EB17C08CE1848383E085838EE6BB
:100F9000868388EA0FC08CE1848383E085838EE2B8
:100FA000868388E907C088E1848383E0858385EFB1
:100FB00086838CEC87830895DF93CF93CDB7DEB71C
:100FC0009E01275F3F4F8D819E816F817885A901AA
:100FD00051D0CF91DF9108950F931F93DF93CF935B
:100FE000CDB7DEB70F8118859E01255F3F4FF80111
:100FF000838188608383C80169857A85A9013AD095
:10100000F8012381277F2383CF91DF911F910F91D7
:1010100008950F931F93CF93DF938C01EB018B8186
:1010200081FF1BC082FF0DC02E813F818C819D817D
:101030002817390764F4E881F9810193E883F9837B
:1010400006C0E885F985802F0995009731F48E81D7
:101050009F8101968E839F8302C00FEF1FEFC8010F
:10106000DF91CF911F910F91089560918D22709122
:101070008E22CFCF2F923F924F925F926F927F92AC
:101080008F929F92AF92BF92CF92DF92EF92FF9298
:101090000F931F93DF93CF93CDB7DEB72C97CDBFC0
:1010A000DEBF6C011B018A01FC011682178283815D
:1010B00081FFC4C12E010894411C511CF60193818B
:1010C000F10193FD859193FF81911F01882309F41C
:1010D000B1C1853239F493FD859193FF81911F0150
:1010E000853221F490E0B60194DFE8CFEE24FF24AE
:1010F00020E02032B0F48B3269F08C3228F4803258
:1011000051F0833271F40BC08D3239F0803349F4E1
:1011100021602CC02260246029C0286027C0206183
:1011200025C027FD2CC0382F30533A3098F426FFC5
:1011300008C08E2D880FE82EEE0CEE0CE80EE30EA4
:1011400015C08F2D880FF82EFF0CFF0CF80EF30E34
:1011500020620CC08E3221F426FD6CC1206406C0D2
:101160008C3611F4206802C0883649F4F10193FDF1
:10117000859193FF81911F01882309F0BACF982FA1
:101180009554933018F09052933028F40C5F1F4F11
:10119000FFE3F9830DC0833631F0833771F0833577
:1011A00009F05CC021C0F801808189830E5F1F4F68
:1011B000420171E0A72EB12C15C062E0662E712CA1
:1011C000600E711EF8018080918026FF03C06E2D95
:1011D00070E002C06FEF7FEFC4012C8753D15C0138
:1011E00083012C852F7716C052E0652E712C600E7E
:1011F000711EF8018080918026FF03C06E2D70E083
:1012000002C06FEF7FEFC4012C8731D15C012C85C8
:101210002068830123FD1EC007C080E290E0B60174
:101220002C87F7DEFA942C858F2D90E0A816B9064E
:10123000A0F310C0F40127FD859127FF81914F0194
:1012400090E0B6012C87E5DE2C85F110FA94089425
:10125000A108B108A114B10469F7E9C0843611F0FE
:10126000893641F527FF08C0F801608171818281CC
:1012700093810C5F1F4F09C0F8016081718188273D
:1012800077FD8095982F0E5F1F4F4FE6B42EB22248
:1012900097FF09C090958095709561957F4F8F4F0E
:1012A0009F4FF0E8BF2AA2012AE030E0F6D0782E66
:1012B000741844C0853731F43FEEB32EB2222AE0D1
:1012C00030E025C099EFB92EB2228F36C1F08037B9
:1012D00020F4883509F0AEC00DC0803721F0883782
:1012E00009F0A8C002C020E1B22AB4FE0BC084E01D
:1012F000B82A08C0B4FE09C0E6E0BE2A06C028E04D
:1013000030E005C020E130E002C020E132E0B7FE6D
:1013100008C0F80160817181828193810C5F1F4F49
:1013200007C0F8016081718180E090E00E5F1F4F7F
:10133000A201B3D0782E7418FFE7BF22B6FE0BC00F
:101340002EEFB2227E1438F4B4FE07C0B2FC05C002
:101350008FEEB82202C0A72C01C0AE2C8B2D90E0DE
:10136000B4FE0DC0FE01E70DF11D2081203319F4FC
:10137000E9EEBE2209C0A394B2FE06C004C086787E
:101380009070009709F0A3948B2C9924B3FC13C0A0
:10139000B0FE0EC0AF1428F4E72CEF0CEA18AF2C07
:1013A00007C0E72C05C080E290E0B60132DEA394CE
:1013B000AF14C8F304C0AF1410F4FA1801C0FF242E
:1013C00084FE0EC080E390E0B60123DE82FE1DC0E5
:1013D00081FE03C088E590E010C088E790E00DC072
:1013E000C40186789070009781F081FC02C080E291
:1013F00001C08BE2B7FC8DE290E0B6010ADE05C0C9
:1014000080E390E0B60105DEEA947E14C8F37A9496
:10141000F201E70DF11D808190E0B601FADD772041
:10142000B1F705C080E290E0B601F3DDFA94FF2049
:10143000C9F744CEF6012681378102C02FEF3FEF76
:10144000C9012C96CDBFDEBFCF91DF911F910F91C7
:10145000FF90EF90DF90CF90BF90AF909F908F90D4
:101460007F906F905F904F903F902F900895FC0178
:101470000590615070400110D8F7809590958E0FBF
:101480009F1F0895FC016150704001900110D8F732
:10149000809590958E0F9F1F0895FA01AA272830F6
:1014A00051F1203181F1E8946F936E7F6E5F7F4F31
:1014B0008F4F9F4FAF4FB1E03ED0B4E03CD0670FAD
:1014C000781F891F9A1FA11D680F791F8A1F911D00
:1014D000A11D6A0F711D811D911DA11D20D009F450
:1014E00068943F912AE0269F11243019305D319392
:1014F000DEF6CF010895462F4770405D4193B3E07B
:101500000FD0C9F7F6CF462F4F70405D4A3318F021
:10151000495D31FD4052419302D0A9F7EACFB4E0D2
:10152000A6959795879577956795BA95C9F700978A
:101530006105710508959B01AC010A2E069457952B
:10154000479537952795BA95C9F7620F731F841F82
:0A155000951FA01D0895F894FFCF29
:10155A00312E33004E6F762032303131002564202F
:10156A0025640D0A000000000300000000CA03D130
:10157A000300000000000200000000C30300000096
:02158A0000005F
:00000001FF
