:10000000F9C0000019C1000017C1000015C10000AF
:1000100013C1000011C100000FC100000DC100009C
:100020000BC1000009C1000007C1000005C10000AC
:1000300003C1000001C10000FFC00000FDC00000BE
:10004000FBC00000F9C00000F7C00000F5C00000D0
:10005000F3C00000F1C00000EFC00000EDC00000E0
:10006000EBC000000C940609E7C00000E5C00000EA
:10007000E3C00000E1C00000DFC00000DDC0000000
:10008000DBC00000D9C00000D7C00000D5C0000010
:10009000D3C00000D1C00000CFC00000CDC0000020
:1000A000CBC00000C9C00000C7C000008DC6000062
:1000B000C3C00000C1C00000BFC00000BDC0000040
:1000C000BBC00000B9C00000B7C00000B5C0000050
:1000D000B3C00000BAC60000AFC00000ADC0000051
:1000E000ABC00000A9C00000A7C00000A5C0000070
:1000F000A3C000000C9455099FC000009DC00000E3
:100100009BC0000099C0000097C0000095C000008F
:1001100093C0000091C000008FC000002AC50000FD
:100120004AC500006AC500008AC5000085C00000FD
:1001300083C0000081C000007FC000007DC00000BF
:100140007BC0000079C0000077C0000075C00000CF
:1001500073C0000071C000006FC000006DC00000DF
:100160006BC0000069C0000067C0000065C00000EF
:1001700063C0000061C000005FC000005DC00000FF
:100180005BC0000059C0000057C0000055C000000F
:1001900053C0000051C000004FC000004DC000001F
:1001A0004BC0000049C0000047C0000045C000002F
:1001B00043C0000041C000003FC000003DC000003F
:1001C0003BC0000039C0000037C0000035C000004F
:1001D00033C0000031C000002FC000002DC000005F
:1001E0002BC0000029C0000027C0000025C000006F
:1001F00023C0000011241FBECFEFDFE2DEBFCDBF62
:1002000018BE19BE1ABE1BBE11E2A0E0B0E2ECE4BB
:10021000FBE100E00BBF02C007900D92A032B107D6
:10022000D9F712E2A0E2B1E201C01D92A13EB107EE
:10023000E1F77FD70C94A40DE3CEEF92FF920F93DA
:100240001F937B018C0120E030E040E05FE4BDD1F2
:1002500087FD0FC0C801B70120E030E040E05FE457
:1002600087D13AD29B01AC012050304040405048E9
:1002700005C0C801B70130D29B01AC01B901CA0168
:100280001F910F91FF90EF900895A0E0B0E0EBE494
:10029000F1E00C94CA0AFC01EA018081823008F482
:1002A00038C1DB019C91923008F430C1843059F49C
:1002B000943009F02EC1918111968C911197981765
:1002C00009F021C126C1943009F420C19230B1F463
:1002D000823009F01EC1CA01AF0128E0DA010D9099
:1002E000AD01DC010D92CD012150C1F7DB0111966A
:1002F0008C9111979181892389830AC1823009F4F5
:1003000005C1C280D380DB0112966D907C9013975B
:1003100024813581468157811496ED90FD900D9191
:100320001C911797C601861997095C0197FF04C0B5
:10033000AA24BB24A81AB90AB0E2AB16B1040CF087
:1003400061C0181619066CF5370148010A2C04C063
:1003500096948794779467940A94D2F781E090E01A
:10036000A0E0B0E00A2C04C0880F991FAA1FBB1F91
:100370000A94D2F70197A109B1098E219F21A023E8
:10038000B123EE24FF248701E3940097A105B10572
:1003900019F4EE24FF248701E628F72808291929F3
:1003A0003CC00097D1F1CA0CDB1C39014A010A2C70
:1003B00004C096948794779467940A94D2F781E066
:1003C00090E0A0E0B0E00A2C04C0880F991FAA1F9B
:1003D000BB1F0A94D2F70197A109B1098223932385
:1003E000A423B52321E030E040E050E00097A105D0
:1003F000B10519F420E030E0A90126293729482960
:1004000059290BC06C147D0424F4EE24FF248701C9
:1004100004C0630120E030E0A9018181FB019181EA
:10042000891709F445C0882349F0D801C701821B08
:10043000930BA40BB50B9C01AD0104C02E193F0911
:10044000400B510B57FD04C01982CA82DB820BC0DE
:1004500081E08983CA82DB82509540953095219551
:100460003F4F4F4F5F4F2C833D834E835F830DC0C3
:10047000880F991FAA1FBB1F8C839D83AE83BF83E8
:100480008A819B8101978A839B838C819D81AE8128
:10049000BF819C01AD0121503040404050402F3F72
:1004A000EFEF3E07EFEF4E07EFE35E0708F30BC0F9
:1004B0008983CA82DB822E0D3F1D401F511F2C8372
:1004C0003D834E835F8383E088832C813D814E8111
:1004D0005F8157FF1DC0DA01C90181709070A07063
:1004E000B0705695479537952795822B932BA42B63
:1004F000B52B8C839D83AE83BF838A819B810196BC
:100500008A839B8305C0E9E0F0E203C0FB0101C0E0
:10051000FE01CF01CDB7DEB7EEE00C94E30AA0E216
:10052000B0E0E5E9F2E00C94D20A69837A838B8328
:100530009C832D833E834F83588789E0E82EF12CDE
:10054000EC0EFD1ECE010196B7013CD28E010F5E6E
:100550001F4FCE010596B80135D2C701B801AE01D3
:10056000475E5F4F92DE61D1A096E6E00C94EB0A05
:10057000A0E2B0E0EEEBF2E00C94D20A69837A8359
:100580008B839C832D833E834F8358878E01075F27
:100590001F4FCE010196B80115D291E1E92EF12C41
:1005A000EC0EFD1ECE010596B7010CD28A8991E0B2
:1005B00089278A8BC801B701AE01475E5F4F65DEB0
:1005C00034D1A096E6E00C94EB0AA8E1B0E0EAEEA4
:1005D000F2E0E8C769837A838B839C832D833E8313
:1005E0004F8358878E01075F1F4FCE010196B801D8
:1005F000E9D181E1E82EF12CEC0EFD1ECE0105962D
:10060000B701E0D18985823038F08989823020F0C5
:10061000C801B70140D201C08FEF6896E6E0DBC7A2
:10062000A8E0B0E0E5E1F3E0BDC77B018C0183E029
:100630008983D801C7018827B7FD83959927AA2701
:10064000BB27282F8A83E114F1040105110519F451
:1006500082E0898336C08EE190E08B839C832223E5
:1006600089F080E0E81680E0F80680E0080780E87E
:10067000180759F110950095F094E094E11CF11CD5
:10068000011D111DED82FE820F831887C801B7017D
:1006900072D09C01215030401216130694F4022EA1
:1006A00004C0EE0CFF1C001F111F0A94D2F7ED824C
:1006B000FE820F8318878EE190E0821B930B8B8361
:1006C0009C83CE010196B1D004C060E070E080E070
:1006D0009FEC2896E6E07FC7ACE0B0E0E1E7F3E00E
:1006E00065C769837A838B839C83CE010196BE01A3
:1006F0006B5F7F4F67D18D81823081F1823070F1E5
:10070000843021F48E81882369F10AC02F813885D5
:1007100037FD24C06E812F3131053CF0662311F185
:1007200020E030E040E050E821C08EE190E0821B04
:10073000930B29853A854B855C8504C05695479572
:10074000379527958A95D2F7662381F05095409585
:10075000309521953F4F4F4F5F4F08C020E030E06C
:10076000A90104C02FEF3FEF4FEF5FE7B901CA01C6
:100770002C96E2E034C7AF92BF92CF92DF92EF9215
:10078000FF920F931F937B018C0180E0E81680E0BD
:10079000F80681E0080780E0180758F4EFEFEE163E
:1007A000F1040105110509F090F480E090E0DC010E
:1007B00017C0F0E0EF16F0E0FF06F0E00F07F1E001
:1007C0001F0750F480E190E0A0E0B0E009C088E0AD
:1007D00090E0A0E0B0E004C088E190E0A0E0B0E0EC
:1007E00020E230E040E050E0281B390B4A0B5B0B65
:1007F0005701680104C0D694C794B794A7948A950A
:10080000D2F7D601C5018F5E9F4DFC018081281B68
:10081000310941095109C9011F910F91FF90EF90D2
:10082000DF90CF90BF90AF900895EF92FF920F931B
:100830001F93CF93DF93FC0124813581468157813B
:1008400061818081823020F44061EFEFF0E0A3C04D
:10085000843009F49BC0823009F492C0211531051F
:100860004105510509F48FC00280F381E02D8FEF1F
:10087000E238F8070CF05AC0C2E8DFEFCE1BDF0BFE
:10088000CA31D1056CF579018A010C2E04C0169588
:100890000795F794E7940A94D2F781E090E0A0E0FE
:1008A000B0E00C2E04C0880F991FAA1FBB1F0A942A
:1008B000D2F70197A109B10982239323A423B52379
:1008C00021E030E040E050E00097A105B10519F4C7
:1008D00020E030E0A9012E293F29402B512B03C0F5
:1008E00020E030E0A901DA01C9018F779070A07093
:1008F000B07080349105A105B10539F427FF09C016
:10090000205C3F4F4F4F5F4F04C0215C3F4F4F4F24
:100910005F4FE1E0F0E0203080E0380780E04807FA
:1009200080E4580728F5E0E0F0E022C0E038F10567
:100930006CF5E158FF4FDA01C9018F779070A07014
:10094000B07080349105A105B10539F427FF09C0C5
:10095000205C3F4F4F4F5F4F04C0215C3F4F4F4FD4
:100960005F4F57FF05C056954795379527953196A8
:1009700087E056954795379527958A95D1F70BC00F
:10098000E0E0F0E005C0E0E0F0E005C0EFEFF0E00F
:1009900020E030E0A9018E2F879588278795942F36
:1009A0009F77679566276795E695E22EA92FA82B76
:1009B000FE2FF62B622F732F8A2F9F2FCDB7DEB716
:1009C000E6E009C6DC01FB012C9111963C911197E0
:1009D00012968C911297482F4F7750E0982F991FBD
:1009E0009927991F13966C911397862F880F892B3F
:1009F00090E0661F6627661F6183009739F5211511
:100A000031054105510511F482E029C082E89FEFCC
:100A10008283938367E0220F331F441F551F6A951B
:100A2000D1F783E0808309C0220F331F441F551F75
:100A300082819381019782839383203080E03807FD
:100A400080E0480780E4580778F320C08F3F910585
:100A500079F4211531054105510519F484E08083AD
:100A6000089544FF03C081E0808310C010820EC04F
:100A70008F5790408283938383E0808387E0220FA7
:100A8000331F441F551F8A95D1F750642483358343
:100A9000468357830895FC01DB019081923008F46E
:100AA00049C08C91823008F445C0943051F4618182
:100AB0008430B1F511962C91119730E0261B310945
:100AC00041C0843021F0923041F48230B1F111966E
:100AD0008C9111978823A1F12DC06181823001F1A1
:100AE00011968C9111976817D9F42281338112964F
:100AF0008D919C9113978217930794F028173907CB
:100B0000BCF0248135814681578114968D919D9149
:100B10000D90BC91A02D82179307A407B50718F478
:100B2000662341F00DC0281739074A075B0728F4F0
:100B3000662331F021E030E005C020E030E002C063
:100B40002FEF3FEFC9010895A0E0B2E08C918160E2
:100B50008C93E0E4F2E080818160808383E11296EF
:100B60008C931297828383E014968C9314978483DA
:100B700008951F920F920FB60F9208B60F920BB600
:100B80000F92112418BE1BBE8F939F93EF93FF9378
:100B9000E0E0F2E081A198E0892781A3FF91EF9145
:100BA0009F918F910F900BBE0F9008BE0F900FBEBC
:100BB0000F901F9018951F920F920FB60F9208B6C4
:100BC0000F920BB60F92112418BE1BBE8F939F93EA
:100BD000EF93FF93E0E0F2E081A598E0892781A7F9
:100BE000FF91EF919F918F910F900BBE0F9008BED8
:100BF0000F900FBE0F901F9018951F920F920FB677
:100C00000F9208B60F920BB60F92112418BE1BBE9E
:100C10008F939F93EF93FF93E0E0F2E081A998E038
:100C2000892781ABFF91EF919F918F910F900BBE20
:100C30000F9008BE0F900FBE0F901F9018951F9237
:100C40000F920FB60F9208B60F920BB60F921124A7
:100C500018BE1BBE8F939F93EF93FF93E0E0F2E0EB
:100C600081AD98E0892781AFFF91EF919F918F919E
:100C70000F900BBE0F9008BE0F900FBE0F901F90ED
:100C80001895E0E8F6E088E0818344E0428388E05C
:100C900092E28093222190932321A0E2B1E2CD0140
:100CA0000896809320219093212114968D939C93F4
:100CB000159716968D939C931797A0EABAE08CE04F
:100CC00014968C93149733E015963C93159780EC0B
:100CD00016968C93169787EA17968C9380E1828BF1
:100CE00021E021874287E0E4FAE080E197E286A3F1
:100CF00097A385E08093400A318326838091A200E8
:100D00008160E0EAF0E08283A9E0B2E280E090E076
:100D1000FC01EE0FFF1FE80FF91FE55FFD4D20817D
:100D20002F7720831D921C921197208120642083AD
:100D3000019613968831910559F70895E09126217F
:100D4000F09127218091222190912321E817F90722
:100D500069F08091A10A85FFFCCF80818093A00A71
:100D60001192E0932621F09327210895208110828B
:100D700080912021909121218093262190932721F9
:100D80008091A10A85FFFCCF2093A00A0895E091ED
:100D90002421F09125212091222130912321E21755
:100DA000F30731F08193E0932421F09325210895F6
:100DB0008083809120219091212180932421909300
:100DC00025210895E4CF08951F920F920FB60F9238
:100DD00008B60F9209B60F920BB60F92112418BEE7
:100DE00019BE1BBE2F933F934F935F936F937F93D7
:100DF0008F939F93AF93BF93EF93FF93F8942091BA
:100E00002421309125218091262190912721281796
:100E1000390719F080E090E091DF7894FF91EF912D
:100E2000BF91AF919F918F917F916F915F914F9102
:100E30003F912F910F900BBE0F9009BE0F9008BEEF
:100E40000F900FBE0F901F9018951F920F920FB624
:100E50000F9208B60F9209B60F920BB60F9211249B
:100E600018BE19BE1BBEAF92BF92CF92DF92EF9217
:100E7000FF920F931F932F933F934F935F936F9323
:100E80007F938F939F93AF93BF93EF93FF93DF93E2
:100E9000CF930F92CDB7DEB7F89409E012E2AA24FF
:100EA000BB2451E1E52E51E2F52E40E0C42E40E294
:100EB000D42E16C0D80112968C9112978F5F12967D
:100EC0008C93129780FF03C080818F7B808308946E
:100ED000A11CB11C0D5F1F4F58E1A516B104A9F16B
:100EE000F501EE0FFF1FEA0DFB1DE55FFD4D808153
:100EF00086FDE0CFF801908181814DB75EB74C50FF
:100F000050404DBF5EBFEDB7FEB73196ADB7BEB72F
:100F10001196ED92FC921297C282D382A482B5827E
:100F200086831782908781878A2D806882871386BF
:100F3000A9825DD329812054F80122834DB75EB781
:100F4000445F5F4F4DBF5EBFC2CF78940F90CF918B
:100F5000DF91FF91EF91BF91AF919F918F917F9121
:100F60006F915F914F913F912F911F910F91FF9042
:100F7000EF90DF90CF90BF90AF900F900BBE0F908F
:100F800009BE0F9008BE0F900FBE0F901F901895CE
:100F9000EF92FF920F931F93CF93DF938150082F0F
:100FA00010E07801EE0CFF1CE701C00FD11FC75FF6
:100FB000DD4D653B08F064EB8FE0689FB0011124C4
:100FC000882777FD8095982F2BDB20E030E041E6E5
:100FD00054E4A5DA32D968837983F701E00FF11F71
:100FE000E55FFD4D808180688F7B8083DF91CF91AD
:100FF0001F910F91FF90EF900895E0E0FBE080E0FB
:1010000094E086A397A381E0808383EF818310A679
:1010100011A612A613A614A615A616A617A608951D
:10102000262F372F94E02130390710F020E034E0EC
:101030008150813061F1813028F08230F1F18330CC
:1010400061F00895E0E0FBE020A731A7E0E2F7E0DF
:1010500045834095437046830895E0E0FBE026A772
:1010600037A750E0CA010024969587950794969576
:1010700087950794982F802DE0E2F7E085834095CF
:1010800050954295440F440F407C46830895E0E01C
:10109000FBE022A733A750E0CA01880F991F880FF1
:1010A000991FE0E2F7E0858340955095440F551F66
:1010B000440F551F4C7046830895E0E0FBE024A7E1
:1010C00035A750E0CA0182959295907F9827807F3E
:1010D0009827E0E2F7E08583409550954295529538
:1010E000507F5427407F5427407346830895E0E0A3
:1010F000F4E081E080831086118608958FE0E0EAB5
:10110000F6E081838FEFE0E2F7E0818382E0E0EEBA
:10111000F7E081838091500082608093500080913D
:10112000510081FFFCCF88ED84BF81E080934000B7
:1011300064CFFF920F931F93CF93DF93DFDFD7DF4F
:1011400082E0E0EEF7E086839CDD80EA98E040E014
:1011500052EC61E070E0DDD080EB9AE040E855E2CF
:1011600060E070E0D6D0F0DC7894C1E0D0E08C2F65
:1011700060E074E041E054DF2196C530D105B9F755
:1011800000E010E0043B110598F4F02EC1E0D0E03F
:101190008C2F6F2DFDDE2196C931D105C9F78FE364
:1011A0009CE90197F1F700C000000F5F1F4FEACFE5
:1011B00004EBC1E0D0E08C2F602FEADE2196C9312C
:1011C000D105C9F78FE39CE90197F1F700C0000052
:1011D000015079F7D5CFE0915522F0915622209118
:1011E000532230915422E217F30731F08193E093B8
:1011F0005522F09356220895808380915122909138
:101200005222809355229093562208951F920F9256
:101210000FB60F9208B60F9209B60F920BB60F9247
:10122000112418BE19BE1BBE2F933F934F935F939B
:101230006F937F938F939F93AF93BF93EF93FF939E
:101240008091A008C8DFFF91EF91BF91AF919F916E
:101250008F917F916F915F914F913F912F910F905F
:101260000BBE0F9009BE0F9008BE0F900FBE0F90DF
:101270001F901895E0919D22F0919E2220919B2233
:1012800030919C22E217F30731F08193E0939D2285
:10129000F0939E22089580838091992290919A22C2
:1012A00080939D2290939E2208951F920F920FB6D5
:1012B0000F9208B60F9209B60F920BB60F92112437
:1012C00018BE19BE1BBE2F933F934F935F936F932E
:1012D0007F938F939F93AF93BF93EF93FF938091EF
:1012E000B00AC8DFFF91EF91BF91AF919F918F91AD
:1012F0007F916F915F914F913F912F910F900BBE16
:101300000F9009BE0F9008BE0F900FBE0F901F9058
:101310001895FC018091A2008260A0EAB0E01296CC
:101320008C93129788E0E03AF80709F4DCC088E073
:10133000E03BF80789F089E0E03AF80769F089E0D6
:10134000E03BF80749F08AE0E03AF80729F08AE044
:10135000E03BF80709F4A2C08381806283834038B0
:1013600080E7580780E0680780E0780709F4D7C075
:10137000413880E7580780E0680780E07807B4F1DB
:10138000403081EE580780E0680780E0780709F474
:10139000D1C0413081EE580780E0680780E07807CF
:1013A0000CF447C0483488EE580781E0680780E0B5
:1013B000780709F4E2C0403084E8580783E0680702
:1013C00080E0780709F4D0C0403082EC580781E013
:1013D000680780E0780709F47DC088E1848383E0B2
:1013E000858385EF86838CEC87830895403885E27A
:1013F000580780E0680780E0780779F3413885E294
:10140000580780E0680780E078076CF1403488E393
:10141000580780E0680780E0780709F489C0403009
:101420008BE4580780E0680780E07807B1F68CE12C
:10143000D5CF403086E9580780E0680780E078071C
:1014400009F481C0403C8AED580780E0680780E0DD
:10145000780719F68CE1848383E085838EEC86839C
:1014600088EB87830895403B84E0580780E0680755
:1014700080E0780709F470C0403C82E1580780E0C2
:10148000680780E0780709F0A8CF88E1848383E0CB
:1014900085838DEF86838CED8783089580E8A0E8AF
:1014A000B6E011968C9380EE92E280939B2290930B
:1014B0009C22A9E9B2E2CD010896809399229093EB
:1014C0009A2214968D939C93159716968D939C93C0
:1014D000179742CF8CE1848383E085838EE68683F1
:1014E00088EA8783089588E0A0E4B6E011968C939B
:1014F00088E992E28093532290935422A1E5B2E2CC
:10150000CD010896809351229093522214968D9388
:101510009C93159716968D939C9317971DCF8CE1EE
:10152000848383E085838EE9868388EC87830895AE
:1015300088E1F6CF8CE1848383E085838EE886831F
:1015400088EB878308958CE1848383E0858385EE2F
:1015500086838CEB8783089588E1848383E0858389
:1015600086838DEC878308958CE1848383E0858373
:101570008EE2868388E9878308958CE1848383E003
:10158000858380EC868387EA878308952F923F9234
:101590004F925F926F927F928F929F92AF92BF9283
:1015A000CF92DF92EF92FF920F931F93CF93DF932F
:1015B000CDB7DEB7CA1BDB0BCDBFDEBF09942A88CF
:1015C000398848885F846E847D848C849B84AA8457
:1015D000B984C884DF80EE80FD800C811B81AA81E4
:1015E000B981CE0FD11DCDBFDEBFED010895DF93D0
:1015F000CF93CDB7DEB79E01275F3F4F8D819E8190
:101600006F817885A90103D0CF91DF9108952F9242
:101610003F924F925F926F927F928F929F92AF9282
:10162000BF92CF92DF92EF92FF920F931F93DF93BF
:10163000CF93CDB7DEB72C97CDBFDEBF6C011B01BA
:101640008A01FC0116821782838181FFC4C12E01A9
:101650000894411C511CF6019381F10193FD859181
:1016600093FF81911F01882309F4B1C1853239F4B8
:1016700093FD859193FF81911F01853221F490E0C4
:10168000B601D8D1E8CFEE24FF2420E02032B0F418
:101690008B3269F08C3228F4803251F0833271F44D
:1016A0000BC08D3239F0803349F421602CC02260A8
:1016B000246029C0286027C0206125C027FD2CC0D8
:1016C000382F30533A3098F426FF08C08E2D880FFB
:1016D000E82EEE0CEE0CE80EE30E15C08F2D880FF1
:1016E000F82EFF0CFF0CF80EF30E20620CC08E32A9
:1016F00021F426FD6CC1206406C08C3611F42068EC
:1017000002C0883649F4F10193FD859193FF8191E0
:101710001F01882309F0BACF982F9554933018F001
:101720009052933028F40C5F1F4FFFE3F9830DC0F4
:10173000833631F0833771F0833509F05CC021C006
:10174000F801808189830E5F1F4F420171E0A72E4F
:10175000B12C15C062E0662E712C600E711EF8016E
:101760008080918026FF03C06E2D70E002C06FEF75
:101770007FEFC4012C8753D15C0183012C852F7727
:1017800016C052E0652E712C600E711EF80180802B
:10179000918026FF03C06E2D70E002C06FEF7FEFD7
:1017A000C4012C8731D15C012C852068830123FD85
:1017B0001EC007C080E290E0B6012C873BD1FA94AE
:1017C0002C858F2D90E0A816B906A0F310C0F40167
:1017D00027FD859127FF81914F0190E0B6012C876D
:1017E00029D12C85F110FA940894A108B108A1140C
:1017F000B10469F7E9C0843611F0893641F527FF55
:1018000008C0F80160817181828193810C5F1F4F54
:1018100009C0F80160817181882777FD8095982F34
:101820000E5F1F4F4FE6B42EB22297FF09C090956E
:101830008095709561957F4F8F4F9F4FF0E8BF2A3D
:10184000A2012AE030E022D1782E741844C08537F6
:1018500031F43FEEB32EB2222AE030E025C099EFFA
:10186000B92EB2228F36C1F0803720F4883509F0C6
:10187000AEC00DC0803721F0883709F0A8C002C083
:1018800020E1B22AB4FE0BC084E0B82A08C0B4FE3E
:1018900009C0E6E0BE2A06C028E030E005C020E12D
:1018A00030E002C020E132E0B7FE08C0F8016081FC
:1018B0007181828193810C5F1F4F07C0F8016081A5
:1018C000718180E090E00E5F1F4FA201DFD0782E83
:1018D0007418FFE7BF22B6FE0BC02EEFB2227E14B3
:1018E00038F4B4FE07C0B2FC05C08FEEB82202C0C7
:1018F000A72C01C0AE2C8B2D90E0B4FE0DC0FE01D4
:10190000E70DF11D2081203319F4E9EEBE2209C054
:10191000A394B2FE06C004C086789070009709F0C8
:10192000A3948B2C9924B3FC13C0B0FE0EC0AF144B
:1019300028F4E72CEF0CEA18AF2C07C0E72C05C001
:1019400080E290E0B60176D0A394AF14C8F304C04F
:10195000AF1410F4FA1801C0FF2484FE0EC080E317
:1019600090E0B60167D082FE1DC081FE03C088E50D
:1019700090E010C088E790E00DC0C40186789070B8
:10198000009781F081FC02C080E201C08BE2B7FCCD
:101990008DE290E0B6014ED005C080E390E0B60144
:1019A00049D0EA947E14C8F37A94F201E70DF11D50
:1019B000808190E0B6013ED07720B1F705C080E28B
:1019C00090E0B60137D0FA94FF20C9F744CEF60173
:1019D0002681378102C02FEF3FEFC9012C96CDBF82
:1019E000DEBFCF91DF911F910F91FF90EF90DF90BD
:1019F000CF90BF90AF909F908F907F906F905F90AF
:101A00004F903F902F900895FC01059061507040D9
:101A10000110D8F7809590958E0F9F1F0895FC01B7
:101A20006150704001900110D8F7809590958E0F0D
:101A30009F1F08950F931F93CF93DF938C01EB01AA
:101A40008B8181FF1BC082FF0DC02E813F818C8165
:101A50009D812817390764F4E881F9810193E883AF
:101A6000F98306C0E885F985802F0995009731F440
:101A70008E819F8101968E839F8302C00FEF1FEF9F
:101A8000C801DF91CF911F910F910895FA01AA2704
:101A9000283051F1203181F1E8946F936E7F6E5FB1
:101AA0007F4F8F4F9F4FAF4FB1E03ED0B4E03CD05F
:101AB000670F781F891F9A1FA11D680F791F8A1F42
:101AC000911DA11D6A0F711D811D911DA11D20D0A9
:101AD00009F468943F912AE0269F11243019305D63
:101AE0003193DEF6CF010895462F4770405D419354
:101AF000B3E00FD0C9F7F6CF462F4F70405D4A33A1
:101B000018F0495D31FD4052419302D0A9F7EACF68
:101B1000B4E0A6959795879577956795BA95C9F797
:101B200000976105710508959B01AC010A2E06948A
:101B30005795479537952795BA95C9F7620F731F43
:0C1B4000841F951FA01D0895F894FFCF8E
:101B4C002563256325632563000000000000000069
:101B5C00000001020203030303040404040404044C
:101B6C00040505050505050505050505050505051A
:101B7C0005060606060606060606060606060606FA
:101B8C0006060606060606060606060606060606E9
:101B9C0006070707070707070707070707070707CA
:101BAC0007070707070707070707070707070707B9
:101BBC0007070707070707070707070707070707A9
:101BCC000707070707070707070707070707070799
:101BDC00070808080808080808080808080808087A
:101BEC000808080808080808080808080808080869
:101BFC000808080808080808080808080808080859
:101C0C000808080808080808080808080808080848
:101C1C000808080808080808080808080808080838
:101C2C000808080808080808080808080808080828
:101C3C000808080808080808080808080808080818
:101C4C000808080808080808080808080808080808
:101C5C00080000000200000000E206000000000086
:00000001FF
