:10000000F9C0000019C1000017C1000015C10000AF
:1000100013C1000011C100000FC100000DC100009C
:100020000BC1000009C1000007C1000005C10000AC
:1000300003C1000001C10000FFC00000FDC00000BE
:10004000FBC00000F9C00000F7C00000F5C00000D0
:10005000F3C00000F1C00000EFC00000EDC00000E0
:10006000EBC000009DC60000E7C00000E5C0000036
:10007000E3C00000E1C00000DFC00000DDC0000000
:10008000DBC00000D9C00000D7C00000D5C0000010
:10009000D3C00000D1C00000CFC00000CDC0000020
:1000A000CBC00000C9C00000C7C00000B9C4000038
:1000B000C3C00000C1C00000BFC00000BDC0000040
:1000C000BBC00000B9C00000B7C00000B5C0000050
:1000D000B3C00000DCC40000AFC00000ADC0000031
:1000E000ABC00000A9C00000A7C00000A5C0000070
:1000F000A3C00000A4C600009FC000009DC0000077
:100100009BC0000099C0000097C0000095C000008F
:1001100093C0000091C000008FC0000056C30000D3
:1001200076C3000096C30000B6C3000085C000007F
:1001300083C0000081C000007FC000007DC00000BF
:100140007BC0000079C0000077C0000075C00000CF
:1001500073C0000071C000006FC000006DC00000DF
:100160006BC0000069C0000067C0000065C00000EF
:1001700063C0000061C000005FC000005DC00000FF
:100180005BC0000059C0000057C0000055C000000F
:1001900053C0000051C000004FC000004DC000001F
:1001A0004BC0000049C0000047C0000045C000002F
:1001B00043C0000041C000003FC000003DC000003F
:1001C0003BC0000039C0000037C0000035C000004F
:1001D00033C0000031C000002FC000002DC000005F
:1001E0002BC0000029C0000027C0000025C000006F
:1001F00023C0000011241FBECFEFDFE2DEBFCDBF62
:1002000018BE19BE1ABE1BBE11E2A0E0B0E2E0ECBF
:10021000F6E100E00BBF02C007900D92A831B107D4
:10022000D9F713E2A8E1B1E201C01D92A130B107F4
:10023000E1F74BD50C945E0BE3CEA8E1B0E0E2E22F
:10024000F1E06AC769837A838B839C832D833E8325
:100250004F8358878E01075F1F4FCE010196B8016B
:10026000DDD181E1E82EF12CEC0EFD1ECE010596CC
:10027000B701D4D18985823038F08989823020F065
:10028000C801B70134D201C08FEF6896E6E05DC7C0
:10029000A8E1B0E0EDE4F1E03FC769837A838B83A6
:1002A0009C832D833E834F8358878E01075F1F4FAA
:1002B000CE010196B801B2D181E1E82EF12CEC0E0D
:1002C000FD1ECE010596B701A9D18985823038F08F
:1002D0008989823020F0C801B70109D201C081E0CC
:1002E0006896E6E032C7A8E0B0E0E8E7F1E012C7C0
:1002F0007B018C011A82611571058105910519F444
:1003000082E089835EC083E089838EE1C82ED12C90
:10031000CB82DC82ED82FE820F831887C801B70191
:1003200056D0FC013197F7FF3AC0AA27BB27AE1B76
:10033000BF0B21E030E040E050E00A2E04C0220F65
:10034000331F441F551F0A94D2F7215030404040BC
:1003500050402E213F214023512361E070E080E096
:1003600090E0211531054105510519F460E070E078
:10037000CB0104C016950795F794E794AA95D2F798
:10038000E62AF72A082B192BED82FE820F831887A5
:100390008EE190E08E1B9F0B8B839C8312C0309765
:1003A00081F00E2E04C0EE0CFF1C001F111F0A94DA
:1003B000D2F7ED82FE820F831887CE1ADF0ACB8236
:1003C000DC82CE0101965DD02896E8E0BCC6AF92F3
:1003D000BF92CF92DF92EF92FF920F931F937B0118
:1003E0008C0180E0E81680E0F80681E0080780E0F4
:1003F000180758F4EFEFEE16F1040105110509F0A6
:1004000090F480E090E0DC0117C0F0E0EF16F0E03F
:10041000FF06F0E00F07F1E01F0750F480E190E0E5
:10042000A0E0B0E009C088E090E0A0E0B0E004C047
:1004300088E190E0A0E0B0E020E230E040E050E071
:10044000281B390B4A0B5B0B5701680104C0D6947B
:10045000C794B794A7948A95D2F7D601C501875F50
:100460009F4DFC018081281B310941095109C901B7
:100470001F910F91FF90EF90DF90CF90BF90AF90C2
:100480000895EF92FF920F931F93CF93DF93FC0198
:10049000248135814681578161818081823020F4B9
:1004A0004061EFEFF0E0A3C0843009F49BC08230DC
:1004B00009F492C0211531054105510509F48FC099
:1004C0000280F381E02D8FEFE238F8070CF05AC07C
:1004D000C2E8DFEFCE1BDF0BCA31D1056CF5790125
:1004E0008A010C2E04C016950795F794E7940A9498
:1004F000D2F781E090E0A0E0B0E00C2E04C0880FBD
:10050000991FAA1FBB1F0A94D2F70197A109B1092D
:1005100082239323A423B52321E030E040E050E080
:100520000097A105B10519F420E030E0A9012E29BA
:100530003F29402B512B03C020E030E0A901DA0114
:10054000C9018F779070A070B07080349105A105BB
:10055000B10539F427FF09C0205C3F4F4F4F5F4F73
:1005600004C0215C3F4F4F4F5F4FE1E0F0E020308F
:1005700080E0380780E0480780E4580728F5E0E08D
:10058000F0E022C0E038F1056CF5E158FF4FDA01E8
:10059000C9018F779070A070B07080349105A1056B
:1005A000B10539F427FF09C0205C3F4F4F4F5F4F23
:1005B00004C0215C3F4F4F4F5F4F57FF05C056951A
:1005C000479537952795319687E056954795379506
:1005D00027958A95D1F70BC0E0E0F0E005C0E0E098
:1005E000F0E005C0EFEFF0E020E030E0A9018E2F51
:1005F000879588278795942F9F77679566276795B6
:10060000E695E22EA92FA82BFE2FF62B622F732F33
:100610008A2F9F2FCDB7DEB7E6E097C5DC01FB013F
:100620002C9111963C91119712968C911297482F0C
:100630004F7750E0982F991F9927991F13966C9127
:100640001397862F880F892B90E0661F6627661FF9
:100650006183009739F5211531054105510511F4E4
:1006600082E029C082E89FEF8283938367E0220FB4
:10067000331F441F551F6A95D1F783E0808309C05B
:10068000220F331F441F551F82819381019782835C
:100690009383203080E0380780E0480780E45807E3
:1006A00078F320C08F3F910579F42115310541057C
:1006B000510519F484E08083089544FF03C081E06C
:1006C000808310C010820EC08F5790408283938326
:1006D00083E0808387E0220F331F441F551F8A95D4
:1006E000D1F7506424833583468357830895FC01F2
:1006F000DB019081923008F449C08C91823008F47B
:1007000045C0943051F461818430B1F511962C913B
:10071000119730E0261B310941C0843021F092301E
:1007200041F48230B1F111968C9111978823A1F197
:100730002DC06181823001F111968C91119768175B
:10074000D9F42281338112968D919C91139782174F
:10075000930794F028173907BCF02481358146812E
:10076000578114968D919D910D90BC91A02D82176B
:100770009307A407B50718F4662341F00DC02817A6
:1007800039074A075B0728F4662331F021E030E09F
:1007900005C020E030E002C02FEF3FEFC90108950F
:1007A000A0E0B2E08C9181608C93E0E4F2E0808183
:1007B0008160808383E112968C931297828383E019
:1007C00014968C931497848308951F920F920FB6FA
:1007D0000F9208B60F920BB60F92112418BE1BBED3
:1007E0008F939F93EF93FF93E0E0F2E081A198E075
:1007F000892781A3FF91EF919F918F910F900BBE5D
:100800000F9008BE0F900FBE0F901F9018951F926B
:100810000F920FB60F9208B60F920BB60F921124DB
:1008200018BE1BBE8F939F93EF93FF93E0E0F2E01F
:1008300081A598E0892781A7FF91EF919F918F91E2
:100840000F900BBE0F9008BE0F900FBE0F901F9021
:1008500018951F920F920FB60F9208B60F920BB613
:100860000F92112418BE1BBE8F939F93EF93FF939B
:10087000E0E0F2E081A998E0892781ABFF91EF9158
:100880009F918F910F900BBE0F9008BE0F900FBEDF
:100890000F901F9018951F920F920FB60F9208B6E7
:1008A0000F920BB60F92112418BE1BBE8F939F930D
:1008B000EF93FF93E0E0F2E081AD98E0892781AF0C
:1008C000FF91EF919F918F910F900BBE0F9008BEFB
:1008D0000F900FBE0F901F901895E0E8F6E088E0AB
:1008E000818344E0428380E891E280931A219093CF
:1008F0001B21A8E1B1E2CD010896809318219093C5
:10090000192114968D939C93159716968D939C930D
:100910001797A0EABAE08CE014968C93149733E012
:1009200015963C93159780EC16968C93169787EA4C
:1009300017968C93179780E1828B21E0218742875D
:10094000E0E4FAE080E197E286A397A385E0809354
:10095000400A318326838091A2008160E0EAF0E0C2
:100960008283E1E8F1E281E01482108211828383C4
:100970003A9692E2E137F907B9F70895E0911E211E
:10098000F0911F2180911A2190911B21E817F907FE
:1009900081F42081809118219091192180931E214A
:1009A00090931F218091A10A85FFFCCF2093A00A7C
:1009B00008958091A10A85FFFCCF81918093A00AC0
:1009C000E0931E21F0931F210895E0911C21F091E6
:1009D0001D2120911A2130911B21E217F30751F4B8
:1009E0008083809118219091192180931C219093EC
:1009F0001D2108958193E0931C21F0931D210895FA
:100A0000E4CF089581E040911C2150911D21209157
:100A10001E2130911F214217530709F480E00895E9
:100A20001F920F920FB60F9208B60F9209B60F924F
:100A30000BB60F92112418BE19BE1BBE2F933F9305
:100A40004F935F936F937F938F939F93AF93BF93D6
:100A5000EF93FF93D7DF882319F080E090E08EDFDB
:100A6000FF91EF91BF91AF919F918F917F916F9186
:100A70005F914F913F912F910F900BBE0F9009BE48
:100A80000F9008BE0F900FBE0F901F9018951F92E9
:100A90000F920FB60F9208B60F9209B60F920AB6D0
:100AA0000F920BB60F92112418BE19BE1ABE1BBEB0
:100AB000BF92CF92DF92EF92FF920F931F932F93EB
:100AC0003F934F935F936F937F938F939F93AF93D6
:100AD000BF93CF93DF93EF93FF93C1E8D1E200E0A0
:100AE00010E029E0E22E21E2F22E90E0C92E90E201
:100AF000D92E80ECB82E8B81882339F08A818F5FC4
:100B00008A8380FF28C01B8226C00000288189813B
:100B10004DB75EB74C5050404DBF5EBFEDB7FEB70E
:100B20003196ADB7BEB71196ED92FC921297C28284
:100B3000D382048315838683178220878187802F41
:100B40008068828713860DD3BA824DB75EB7445F43
:100B50005F4F4DBF5EBF0F5F1F4F2A9608311105D3
:100B600051F60000FF91EF91DF91CF91BF91AF91CE
:100B70009F918F917F916F915F914F913F912F91B5
:100B80001F910F91FF90EF90DF90CF90BF900F904B
:100B90000BBE0F900ABE0F9009BE0F9008BE0F90BB
:100BA0000FBE0F901F901895DF92EF92FF920F9358
:100BB0001F93CF93DF93D82EEB0180E090E093DB7F
:100BC0007B018C0120E030E041E654E461DB87FDED
:100BD0000AC0C801B70120E030EE44E455E42DDB43
:100BE000181624F005C0C4E8D3E002C0CEE4DCE06F
:100BF000DA948D2D90E0FC01EE0FFF1FB3E0880F1B
:100C0000991FBA95E1F7E80FF91FEF57FE4DC08322
:100C1000D1838D2D90E0FC01EE0FFF1F73E0880F54
:100C2000991F7A95E1F7E80FF91FEF57FE4D81E024
:100C300084838D2D90E0FC01EE0FFF1F53E0880FA1
:100C4000991F5A95E1F7E80FF91FEF57FE4D1382F0
:100C5000DF91CF911F910F91FF90EF90DF9008955A
:100C6000E0E0FBE080E094E086A397A381E080834E
:100C700083EF818310A611A612A613A614A615A6AB
:100C800016A617A60895E0E0F4E081E080831086C0
:100C9000118608958FE0E0EAF6E081838FEFE0E2CD
:100CA000F7E0818382E0E0EEF7E0818380915000FD
:100CB0008260809350008091510081FFFCCF88EDCD
:100CC00084BF81E080934000CBCF0F931F93CF93DD
:100CD000DF93E0DFD8DF82E0E0EEF7E08683FDDD42
:100CE00080EA98E040E052EC61E070E0DCD080EB1C
:100CF0009AE040E855E260E070E0D5D051DD7894AC
:100D000000002DC008E110E084E1BE014DDF01507C
:100D10001040D1F78FEF93EFA1E081509040A040B9
:100D2000E1F700C0000028969EE0C031D90750F3DB
:100D3000C0E1DEE017C084E1BE0136DF01501040A3
:100D4000D1F78FEF93EFA1E081509040A040E1F701
:100D500000C00000289793E0C038D90719F4C4E810
:100D6000D3E0E2CF08E110E0E6CFE0917522F09108
:100D700076222091732230917422E217F30751F406
:100D8000808380917122909172228093752290933A
:100D9000762208958193E0937522F0937622089548
:100DA0001F920F920FB60F9208B60F9209B60F92CC
:100DB0000BB60F92112418BE19BE1BBE2F933F9382
:100DC0004F935F936F937F938F939F93AF93BF9353
:100DD000EF93FF938091A008C8DFFF91EF91BF913F
:100DE000AF919F918F917F916F915F914F913F91C3
:100DF0002F910F900BBE0F9009BE0F9008BE0F9061
:100E00000FBE0F901F901895E091BD22F091BE2269
:100E10002091BB223091BC22E217F30751F480836A
:100E20008091B9229091BA228093BD229093BE22E4
:100E300008958193E093BD22F093BE2208951F92FE
:100E40000F920FB60F9208B60F9209B60F920BB61B
:100E50000F92112418BE19BE1BBE2F933F934F93C0
:100E60005F936F937F938F939F93AF93BF93EF9312
:100E7000FF938091B00AC8DFFF91EF91BF91AF91CE
:100E80009F918F917F916F915F914F913F912F91A2
:100E90000F900BBE0F9009BE0F9008BE0F900FBEB3
:100EA0000F901F901895FC018091A2008260A0EA2B
:100EB000B0E012968C93129788E0E03AF807A1F41C
:100EC00088E0A0E4B6E011968C9388EB92E28093E0
:100ED000732290937422A1E7B2E2CD010896809329
:100EE00071229093722227C088E0E03BF80759F105
:100EF00089E0E03AF80739F189E0E03BF80719F1B9
:100F00008AE0E03AF807F9F08AE0E03BF807D9F424
:100F100080E8A0E8B6E011968C9380E093E280939D
:100F2000BB229093BC22A9EBB2E2CD01089680933C
:100F3000B9229093BA2214968D939C931597169686
:100F40008D939C931797838180628383403880E7D9
:100F5000580780E0680780E0780709F492C04138BC
:100F600080E7580780E0680780E07807BCF54038E4
:100F700085E2580780E0680780E0780709F4B7C089
:100F8000413885E2580780E0680780E078079CF4E4
:100F9000403B84E0580780E0680780E0780709F468
:100FA0005DC0403C82E1580780E0680780E0780738
:100FB00009F09DC05AC0403488E3580780E06807B4
:100FC00080E0780709F459C040308BE4580780E08E
:100FD000680780E0780709F08AC051C0403081EE90
:100FE000580780E0680780E0780709F460C0413066
:100FF00081EE580780E0680780E078079CF4403075
:1010000086E9580780E0680780E0780709F441C066
:10101000403C8AED580780E0680780E0780709F0D7
:1010200066C03FC0483488EE580781E0680780E01A
:10103000780709F44CC0403084E8580783E068071B
:1010400080E0780709F44BC0403082EC580781E01B
:10105000680780E0780709F04AC031C088E18483DE
:1010600083E0858386838DEC49C088E1848383E0B7
:1010700085838DEF86838CED41C088E103C08CE1D0
:1010800037C08CE1848383E085838EE9868388EC96
:1010900035C08CE1848383E0858385EE86838CEB89
:1010A0002DC08CE1848383E085838EEC05C08CE1C8
:1010B000848383E085838EE8868388EB1FC08CE180
:1010C000848383E085838EE6868388EA17C08CE17B
:1010D000848383E0858380EC868387EA0FC08CE17C
:1010E000848383E085838EE2868388E907C088E174
:1010F000848383E0858385EF86838CEC87830895E2
:101100002F923F924F925F926F927F928F929F9217
:10111000AF92BF92CF92DF92EF92FF920F931F9305
:10112000CF93DF93CDB7DEB7CA1BDB0BCDBFDEBFDE
:1011300009942A88398848885F846E847D848C84E9
:101140009B84AA84B984C884DF80EE80FD800C81F2
:101150001B81AA81B981CE0FD11DCDBFDEBFED01AC
:101160000895DF93CF93CDB7DEB79E01275F3F4F42
:101170008D819E816F817885A90103D0CF91DF9108
:1011800008952F923F924F925F926F927F928F922B
:101190009F92AF92BF92CF92DF92EF92FF920F9306
:1011A0001F93DF93CF93CDB7DEB72C97CDBFDEBFB4
:1011B0006C011B018A01FC0116821782838181FF69
:1011C000C4C12E010894411C511CF6019381F10108
:1011D00093FD859193FF81911F01882309F4B1C18B
:1011E000853239F493FD859193FF81911F018532FA
:1011F00021F490E0B601D8D1E8CFEE24FF2420E01E
:101200002032B0F48B3269F08C3228F4803251F005
:10121000833271F40BC08D3239F0803349F4216090
:101220002CC02260246029C0286027C0206125C00E
:1012300027FD2CC0382F30533A3098F426FF08C0D1
:101240008E2D880FE82EEE0CEE0CE80EE30E15C086
:101250008F2D880FF82EFF0CFF0CF80EF30E206276
:101260000CC08E3221F426FD6CC1206406C08C3681
:1012700011F4206802C0883649F4F10193FD85918C
:1012800093FF81911F01882309F0BACF982F9554BD
:10129000933018F09052933028F40C5F1F4FFFE307
:1012A000F9830DC0833631F0833771F0833509F04F
:1012B0005CC021C0F801808189830E5F1F4F42010D
:1012C00071E0A72EB12C15C062E0662E712C600E65
:1012D000711EF8018080918026FF03C06E2D70E0A2
:1012E00002C06FEF7FEFC4012C8753D15C018301F3
:1012F0002C852F7716C052E0652E712C600E711E62
:10130000F8018080918026FF03C06E2D70E002C03E
:101310006FEF7FEFC4012C8731D15C012C852068F1
:10132000830123FD1EC007C080E290E0B6012C8738
:101330003BD1FA942C858F2D90E0A816B906A0F326
:1013400010C0F40127FD859127FF81914F0190E0A6
:10135000B6012C8729D12C85F110FA940894A108A4
:10136000B108A114B10469F7E9C0843611F08936D7
:1013700041F527FF08C0F801608171818281938166
:101380000C5F1F4F09C0F80160817181882777FDCC
:101390008095982F0E5F1F4F4FE6B42EB22297FF15
:1013A00009C090958095709561957F4F8F4F9F4FA5
:1013B000F0E8BF2AA2012AE030E022D1782E74188A
:1013C00044C0853731F43FEEB32EB2222AE030E03C
:1013D00025C099EFB92EB2228F36C1F0803720F4A4
:1013E000883509F0AEC00DC0803721F0883709F08C
:1013F000A8C002C020E1B22AB4FE0BC084E0B82A23
:1014000008C0B4FE09C0E6E0BE2A06C028E030E00D
:1014100005C020E130E002C020E132E0B7FE08C0A4
:10142000F80160817181828193810C5F1F4F07C039
:10143000F8016081718180E090E00E5F1F4FA20192
:10144000DFD0782E7418FFE7BF22B6FE0BC02EEF58
:10145000B2227E1438F4B4FE07C0B2FC05C08FEE91
:10146000B82202C0A72C01C0AE2C8B2D90E0B4FE98
:101470000DC0FE01E70DF11D2081203319F4E9EEC6
:10148000BE2209C0A394B2FE06C004C08678907044
:10149000009709F0A3948B2C9924B3FC13C0B0FEE1
:1014A0000EC0AF1428F4E72CEF0CEA18AF2C07C0DD
:1014B000E72C05C080E290E0B60176D0A394AF148B
:1014C000C8F304C0AF1410F4FA1801C0FF2484FE5E
:1014D0000EC080E390E0B60167D082FE1DC081FEA1
:1014E00003C088E590E010C088E790E00DC0C4011B
:1014F00086789070009781F081FC02C080E201C084
:101500008BE2B7FC8DE290E0B6014ED005C080E3DF
:1015100090E0B60149D0EA947E14C8F37A94F201BF
:10152000E70DF11D808190E0B6013ED07720B1F744
:1015300005C080E290E0B60137D0FA94FF20C9F7E9
:1015400044CEF6012681378102C02FEF3FEFC9015B
:101550002C96CDBFDEBFCF91DF911F910F91FF90F1
:10156000EF90DF90CF90BF90AF909F908F907F9043
:101570006F905F904F903F902F900895FC010590E1
:10158000615070400110D8F7809590958E0F9F1F85
:101590000895FC016150704001900110D8F78095CA
:1015A00090958E0F9F1F08950F931F93CF93DF93F6
:1015B0008C01EB018B8181FF1BC082FF0DC02E814E
:1015C0003F818C819D812817390764F4E881F98176
:1015D0000193E883F98306C0E885F985802F099592
:1015E000009731F48E819F8101968E839F8302C084
:1015F0000FEF1FEFC801DF91CF911F910F91089559
:10160000FA01AA27283051F1203181F1E8946F9333
:101610006E7F6E5F7F4F8F4F9F4FAF4FB1E03ED0D9
:10162000B4E03CD0670F781F891F9A1FA11D680F77
:10163000791F8A1F911DA11D6A0F711D811D911DAA
:10164000A11D20D009F468943F912AE0269F11241F
:101650003019305D3193DEF6CF010895462F477083
:10166000405D4193B3E00FD0C9F7F6CF462F4F70DE
:10167000405D4A3318F0495D31FD4052419302D03C
:10168000A9F7EACFB4E0A6959795879577956795E2
:10169000BA95C9F700976105710508959B01AC01E2
:1016A0000A2E06945795479537952795BA95C9F709
:1016B000620F731F841F951FA01D0895F894FFCF1C
:1016C00025632563256325630000010202030303EC
:1016D00003040404040404040405050505050505C4
:1016E00005050505050505050506060606060606A3
:1016F000060606060606060606060606060606068A
:101700000606060606060606060707070707070772
:101710000707070707070707070707070707070759
:101720000707070707070707070707070707070749
:101730000707070707070707070707070707070739
:101740000707070707070707070808080808080822
:101750000808080808080808080808080808080809
:1017600008080808080808080808080808080808F9
:1017700008080808080808080808080808080808E9
:1017800008080808080808080808080808080808D9
:1017900008080808080808080808080808080808C9
:1017A00008080808080808080808080808080808B9
:1017B00008080808080808080808080808080808A9
:1017C00008080808080808080800000002000000CF
:0817D00000000500000000000C
:00000001FF
