:1000000026C1000046C1000044C1000042C10000FA
:1000100040C100003EC100003CC100003AC10000E8
:1000200038C1000036C1000034C1000032C10000F8
:1000300030C100002EC100002CC100002AC1000008
:1000400028C1000026C1000024C1000022C1000018
:1000500020C100001EC100001CC100001AC1000028
:1000600018C1000060C3000014C1000012C10000EC
:10007000A9C300000EC100000CC100000AC10000AD
:1000800008C1000006C1000004C1000002C1000058
:1000900000C10000FEC00000FCC00000FAC000006B
:1000A000F8C00000F6C00000F4C00000F2C000007C
:1000B000F0C00000EEC00000ECC00000EAC000008C
:1000C000E8C00000E6C00000E4C00000E2C000009C
:1000D000E0C00000DEC00000DCC00000DAC00000AC
:1000E000D8C00000D6C00000FDC10000D2C0000092
:1000F000D0C0000054C40000CCC00000CAC0000042
:10010000C8C00000C6C00000C4C00000C2C00000DB
:10011000C0C00000BEC00000BCC00000D0C00000D5
:10012000F0C0000010C1000030C10000B2C00000EB
:10013000B0C00000AEC00000ACC00000AAC000000B
:10014000A8C00000A6C00000A4C00000A2C000001B
:10015000A0C000009EC000009CC000009AC000002B
:1001600080C3000096C0000094C00000C9C3000016
:1001700090C000008EC000008CC000008AC000004B
:1001800088C0000086C0000084C0000082C000005B
:1001900080C000007EC000007CC000007AC000006B
:1001A00078C0000076C0000074C0000072C000007B
:1001B00070C000006EC000006CC000006AC000008B
:1001C00068C0000066C0000064C0000062C000009B
:1001D00060C000005EC000005CC000002FC40000D2
:1001E00058C0000056C0000078C4000052C0000093
:1001F00050C000004F7574206F66207468652042FF
:100200006F783A0D456C656374726F6E6963732025
:10021000616E6420526F626F746963730D50726512
:1002200073656E7473207468650D457069706861DC
:100230006E79204449590D536F6674776172652059
:1002400056657273696F6E2025730D257300112436
:100250001FBECFEFDFE2DEBFCDBF18BE19BE1ABE94
:100260001BBE10E2A0E0B0E2E0E5F4E100E00BBF6D
:1002700002C007900D92AA32B107D9F712E2AAE2A2
:10028000B0E201C01D92A938B107E1F7B4D10C94D6
:10029000260AB6CEA0E0B2E08C9181608C93E0E4B7
:1002A000F2E080818160808383E112968C931297C3
:1002B000828383E014968C931497848308951F920D
:1002C0000F920FB60F9208B60F920BB60F92112431
:1002D00018BE1BBE8F939F93EF93FF93E0E0F2E075
:1002E00081A198E0892781A3FF91EF919F918F9140
:1002F0000F900BBE0F9008BE0F900FBE0F901F9077
:1003000018951F920F920FB60F9208B60F920BB668
:100310000F92112418BE1BBE8F939F93EF93FF93F0
:10032000E0E0F2E081A598E0892781A7FF91EF91B5
:100330009F918F910F900BBE0F9008BE0F900FBE34
:100340000F901F9018951F920F920FB60F9208B63C
:100350000F920BB60F92112418BE1BBE8F939F9362
:10036000EF93FF93E0E0F2E081A998E0892781AB69
:10037000FF91EF919F918F910F900BBE0F9008BE50
:100380000F900FBE0F901F9018951F920F920FB6EF
:100390000F9208B60F920BB60F92112418BE1BBE17
:1003A0008F939F93EF93FF93E0E0F2E081AD98E0AD
:1003B000892781AFFF91EF919F918F910F900BBE95
:1003C0000F9008BE0F900FBE0F901F901895E0E0A1
:1003D000FBE080E094E086A397A381E0808383EF35
:1003E000818310A611A612A613A614A615A616A6FA
:1003F00017A60895262F372F94E02130390710F0E3
:1004000020E034E08150813091F0813030F0823052
:1004100019F1833009F04DC037C0E0E0FBE020A7C0
:1004200031A7E0E2F7E04583409543702BC0E0E060
:10043000FBE022A733A750E0CA01880F991F880F5D
:10044000991FE0E2F7E0858340955095440F551FD2
:10045000440F551F4C7016C0E0E0FBE024A735A701
:1004600050E0CA0164E0880F991F6A95E1F7E0E265
:10047000F7E085834095509534E0440F551F3A9539
:10048000E1F7407346830895E0E0FBE026A737A735
:1004900050E0CA0126E0880F991F2A95E1F7E0E2B3
:1004A000F7E08583409550954295440F440F407C7A
:1004B0004683089580EA9AE040E051EE60E070E003
:1004C00040D382E0E0EAF0E08283789480E090E03C
:1004D0002AE5FC01E65DFF4D2083019688319105F8
:1004E000C1F708951F920F920FB60F9208B60F92A0
:1004F00009B60F920AB60F920BB60F92112418BECE
:1005000019BE1ABE1BBE2F933F934F935F936F93F9
:100510007F938F939F93AF93BF93CF93DF93EF938B
:10052000FF93F894C0918522D09186228BE190E2CE
:1005300080938522909386228091A00A823739F495
:100540008091412090E0E0D41092422012C08E367B
:1005500061F490914220E92FF0E0E65DFF4D80814B
:100560009F5F9093422090E003C0992787FD90956C
:10057000CBD4C0938522D09386227894FF91EF91BB
:10058000DF91CF91BF91AF919F918F917F916F91AB
:100590005F914F913F912F910F900BBE0F900ABE2C
:1005A0000F9009BE0F9008BE0F900FBE0F901F90C6
:1005B0001895E0E0F4E081E08083108611860895CC
:1005C0008FE0E0EAF6E081838FEFE0E2F7E08183FD
:1005D00082E0E0EEF7E081838091500082608093BA
:1005E00050008091510081FFFCCF88ED84BF81E0F5
:1005F00080934000ECCE1F93CF93DF93E1DFD9DFF0
:1006000082E0E0EEF7E0868355DF80EA98E040E0A4
:1006100052EC61E070E095D280EB9AE040E855E260
:1006200060E070E08ED236DE78948DB79EB7089782
:100630008DBF9EBFEDB7FEB731968DE090E2ADB7AE
:10064000BEB711968D939C93129784EF91E08283AD
:10065000938380E090E28483958384E090E28683B4
:10066000978335D48DB79EB708968DBF9EBF12C0B5
:10067000812FBE0141E0BEDE1F5F1530C9F7AFEB31
:10068000BDE51197F1F700C000002196B4E0C0303D
:10069000DB0710F0C0E0D0E010E0EACF9091A10AB3
:1006A00095FFFCCF8093A00A08959091A10895FF33
:1006B000FCCF8093A0080895E0912121F0912221A0
:1006C00020911D2130911E218081E217F30749F40A
:1006D00020911B2130911C21209321213093222134
:1006E00005C03196E0932121F093222190E00895F6
:1006F000E0911F21F091202120911D2130911E2198
:10070000E217F30751F4808380911B2190911C2103
:1007100080931F219093202108958193E0931F21BE
:10072000F093202108951F920F920FB60F9208B6F2
:100730000F9209B60F920BB60F92112418BE19BE74
:100740001BBE2F933F934F935F936F937F938F9332
:100750009F93AF93BF93EF93FF938091A008C8DF5F
:10076000FF91EF91BF91AF919F918F917F916F9189
:100770005F914F913F912F910F900BBE0F9009BE4B
:100780000F9008BE0F900FBE0F901F901895E0912C
:100790004720F09148202091452030914620E217D3
:1007A000F30751F4808380914320909144208093FB
:1007B00047209093482008958193E0934720F09339
:1007C000482008951F920F920FB60F9208B60F920D
:1007D00009B60F920BB60F92112418BE19BE1BBE9C
:1007E0002F933F934F935F936F937F938F939F9339
:1007F000AF93BF93EF93FF938091B008C8DFFF9151
:10080000EF91BF91AF919F918F917F916F915F9188
:100810004F913F912F910F900BBE0F9009BE0F90FB
:1008200008BE0F900FBE0F901F901895E0918F207B
:10083000F091902020918D2030918E20E217F307C7
:1008400051F4808380918B2090918C2080938F2015
:100850009093902008958193E0938F20F0939020BF
:1008600008951F920F920FB60F9208B60F9209B615
:100870000F920BB60F92112418BE19BE1BBE2F93F8
:100880003F934F935F936F937F938F939F93AF9318
:10089000BF93EF93FF938091A009C8DFFF91EF9181
:1008A000BF91AF919F918F917F916F915F914F9188
:1008B0003F912F910F900BBE0F9009BE0F9008BE75
:1008C0000F900FBE0F901F901895E091D720F091D8
:1008D000D8202091D5203091D620E217F30751F48B
:1008E00080838091D3209091D4208093D7209093BF
:1008F000D82008958193E093D720F093D8200895CD
:100900001F920F920FB60F9208B60F9209B60F9270
:100910000BB60F92112418BE19BE1BBE2F933F9326
:100920004F935F936F937F938F939F93AF93BF93F7
:10093000EF93FF938091B009C8DFFF91EF91BF91D2
:10094000AF919F918F917F916F915F914F913F9167
:100950002F910F900BBE0F9009BE0F9008BE0F9005
:100960000FBE0F901F901895E0916721F0916821BC
:100970002091652130916621E217F30751F48083BD
:1009800080916321909164218093672190936821E5
:1009900008958193E0936721F093682108951F9251
:1009A0000F920FB60F9208B60F9209B60F920BB6C0
:1009B0000F92112418BE19BE1BBE2F933F934F9365
:1009C0005F936F937F938F939F93AF93BF93EF93B7
:1009D000FF938091B00AC8DFFF91EF91BF91AF9173
:1009E0009F918F917F916F915F914F913F912F9147
:1009F0000F900BBE0F9009BE0F9008BE0F900FBE58
:100A00000F901F901895E0913F22F0914022209185
:100A10003D2230913E22E217F30751F4808380910A
:100A20003B2290913C2280933F2290934022089554
:100A30008193E0933F22F093402208951F920F92FA
:100A40000FB60F9208B60F9209B60F920BB60F921F
:100A5000112418BE19BE1BBE2F933F934F935F9373
:100A60006F937F938F939F93AF93BF93EF93FF9376
:100A70008091A00BC8DFFF91EF91BF91AF919F9143
:100A80008F917F916F915F914F913F912F910F9037
:100A90000BBE0F9009BE0F9008BE0F900FBE0F90B7
:100AA0001F901895E091F721F091F8212091F52100
:100AB0003091F621E217F30751F480838091F321FE
:100AC0009091F4218093F7219093F82108958193D8
:100AD000E093F721F093F82108951F920F920FB63B
:100AE0000F9208B60F9209B60F920BB60F9211240F
:100AF00018BE19BE1BBE2F933F934F935F936F9306
:100B00007F938F939F93AF93BF93EF93FF938091C6
:100B1000B00BC8DFFF91EF91BF91AF919F918F9183
:100B20007F916F915F914F913F912F910F900BBEED
:100B30000F9009BE0F9008BE0F900FBE0F901F9030
:100B40001895FC018091A2008260A0EAB0E01296A4
:100B50008C93129788E0E03AF807E9F488E0A0E483
:100B6000B6E011968C9382E691E280931D219093DA
:100B70001E21ABE1B1E2CD01089680931B21909339
:100B80001C2114968D939C93159716968D939C9388
:100B900017970000D2C088E0E03BF807C1F4A0E45A
:100BA000B6E080E811968C93119788E011968C93AB
:100BB0008AE890E28093452090934620A3E4B0E237
:100BC000CD0108968093432090934420AEC089E0E5
:100BD000E03AF807C1F488E0A0E6B6E011968C93FD
:100BE000A0E4B6E011968C9382ED90E280938D2084
:100BF00090938E20ABE8B0E2CD01089680938B20D5
:100C000090938C2092C089E0E03BF807C9F480E81B
:100C1000A0E6B6E011968C9388E0A0E4B6E01196C9
:100C20008C938AE191E28093D5209093D620A3ED16
:100C3000B0E2CD0108968093D3209093D42075C064
:100C40008AE0E03AF807C1F488E0A0E8B6E011963F
:100C50008C93A0E4B6E011968C9382EF91E280939E
:100C6000AD219093AE21ABEAB1E2CD01089680931D
:100C7000AB219093AC2159C08AE0E03BF807E9F43E
:100C800080E8A0E8B6E011968C938AEA91E280931E
:100C9000652190936621A3E6B1E2CD010896809389
:100CA00063219093642114968D939C9315971696C7
:100CB0008D939C931797000040C08BE0E03AF807B3
:100CC000C1F488E0A0EAB6E011968C93A0E4B6E007
:100CD00011968C9382E892E280933D2290933E227B
:100CE000ABE3B2E2CD01089680933B2290933C2285
:100CF0001CC08BE0E03BF80701F580E8A0EAB6E015
:100D000011968C9388E0A0E4B6E011968C938AE368
:100D100092E28093F5219093F621A3EFB1E2CD0109
:100D200008968093F3219093F42114968D939C93CD
:100D3000159716968D939C93179783818062838372
:100D4000403880E7580780E0680780E0780709F4BA
:100D500087C0413880E7580780E0680780E078075F
:100D6000BCF5403885E2580780E0680780E07807E6
:100D700009F4A4C0413885E2580780E0680780E0A4
:100D800078079CF4403B84E0580780E0680780E0E7
:100D9000780709F452C0403C82E1580780E06807B8
:100DA00080E0780709F08AC04FC0403488E35807D4
:100DB00080E0680780E0780709F44EC040308BE49B
:100DC000580780E0680780E0780709F077C046C0E0
:100DD000403081EE580780E0680780E0780709F42A
:100DE00055C0413081EE580780E0680780E0780701
:100DF00094F4403086E9580780E0680780E078077F
:100E0000B9F1403C8AED580780E0680780E0780738
:100E100009F054C035C0403082EC580781E06807C3
:100E200080E07807D9F1403084E8580783E068070C
:100E300080E0780709F042C039C088E1848383E00C
:100E4000858386838DEC41C088E1848383E085833C
:100E50008DEF86838CED39C088E103C08CE12FC013
:100E60008CE1848383E085838EE9868388EC2DC0C2
:100E70008CE1848383E0858385EE86838CEB25C0BB
:100E80008CE1848383E085838EEC05C08CE18483D0
:100E900083E085838EE8868388EB17C08CE18483AA
:100EA00083E085838EE6868388EA0FC08CE18483A5
:100EB00083E085838EE2868388E907C088E18483A6
:100EC00083E0858385EF86838CEC878308950F9379
:100ED0001F93DF93CF93CDB7DEB70F8118859E01A7
:100EE000255F3F4FF801838188608383C80169854E
:100EF0007A85A9010ED0F8012381277F2383CF9122
:100F0000DF911F910F910895609185227091862243
:100F100013C22F923F924F925F926F927F928F9265
:100F20009F92AF92BF92CF92DF92EF92FF920F9378
:100F30001F93DF93CF93CDB7DEB72C97CDBFDEBF26
:100F40006C011B018A01FC0116821782838181FFDB
:100F5000C4C12E010894411C511CF6019381F1017A
:100F600093FD859193FF81911F01882309F4B1C1FD
:100F7000853239F493FD859193FF81911F0185326C
:100F800021F490E0B601D8D1E8CFEE24FF2420E090
:100F90002032B0F48B3269F08C3228F4803251F078
:100FA000833271F40BC08D3239F0803349F4216003
:100FB0002CC02260246029C0286027C0206125C081
:100FC00027FD2CC0382F30533A3098F426FF08C044
:100FD0008E2D880FE82EEE0CEE0CE80EE30E15C0F9
:100FE0008F2D880FF82EFF0CFF0CF80EF30E2062E9
:100FF0000CC08E3221F426FD6CC1206406C08C36F4
:1010000011F4206802C0883649F4F10193FD8591FE
:1010100093FF81911F01882309F0BACF982F95542F
:10102000933018F09052933028F40C5F1F4FFFE379
:10103000F9830DC0833631F0833771F0833509F0C1
:101040005CC021C0F801808189830E5F1F4F42017F
:1010500071E0A72EB12C15C062E0662E712C600ED7
:10106000711EF8018080918026FF03C06E2D70E014
:1010700002C06FEF7FEFC4012C8753D15C01830165
:101080002C852F7716C052E0652E712C600E711ED4
:10109000F8018080918026FF03C06E2D70E002C0B1
:1010A0006FEF7FEFC4012C8731D15C012C85206864
:1010B000830123FD1EC007C080E290E0B6012C87AB
:1010C0003BD1FA942C858F2D90E0A816B906A0F399
:1010D00010C0F40127FD859127FF81914F0190E019
:1010E000B6012C8729D12C85F110FA940894A10817
:1010F000B108A114B10469F7E9C0843611F089364A
:1011000041F527FF08C0F8016081718182819381D8
:101110000C5F1F4F09C0F80160817181882777FD3E
:101120008095982F0E5F1F4F4FE6B42EB22297FF87
:1011300009C090958095709561957F4F8F4F9F4F17
:10114000F0E8BF2AA2012AE030E022D1782E7418FC
:1011500044C0853731F43FEEB32EB2222AE030E0AE
:1011600025C099EFB92EB2228F36C1F0803720F416
:10117000883509F0AEC00DC0803721F0883709F0FE
:10118000A8C002C020E1B22AB4FE0BC084E0B82A95
:1011900008C0B4FE09C0E6E0BE2A06C028E030E080
:1011A00005C020E130E002C020E132E0B7FE08C017
:1011B000F80160817181828193810C5F1F4F07C0AC
:1011C000F8016081718180E090E00E5F1F4FA20105
:1011D000DFD0782E7418FFE7BF22B6FE0BC02EEFCB
:1011E000B2227E1438F4B4FE07C0B2FC05C08FEE04
:1011F000B82202C0A72C01C0AE2C8B2D90E0B4FE0B
:101200000DC0FE01E70DF11D2081203319F4E9EE38
:10121000BE2209C0A394B2FE06C004C086789070B6
:10122000009709F0A3948B2C9924B3FC13C0B0FE53
:101230000EC0AF1428F4E72CEF0CEA18AF2C07C04F
:10124000E72C05C080E290E0B60176D0A394AF14FD
:10125000C8F304C0AF1410F4FA1801C0FF2484FED0
:101260000EC080E390E0B60167D082FE1DC081FE13
:1012700003C088E590E010C088E790E00DC0C4018D
:1012800086789070009781F081FC02C080E201C0F6
:101290008BE2B7FC8DE290E0B6014ED005C080E352
:1012A00090E0B60149D0EA947E14C8F37A94F20132
:1012B000E70DF11D808190E0B6013ED07720B1F7B7
:1012C00005C080E290E0B60137D0FA94FF20C9F75C
:1012D00044CEF6012681378102C02FEF3FEFC901CE
:1012E0002C96CDBFDEBFCF91DF911F910F91FF9064
:1012F000EF90DF90CF90BF90AF909F908F907F90B6
:101300006F905F904F903F902F900895FC01059053
:10131000615070400110D8F7809590958E0F9F1FF7
:101320000895FC016150704001900110D8F780953C
:1013300090958E0F9F1F08950F931F93CF93DF9368
:101340008C01EB018B8181FF1BC082FF0DC02E81C0
:101350003F818C819D812817390764F4E881F981E8
:101360000193E883F98306C0E885F985802F099504
:10137000009731F48E819F8101968E839F8302C0F6
:101380000FEF1FEFC801DF91CF911F910F910895CB
:10139000FA01AA27283051F1203181F1E8946F93A6
:1013A0006E7F6E5F7F4F8F4F9F4FAF4FB1E03ED04C
:1013B000B4E03CD0670F781F891F9A1FA11D680FEA
:1013C000791F8A1F911DA11D6A0F711D811D911D1D
:1013D000A11D20D009F468943F912AE0269F112492
:1013E0003019305D3193DEF6CF010895462F4770F6
:1013F000405D4193B3E00FD0C9F7F6CF462F4F7051
:10140000405D4A3318F0495D31FD4052419302D0AE
:10141000A9F7EACFB4E0A695979587957795679554
:10142000BA95C9F700976105710508959B01AC0154
:101430000A2E06945795479537952795BA95C9F77B
:10144000620F731F841F951FA01D0895F894FFCF8E
:10145000312E33004E6F76203230313100000000E3
:10146000030000000055035C0300000000000200C0
:0A1470000000004E03000000000021
:00000001FF
