:10000000F9C0000018C1000016C1000014C10000B2
:1000100012C1000010C100000EC100000CC10000A0
:100020000AC1000008C1000006C1000004C10000B0
:1000300002C1000000C10000FEC00000FCC00000C2
:10004000FAC00000F8C00000F6C00000F4C00000D4
:10005000F2C00000F0C00000EEC00000ECC00000E4
:10006000EAC00000E8C00000E6C00000E4C00000F4
:10007000E2C00000E0C00000DEC00000DCC0000004
:10008000DAC00000D8C00000D6C00000D4C0000014
:10009000D2C00000D0C00000CEC00000CCC0000024
:1000A000CAC00000C8C00000C6C00000C4C0000034
:1000B000C2C00000C0C00000BEC00000BCC0000044
:1000C000BAC00000B8C00000B6C00000B4C0000054
:1000D000B2C00000B0C00000AEC0000051C10000BE
:1000E000AAC00000A8C00000DDC00000A4C000003D
:1000F000A2C00000A0C000009EC000009CC0000084
:100100009AC0000098C0000096C0000094C0000093
:1001100092C0000090C000008EC000008CC00000A3
:100120008AC0000088C0000086C0000084C00000B3
:1001300082C0000080C000007EC000007CC00000C3
:100140007AC0000078C0000076C0000074C00000D3
:1001500072C0000070C000006EC000006CC00000E3
:100160006AC0000068C0000066C0000064C00000F3
:1001700062C0000060C000005EC000005CC0000003
:100180005AC0000058C0000056C0000054C0000013
:1001900052C0000050C000004EC000004CC0000023
:1001A0004AC0000048C0000046C0000044C0000033
:1001B00042C0000040C000003EC000003CC0000043
:1001C0003AC0000038C0000036C0000034C0000053
:1001D00032C0000030C000002EC000002CC0000063
:1001E0002AC0000028C0000026C0000024C0000073
:1001F00022C0000011241FBECFEFDFE2DEBFCDBF63
:1002000018BE19BE1ABE1BBE10E2A0E0B0E2ECEAB6
:10021000F6E000E00BBF02C007900D92AC31B107D1
:10022000D9F710E2ACE1B0E201C01D92A734B107EA
:10023000E1F7DFD039C2E4CEA0E0B2E08C9181607A
:100240008C93E0E4F2E080818160808383E1129608
:100250008C931297828383E014968C9314978483F3
:100260000895E0E0FBE080E094E086A397A381E0BE
:100270008083089580EA9AE040E051EE60E070E00B
:10028000DDD082E0E0EAF0E08283789420E080E054
:1002900090E0FC01E45EFF4D20830196295F283A3F
:1002A000C1F708951F920F920FB60F9208B60F92E2
:1002B00009B60F920AB60F920BB60F92112418BE10
:1002C00019BE1ABE1BBE2F933F934F935F936F933C
:1002D0007F938F939F93AF93BF93CF93DF93EF93CE
:1002E000FF93F894C0914320D09144208EE090E297
:1002F00080934320909344208091A00A823739F460
:100300008091332090E09FD11092342012C08E361D
:1003100061F490913420E92FF0E0E45EFF4D80819C
:100320009F5F9093342090E003C0992787FD9095BC
:100330008AD1C0934320D09344207894FF91EF91C9
:10034000DF91CF91BF91AF919F918F917F916F91ED
:100350005F914F913F912F910F900BBE0F900ABE6E
:100360000F9009BE0F9008BE0F900FBE0F901F9008
:100370001895E0E0F4E081E080831086118608950E
:100380001F920F920FB60F9208B60F920BB60F92F4
:10039000112418BE1BBE8F939F93EF93FF93E0E44D
:1003A000FAE080A591A5E0913F20F0914020838361
:1003B0009483FF91EF919F918F910F900BBE0F90BF
:1003C00008BE0F900FBE0F901F90189582E0E0EED0
:1003D000F7E081838091500082608093500080918B
:1003E000510081FFFCCF88ED84BF81E08093400005
:1003F00038CFECDFBEDF82E0E0EEF7E086833ADF65
:1004000080EA98E040E051EE60E070E017D080E0D4
:1004100090E280934320909344200EDF0000FECFB3
:100420009091A10A95FFFCCF8093A00A0895909126
:10043000A10895FFFCCF8093A0080895FC0188E0F7
:10044000E03AF80711F488E005C088E0E03BF807DF
:1004500021F480E8A0E4B6E029C089E0E03AF8079A
:1004600011F488E005C089E0E03BF80721F480E85A
:10047000A0E6B6E01BC08AE0E03AF80711F488E095
:1004800005C08AE0E03BF80721F480E8A0E8B6E088
:100490000DC08BE0E03AF80711F488E005C08BE06E
:1004A000E03BF80731F480E8A0EAB6E011968C93BF
:1004B0001197838180628383403880E7580780E00A
:1004C000680780E0780709F487C0413880E758075B
:1004D00080E0680780E07807BCF5403885E258077F
:1004E00080E0680780E0780709F4A4C0413885E21D
:1004F000580780E0680780E078079CF4403B84E080
:10050000580780E0680780E0780709F452C0403C53
:1005100082E1580780E0680780E0780709F08AC028
:100520004FC0403488E3580780E0680780E07807D0
:1005300009F44EC040308BE4580780E0680780E043
:10054000780709F077C046C0403081EE580780E058
:10055000680780E0780709F455C0413081EE5807FC
:1005600080E0680780E0780794F4403086E9580717
:1005700080E0680780E07807B9F1403C8AED5807D1
:1005800080E0680780E0780709F054C035C040304B
:1005900082EC580781E0680780E07807D9F14030A5
:1005A00084E8580783E0680780E0780709F042C0D4
:1005B00039C088E1848383E0858386838DEC41C0E4
:1005C00088E1848383E085838DEF86838CED39C059
:1005D00088E103C08CE12FC08CE1848383E08583B4
:1005E0008EE9868388EC2DC08CE1848383E085834B
:1005F00085EE86838CEB25C08CE1848383E0858344
:100600008EEC05C08CE1848383E085838EE886834D
:1006100088EB17C08CE1848383E085838EE6868334
:1006200088EA0FC08CE1848383E085838EE2868331
:1006300088E907C088E1848383E0858385EF86832A
:100640008CEC87830895609143207091442000C012
:100650000F931F93CF93DF938C01EB018B8181FF6D
:100660001BC082FF0DC02E813F818C819D81281788
:10067000390764F4E881F9810193E883F98306C0BE
:10068000E885F985802F0995009731F48E819F8147
:1006900001968E839F8302C00FEF1FEFC801DF9189
:0C06A000CF911F910F910895F894FFCFA7
:1006AC000000000200000000170200000000000023
:0C06BC000002000000001002000000001E
:00000001FF
