:100000002CC100004CC100004AC1000048C10000E2
:1000100046C1000044C1000042C1000040C10000D0
:100020003EC100003CC100003AC1000038C10000E0
:1000300036C1000034C1000032C1000030C10000F0
:100040002EC100002CC100002AC1000028C1000000
:1000500026C1000024C1000022C1000020C1000010
:100060001EC100005BC200001AC1000018C10000E0
:10007000A4C2000014C1000012C1000010C10000A1
:100080000EC100000CC100000AC1000008C1000040
:1000900006C1000004C1000002C1000000C1000050
:1000A000FEC00000FCC00000FAC00000F8C0000064
:1000B000F6C00000F4C00000F2C00000F0C0000074
:1000C000EEC00000ECC00000EAC00000E8C0000084
:1000D000E6C00000E4C00000E2C00000E0C0000094
:1000E000DEC00000DCC0000055C30000D8C0000026
:1000F000D6C000009EC30000D2C00000D0C00000E7
:10010000CEC00000CCC00000CAC00000C8C00000C3
:10011000C6C00000C4C00000C2C00000F0C00000A3
:10012000FDC000000AC1000017C10000B8C00000F7
:10013000B6C00000B4C00000B2C00000B0C00000F3
:10014000AEC00000ACC00000AAC00000A8C0000003
:10015000A6C00000A4C00000A2C00000A0C0000013
:100160007BC200009CC000009AC00000C4C2000016
:1001700096C0000094C0000092C0000090C0000033
:100180008EC000008CC000008AC0000088C0000043
:1001900086C0000084C0000082C0000080C0000053
:1001A0007EC000007CC000007AC0000078C0000063
:1001B00076C0000074C0000072C0000070C0000073
:1001C0006EC000006CC000006AC0000068C0000083
:1001D00066C0000064C0000062C0000079C3000077
:1001E0005EC000005CC00000C2C3000058C0000038
:1001F00056C000004F7574206F66207468652042F9
:100200006F783A0D456C656374726F6E6963732025
:10021000616E6420526F626F746963730D50726512
:1002200073656E7473207468650D457069706861DC
:100230006E79204449590D536F6674776172652059
:1002400056657273696F6E2025730D2573006364A4
:10025000696E6F70737578585B0011241FBECFEF05
:10026000DFE2DEBFCDBF18BE19BE1ABE1BBE10E254
:10027000A0E0B0E2EEE1F8E100E00BBF02C00790C1
:100280000D92AE31B107D9F712E2AEE1B0E201C092
:100290001D92A436B107E1F789D00C940D0CB0CEB5
:1002A000A0E0B2E08C9181608C93E0E4F2E0808188
:1002B0008160808383E112968C931297828383E01E
:1002C00014968C93149784830895E0E0FBE080E01B
:1002D00094E086A397A381E0808383EF818310A6B7
:1002E00011A612A613A614A615A616A617A608955B
:1002F000E0E0F4E081E080831086118608951F928B
:100300000F920FB60F9208B60F92112418BE0F90DD
:1003100008BE0F900FBE0F901F9018951F920F925E
:100320000FB60F9208B60F92112418BE0F9008BE98
:100330000F900FBE0F901F9018951F920F920FB63F
:100340000F9208B60F92112418BE0F9008BE0F909E
:100350000FBE0F901F9018951F920F920FB60F921D
:1003600008B60F92112418BE0F9008BE0F900FBE52
:100370000F901F9018958FE0E0EAF6E081838FEFF1
:10038000E0E2F7E0818382E0E0EEF7E081838091B4
:1003900050008260809350008091510081FFFCCF1B
:1003A00088ED84BF81E0809340008FCFCF92DF92B1
:1003B000EF92FF920F931F93DF93CF930F92CDB7DE
:1003C000DEB7D9DF95DF82E0E0EEF7E0868380EAF2
:1003D00098E040E051EE60E070E0FDD261DF78949B
:1003E0008DB79EB708978DBF9EBFEDB7FEB731960C
:1003F00000E110E2ADB7BEB711960D931C931297B2
:1004000084EF91E08283938380E090E284839583FC
:1004100084E090E28683978306D400935E22109353
:100420005F2200936022109361228DB79EB70896D9
:100430008DBF9EBF68010DE010E27E010894E11CB3
:10044000F11C5ED08823E9F300D000D000D0EDB7D6
:10045000FEB73196ADB7BEB71196CC9211971296F2
:10046000DC9202831383E482F58226D48DB79EB793
:1004700006968DBF9EBF8981992787FD9095B6010D
:10048000EFD3DFCF9091A10895FFFCCF8093A00818
:100490000895E091FC20F091FD202091F82030910A
:1004A000F9208081E217F30749F42091F62030917A
:1004B000F7202093FC203093FD2005C03196E09377
:1004C000FC20F093FD2090E00895E091FA20F09157
:1004D000FB202091F8203091F920E217F30751F426
:1004E00080838091F6209091F7208093FA2090935A
:1004F000FB2008958193E093FA20F093FB20089568
:1005000081E04091FA205091FB202091FC20309115
:10051000FD204217530709F480E008951F920F92BF
:100520000FB60F9208B60F9209B60F920BB60F9244
:10053000112418BE19BE1BBE2F933F934F935F9398
:100540006F937F938F939F93AF93BF93EF93FF939B
:100550008091A008BADFFF91EF91BF91AF919F9179
:100560008F917F916F915F914F913F912F910F905C
:100570000BBE0F9009BE0F9008BE0F900FBE0F90DC
:100580001F901895E0912220F091232020912020A7
:1005900030912120E217F30751F4808380911E20CF
:1005A00090911F208093222090932320089581937F
:1005B000E0932220F093232008951F920F920FB60C
:1005C0000F9208B60F9209B60F920BB60F92112434
:1005D00018BE19BE1BBE2F933F934F935F936F932B
:1005E0007F938F939F93AF93BF93EF93FF938091EC
:1005F000B008C8DFFF91EF91BF91AF919F918F91AC
:100600007F916F915F914F913F912F910F900BBE12
:100610000F9009BE0F9008BE0F900FBE0F901F9055
:100620001895E0916A20F0916B202091682030911C
:100630006920E217F30751F480838091662090913E
:10064000672080936A2090936B2008958193E093B4
:100650006A20F0936B2008951F920F920FB60F92AD
:1006600008B60F9209B60F920BB60F92112418BE5E
:1006700019BE1BBE2F933F934F935F936F937F934E
:100680008F939F93AF93BF93EF93FF938091A009B4
:10069000C8DFFF91EF91BF91AF919F918F917F91B3
:1006A0006F915F914F913F912F910F900BBE0F90E3
:1006B00009BE0F9008BE0F900FBE0F901F901895A7
:1006C000E091B220F091B3202091B0203091B12080
:1006D000E217F30751F480838091AE209091AF2010
:1006E0008093B2209093B32008958193E093B22039
:1006F000F093B32008951F920F920FB60F9208B691
:100700000F9209B60F920BB60F92112418BE19BEA4
:100710001BBE2F933F934F935F936F937F938F9362
:100720009F93AF93BF93EF93FF938091B009C8DF7E
:10073000FF91EF91BF91AF919F918F917F916F91B9
:100740005F914F913F912F910F900BBE0F9009BE7B
:100750000F9008BE0F900FBE0F901F901895E0915C
:100760008A21F0918B212091882130918921E217F3
:10077000F30751F4808380918621909187218093A3
:100780008A2190938B2108958193E0938A21F0939D
:100790008B2108951F920F920FB60F9208B60F92F9
:1007A00009B60F920BB60F92112418BE19BE1BBECC
:1007B0002F933F934F935F936F937F938F939F9369
:1007C000AF93BF93EF93FF938091A00AC8DFFF918F
:1007D000EF91BF91AF919F918F917F916F915F91B9
:1007E0004F913F912F910F900BBE0F9009BE0F902C
:1007F00008BE0F900FBE0F901F901895E0914221F8
:10080000F09143212091402130914121E217F307DB
:1008100051F4808380913E2190913F218093422129
:100820009093432108958193E0934221F0934321D3
:1008300008951F920F920FB60F9208B60F9209B645
:100840000F920BB60F92112418BE19BE1BBE2F9328
:100850003F934F935F936F937F938F939F93AF9348
:10086000BF93EF93FF938091B00AC8DFFF91EF91A0
:10087000BF91AF919F918F917F916F915F914F91B8
:100880003F912F910F900BBE0F9009BE0F9008BEA5
:100890000F900FBE0F901F901895E0911A22F091C3
:1008A0001B222091182230911922E217F30751F4EC
:1008B0008083809116229091172280931A22909320
:1008C0001B2208958193E0931A22F0931B2208952E
:1008D0001F920F920FB60F9208B60F9209B60F92A1
:1008E0000BB60F92112418BE19BE1BBE2F933F9357
:1008F0004F935F936F937F938F939F93AF93BF9328
:10090000EF93FF938091A00BC8DFFF91EF91BF9110
:10091000AF919F918F917F916F915F914F913F9197
:100920002F910F900BBE0F9009BE0F9008BE0F9035
:100930000FBE0F901F901895E091D221F091D32116
:100940002091D0213091D121E217F30751F4808317
:100950008091CE219091CF218093D2219093D32169
:1009600008958193E093D221F093D32108951F92AB
:100970000F920FB60F9208B60F9209B60F920BB6F0
:100980000F92112418BE19BE1BBE2F933F934F9395
:100990005F936F937F938F939F93AF93BF93EF93E7
:1009A000FF938091B00BC8DFFF91EF91BF91AF91A2
:1009B0009F918F917F916F915F914F913F912F9177
:1009C0000F900BBE0F9009BE0F9008BE0F900FBE88
:1009D0000F901F901895FC018091A2008260A0EA00
:1009E000B0E012968C93129788E0E03AF807E9F4A9
:1009F00088E0A0E4B6E011968C938DE391E28093B9
:100A0000F8209093F920A6EFB0E2CD0108968093EC
:100A1000F6209093F72014968D939C931597169635
:100A20008D939C931797000034C088E0E03BF80753
:100A300021F480E8A0E4B6E029C089E0E03AF807B4
:100A400011F488E005C089E0E03BF80721F480E874
:100A5000A0E6B6E01BC08AE0E03AF80711F488E0AF
:100A600005C08AE0E03BF80721F480E8A0E8B6E0A2
:100A70000DC08BE0E03AF80711F488E005C08BE088
:100A8000E03BF80731F480E8A0EAB6E011968C93D9
:100A90001197838180628383403880E7580780E024
:100AA000680780E0780709F487C0413880E7580775
:100AB00080E0680780E07807BCF5403885E2580799
:100AC00080E0680780E0780709F4A4C0413885E237
:100AD000580780E0680780E078079CF4403B84E09A
:100AE000580780E0680780E0780709F452C0403C6E
:100AF00082E1580780E0680780E0780709F08AC043
:100B00004FC0403488E3580780E0680780E07807EA
:100B100009F44EC040308BE4580780E0680780E05D
:100B2000780709F077C046C0403081EE580780E072
:100B3000680780E0780709F455C0413081EE580716
:100B400080E0680780E0780794F4403086E9580731
:100B500080E0680780E07807B9F1403C8AED5807EB
:100B600080E0680780E0780709F054C035C0403065
:100B700082EC580781E0680780E07807D9F14030BF
:100B800084E8580783E0680780E0780709F042C0EE
:100B900039C088E1848383E0858386838DEC41C0FE
:100BA00088E1848383E085838DEF86838CED39C073
:100BB00088E103C08CE12FC08CE1848383E08583CE
:100BC0008EE9868388EC2DC08CE1848383E0858365
:100BD00085EE86838CEB25C08CE1848383E085835E
:100BE0008EEC05C08CE1848383E085838EE8868368
:100BF00088EB17C08CE1848383E085838EE686834F
:100C000088EA0FC08CE1848383E085838EE286834B
:100C100088E907C088E1848383E0858385EF868344
:100C20008CEC878308950F931F93DF93CF93CDB7F9
:100C3000DEB70F8118859E01255F3F4FF801838144
:100C400088608383C80169857A85A90145D0F80148
:100C50002381277F2383CF91DF911F910F910895E7
:100C60000F931F93CF93DF938C01EB018B8181FF57
:100C70001BC082FF0DC02E813F818C819D81281772
:100C8000390764F4E881F9810193E883F98306C0A8
:100C9000E885F985802F0995009731F48E819F8131
:100CA00001968E839F8302C00FEF1FEFC801DF9173
:100CB000CF911F910F910895DF93CF93CDB7DEB7FA
:100CC0009E01275F3F4F8D819E816F817885A901AD
:100CD000A4D3CF91DF9108952F923F924F925F92CC
:100CE0006F927F928F929F92AF92BF92CF92DF923C
:100CF000EF92FF920F931F93DF93CF93CDB7DEB7A1
:100D00002C97CDBFDEBF6C011B018A01FC0116824E
:100D10001782838181FFC4C12E010894411C511C9C
:100D2000F6019381F10193FD859193FF81911F015C
:100D3000882309F4B1C1853239F493FD859193FF7D
:100D400081911F01853221F490E0B60189DFE8CF5F
:100D5000EE24FF2420E02032B0F48B3269F08C3294
:100D600028F4803251F0833271F40BC08D3239F0A7
:100D7000803349F421602CC02260246029C028609F
:100D800027C0206125C027FD2CC0382F30533A30B2
:100D900098F426FF08C08E2D880FE82EEE0CEE0C7E
:100DA000E80EE30E15C08F2D880FF82EFF0CFF0CF8
:100DB000F80EF30E20620CC08E3221F426FD6CC1B9
:100DC000206406C08C3611F4206802C0883649F4CD
:100DD000F10193FD859193FF81911F01882309F013
:100DE000BACF982F9554933018F09052933028F43E
:100DF0000C5F1F4FFFE3F9830DC0833631F083375B
:100E000071F0833509F05CC021C0F80180818983CD
:100E10000E5F1F4F420171E0A72EB12C15C062E09A
:100E2000662E712C600E711EF8018080918026FF65
:100E300003C06E2D70E002C06FEF7FEFC4012C87FE
:100E400023D45C0183012C852F7716C052E0652ED8
:100E5000712C600E711EF8018080918026FF03C006
:100E60006E2D70E002C06FEF7FEFC4012C8701D4BC
:100E70005C012C852068830123FD1EC007C080E231
:100E800090E0B6012C87ECDEFA942C858F2D90E053
:100E9000A816B906A0F310C0F40127FD859127FF1D
:100EA00081914F0190E0B6012C87DADE2C85F1109C
:100EB000FA940894A108B108A114B10469F7E9C033
:100EC000843611F0893641F527FF08C0F8016081AA
:100ED0007181828193810C5F1F4F09C0F80160818D
:100EE0007181882777FD8095982F0E5F1F4F4FE601
:100EF000B42EB22297FF09C09095809570956195A8
:100F00007F4F8F4F9F4FF0E8BF2AA2012AE030E0C9
:100F100023D4782E741844C0853731F43FEEB32EB5
:100F2000B2222AE030E025C099EFB92EB2228F36E6
:100F3000C1F0803720F4883509F0AEC00DC080378D
:100F400021F0883709F0A8C002C020E1B22AB4FE1F
:100F50000BC084E0B82A08C0B4FE09C0E6E0BE2A8F
:100F600006C028E030E005C020E130E002C020E10A
:100F700032E0B7FE08C0F8016081718182819381FF
:100F80000C5F1F4F07C0F8016081718180E090E025
:100F90000E5F1F4FA201E0D3782E7418FFE7BF2227
:100FA000B6FE0BC02EEFB2227E1438F4B4FE07C09A
:100FB000B2FC05C08FEEB82202C0A72C01C0AE2C37
:100FC0008B2D90E0B4FE0DC0FE01E70DF11D2081D8
:100FD000203319F4E9EEBE2209C0A394B2FE06C084
:100FE00004C086789070009709F0A3948B2C992404
:100FF000B3FC13C0B0FE0EC0AF1428F4E72CEF0C06
:10100000EA18AF2C07C0E72C05C080E290E0B601DB
:1010100027DEA394AF14C8F304C0AF1410F4FA1879
:1010200001C0FF2484FE0EC080E390E0B60118DE0C
:1010300082FE1DC081FE03C088E590E010C088E7F5
:1010400090E00DC0C40186789070009781F081FC1B
:1010500002C080E201C08BE2B7FC8DE290E0B601F5
:10106000FFDD05C080E390E0B601FADDEA947E146E
:10107000C8F37A94F201E70DF11D808190E0B6018A
:10108000EFDD7720B1F705C080E290E0B601E8DD42
:10109000FA94FF20C9F744CEF6012681378102C0B9
:1010A0002FEF3FEFC9012C96CDBFDEBFCF91DF916F
:1010B0001F910F91FF90EF90DF90CF90BF90AF9076
:1010C0009F908F907F906F905F904F903F902F9068
:1010D000089520FD09C0FC0123FD05C022FF02C0C8
:1010E00073836283518340830895EF92FF920F933D
:1010F0001F9344FD10C046FD10C0DB01FC01AA0F88
:10110000BB1FEE1FFF1F1094D1F76A0F7B1F8E1FAE
:101110009F1F31E003C033E001C034E0660F771F4A
:10112000881F991F3150D1F77B018C01E20EF11C11
:10113000011D111DA8019701B701CA011F910F914F
:10114000FF90EF900895EF92FF920F931F93CF932C
:10115000DF938C01C801A3D2EC0197FD06C076D2C3
:101160000097C1F7CE01B801DCD2CE01DF91CF915B
:101170001F910F91FF90EF9008958F929F92AF92E1
:10118000BF92DF92EF92FF920F931F93DF93CF9363
:101190000F92CDB7DEB74C01D62E5A01122F7FD257
:1011A0008B3219F08D3241F41068DA9409F465C07D
:1011B000C40175D297FD61C0312F3D7F232F20736D
:1011C000E1F48033D1F4DA9409F443C0C4013983E3
:1011D00066D2398197FD3DC03260883711F088357D
:1011E00051F43064DA94A9F1C401398358D23981B9
:1011F00097FF03C02EC036FF3061EE24FF24870125
:10120000282F2053283088F034FD09C02A3068F098
:1012100036FF05C02F7D422F4151463028F0B401E2
:1012200039837FD2398112C02750C801B701432FBB
:1012300039835BDF7B018C0139813260DA9461F0A4
:10124000C40139832CD2398197FFDACF31FD04C034
:1012500014C0EE24FF24870137FF08C010950095C5
:10126000F094E094E11CF11C011D111DC501B801B1
:10127000A701232F2EDF81E001C080E00F90CF91E6
:10128000DF911F910F91FF90EF90DF90BF90AF9093
:101290009F908F9008956F927F928F929F92AF92BE
:1012A000BF92CF92DF92EF92FF920F931F93DF9343
:1012B000CF93CDB7DEB7A197CDBFDEBF6C018A015A
:1012C00079019E012F5F3F4F80E2F90111928A95CB
:1012D000E9F7F601838080E090E0BB24992470E078
:1012E000A1E0B0E0F70183FCA59083FEA1907F010F
:1012F000AA2009F47DC0FA2DFE3511F4009751F1B2
:10130000472F50E04817590744F44A2D4D3551F105
:101310004D3219F4992001F103C0992009F4BA2C37
:101320004A2D469546954695F901E40FF11D4A2D43
:1013300047703D0102C0660C771C4A95E2F7908029
:1013400096289082AB1459F0AB1410F4A394E8CF14
:10135000AA94E6CF71E004C09924939401C0992423
:101360000196C0CF992019F08E8180628E837723F9
:1013700051F0CE018196FE01319620812095219376
:10138000E817F907D1F7BB24B3944E010894811CE8
:10139000911C01C0BB24C60169A381D169A197FD3D
:1013A0001FC0282F269526952695F401E20FF11DE2
:1013B000208130E0AC014770507002C03595279510
:1013C0004A95E2F720FD03C0B601ABD109C0011573
:1013D000110519F0F80181938F016150D9F602C00F
:1013E000BB2031F40115110529F0F801108202C06B
:1013F000EE24FF24C701A196CDBFDEBFCF91DF91C0
:101400001F910F91FF90EF90DF90CF90BF90AF9022
:101410009F908F907F906F9008954F925F926F9200
:101420007F929F92AF92BF92CF92DF92EF92FF9204
:101430000F931F93DF93CF930F92CDB7DEB77C014D
:101440006B013A01FC011682178200E0DBC0812F9C
:1014500090E0FCD0009719F0C70175DED3C01532BB
:1014600041F4F601A3FC3591A3FE31916F013532B1
:1014700051F4C70114D197FDD1C0181709F4C2C0A7
:10148000B7014FD1CDC03A3239F4A3FC3591A3FE58
:1014900031916F0111E001C010E099240EC012607B
:1014A000692D70E080E090E040E21FDE962EF601AC
:1014B000A3FC3591A3FE31916F01232F20532A30D5
:1014C00070F311FF03C0992019F4AAC099249A94CB
:1014D000383619F03C3689F409C0F601A3FC359181
:1014E000A3FE31916F01383641F418601460F601A3
:1014F000A3FC3591A3FE31916F01332309F490C011
:101500008EE492E0632F70E03983A8D03981009790
:1015100009F486C0812F10FD08C0F301408051807E
:1015200042E050E0640E751E02C0442455243E364D
:1015300049F4F7014681578160E070E0C201212F34
:10154000C8DD60C0333689F481FD02C099249394CC
:10155000C701A5D097FD62C04114510419F0F201F2
:1015600081932F019A94A1F74BC03B3551F4C701E9
:10157000692DA20196018FDE6C01009709F040C031
:101580003AC0C7013983DFDD398197FD47C03F3657
:1015900041F1303728F4343611F1393621F524C0C1
:1015A000333719F03537F9F41AC0C70178D05C0128
:1015B00097FD0FC04BD0009721F0C501B701B1D006
:1015C00008C04114510419F0F201A1922F019A941C
:1015D00061F741145104A1F0F201108211C01062B0
:1015E00003C0106101C01064C701692DA201212F41
:1015F000C4DD882329F4F7018381807379F410C056
:1016000010FF0F5FF701A380F601A3FC1591A3FE65
:1016100011916F01112309F01ACF02C0002311F0BC
:1016200010E002C00FEF1FEFC8010F90CF91DF91C4
:101630001F910F91FF90EF90DF90CF90BF90AF90F0
:101640009F907F906F905F904F9008959111E2C0AE
:10165000803219F089508550D0F70895FC0105902B
:10166000061621F00020D9F7C00108953197CF0167
:101670000895FC010590615070400110D8F78095E5
:1016800090958E0F9F1F0895FC016150704001904E
:101690000110D8F7809590958E0F9F1F0895CF93D6
:1016A000DF93EC013B8130FF36C036FF09C03F7B42
:1016B0003B838E819F8101968E839F832A8129C0DF
:1016C00032FF0FC0E881F9818081992787FD9095CD
:1016D000009719F430623B831EC03196E883F9838A
:1016E00011C0EA85FB85CE01099597FF0BC02B81C0
:1016F0003FEF8F3F930711F480E101C080E2822B1E
:101700008B8309C02E813F812F5F3F4F2E833F8304
:10171000282F30E002C02FEF3FEFC901DF91CF91BA
:101720000895FB01238120FF13C026FD11C03FEF68
:101730008F3F930769F0828320642F7D2383268166
:1017400037812150304026833783282F30E002C074
:101750002FEF3FEFC9010895FA01AA27283051F170
:10176000203181F1E8946F936E7F6E5F7F4F8F4FD2
:101770009F4FAF4FB1E03ED0B4E03CD0670F781F31
:10178000891F9A1FA11D680F791F8A1F911DA11D16
:101790006A0F711D811D911DA11D20D009F468944F
:1017A0003F912AE0269F11243019305D3193DEF6F7
:1017B000CF010895462F4770405D4193B3E00FD0AD
:1017C000C9F7F6CF462F4F70405D4A3318F0495D98
:1017D00031FD4052419302D0A9F7EACFB4E0A6957B
:1017E0009795879577956795BA95C9F7009761059D
:1017F000710508959B01AC010A2E069457954795F3
:1018000037952795BA95C9F7620F731F841F951FE7
:0E181000A01D0895992788270895F894FFCF0A
:10181E00312E33004E6F7620323031310025630089
:0E182E0000000003000000004202490200001A
:00000001FF
