:1000000034C1000054C1000052C1000050C10000C2
:100010004EC100004CC100004AC1000048C10000B0
:1000200046C1000044C1000042C1000040C10000C0
:100030003EC100003CC100003AC1000038C10000D0
:1000400036C1000034C1000032C1000030C10000E0
:100050002EC100002CC100002AC1000028C10000F0
:1000600026C1000075C4000022C1000020C10000AC
:10007000BEC400001CC100001AC1000018C100006D
:1000800016C1000014C1000012C1000010C1000020
:100090000EC100000CC100000AC1000008C1000030
:1000A00006C1000004C1000002C1000000C1000040
:1000B000FEC00000FCC00000FAC00000F8C0000054
:1000C000F6C00000F4C00000F2C00000F0C0000064
:1000D000EEC00000ECC00000EAC00000E8C0000074
:1000E000E6C00000E4C000009CC20000E0C00000C8
:1000F000DEC0000069C50000DAC00000D8C0000002
:10010000D6C00000D4C00000D2C00000D0C00000A3
:10011000CEC00000CCC00000CAC00000F0C2000089
:10012000FDC200000AC3000017C30000C0C00000E9
:10013000BEC00000BCC00000BAC00000B8C00000D3
:10014000B6C00000B4C00000B2C00000B0C00000E3
:10015000AEC00000ACC00000AAC00000A8C00000F3
:1001600095C40000A4C00000A2C00000DEC40000CE
:100170009EC000009CC000009AC0000098C0000013
:1001800096C0000094C0000092C0000090C0000023
:100190008EC000008CC000008AC0000088C0000033
:1001A00086C0000084C0000082C0000080C0000043
:1001B0007EC000007CC000007AC0000078C0000053
:1001C00076C0000074C0000072C0000070C0000063
:1001D0006EC000006CC000006AC0000044C5000092
:1001E00066C0000064C000008DC5000060C0000053
:1001F0005EC000004F7574206F66207468652042F1
:100200006F783A0D456C656374726F6E6963732025
:10021000616E6420526F626F746963730D50726512
:1002200073656E7473207468650D457069706861DC
:100230006E79204449590D536F6674776172652059
:1002400056657273696F6E2025730D2573004F75A7
:1002500074206F662074686520426F780A45706963
:100260007068616E79204449590011241FBECFEF98
:10027000DFE2DEBFCDBF18BE19BE1ABE1BBE10E244
:10028000A0E0B0E2E6EEF6E100E00BBF02C00790AE
:100290000D92A834B107D9F712E2A8E4B0E201C088
:1002A0001D92A93AB107E1F781D20C94710BA8CE47
:1002B00067FF2BC06F70813071F0813040F0823069
:1002C00091F0660F660F660F8330D1F414C0660F8D
:1002D000660F660F15C0660F660F660FE0E0F2E06E
:1002E00061A780E829C0660F660F660FE0E0F2E0C4
:1002F00061AB80E82AC0E0E0F2E061AF80E82BC0AB
:10030000E0E0F2E061A380E82CC0813071F0813040
:1003100040F0823099F0660F660F660F8330E9F483
:1003200016C0660F660F660F18C0660F660F660F61
:10033000E0E0F2E061A781E880A70895660F660F0C
:10034000660FE0E0F2E061AB81E880AB0895E0E0A9
:10035000F2E061AF81E880AF0895E0E0F2E061A3F0
:1003600081E880A308958130E9F0813050F0823037
:1003700051F1833009F045C037C08F5F853011F4EB
:1003800040C080E09091230290FFF7CF81E08093FE
:100390002302209110023091110235C08F5F853009
:1003A00011F42FC080E090912B0290FFF7CF81E0F5
:1003B00080932B02209112023091130224C08F5F90
:1003C000853011F41EC080E09091330290FFF7CF8A
:1003D00081E080933302209114023091150213C002
:1003E0008F5F853011F40DC080E090913B0290FF4B
:1003F000F7CF81E080933B022091160230911702E3
:1004000002C02FEF3FEFC9010895A0E0B2E08C9148
:1004100081608C93E0E4F2E080818160808383E1FD
:1004200012968C931297828383E014968C93149780
:100430008483089591E0E0E0F7E0958390E29A9557
:10044000F1F7882321F08091080787FDFCCF81E038
:10045000E0E0F7E0868380E28A95F1F708951F9344
:10046000CF93DF93C0E0D7E010EF1A831E8384E0C0
:100470008E8382E08D838AE08A95F1F700C081E067
:10048000D9DF80E0D7DF1983DF91CF911F910895E5
:10049000E0E0F7E092E09683662319F094E095831C
:1004A00002C094E09683E0E0F7E090EF9683807FCF
:1004B000858380E0BFCF1F93182FD1DF812F61E0AC
:1004C000E7DF812F8295807F61E0E2DF1F91089551
:1004D0001F93182F60E0DCDF812F8295807F60E022
:1004E000D7DF1F9108951F93182F809148208823EC
:1004F00061F01D3061F0B3DF81E0EADFB0DF82E060
:10050000E7DFADDF1092482012C01D3021F481E0FA
:100510008093482012C080914920882341F01A30EE
:1005200041F09DDF80ECD4DF1092492006C01A30E4
:1005300021F481E08093492003C091DF812FBBDF4C
:1005400080E090E01F910895E0E0F7E096E0958369
:1005500087EF818380E1848B858B868B878B2FEF60
:1005600039EF40E0215030404040E1F700C000004A
:1005700096838FEF91EEA4E081509040A040E1F788
:1005800000C0000080E360E083DFAFE3BCE91197C7
:10059000F1F700C0000080E360E07ADF8FE396E0CF
:1005A0000197F1F700C0000080E360E071DF80E2B6
:1005B00060E06EDF54DF88E28BDF51DF8CE088DFA4
:1005C0004EDF81E085DF4BDF86E082CFE0E0FBE0BD
:1005D00080E094E086A397A381E0808383EF81830A
:1005E00010A611A612A613A614A615A616A617A63F
:1005F000089580EA9AE040E051EE60E070E0B6D302
:1006000082E0E0EAF0E08283789480E090E02AE5FE
:10061000FC01E65BFF4D2083019688319105C1F70F
:1006200008951F920F920FB60F9208B60F9209B657
:100630000F920AB60F920BB60F92112418BE19BE74
:100640001ABE1BBE2F933F934F935F936F937F937D
:100650008F939F93AF93BF93CF93DF93EF93FF93CA
:10066000F894C091A522D091A6228AE390E28093CB
:10067000A5229093A6228091A00A823739F4809116
:10068000612090E08CD51092622012C08E3661F409
:1006900090916220E92FF0E0E65BFF4D80819F5F43
:1006A0009093622090E003C0992787FD909577D5BD
:1006B000C093A522D093A6227894FF91EF91DF9169
:1006C000CF91BF91AF919F918F917F916F915F91EA
:1006D0004F913F912F910F900BBE0F900ABE0F903C
:1006E00009BE0F9008BE0F900FBE0F901F90189577
:1006F000E0E0F4E081E080831086118608951F9287
:100700000F920FB60F9208B60F92112418BE0F90D9
:1007100008BE0F900FBE0F901F9018951F920F925A
:100720000FB60F9208B60F92112418BE0F9008BE94
:100730000F900FBE0F901F9018951F920F920FB63B
:100740000F9208B60F92112418BE0F9008BE0F909A
:100750000FBE0F901F9018951F920F920FB60F9219
:1007600008B60F92112418BE0F9008BE0F900FBE4E
:100770000F901F9018958FE0E0EAF6E081838FEFED
:10078000E0E2F7E0818382E0E0EEF7E081838091B0
:1007900050008260809350008091510081FFFCCF17
:1007A00088ED84BF81E08093400010CFCF92DF922C
:1007B000FF920F931F93CF93DF93DDDF99DF82E0EA
:1007C000E0EEF7E0868315DF80EA98E040E051EE46
:1007D00060E070E0CBD280EB9AE040E855E260E068
:1007E00070E0C4D212DEB0DE789400D000D08EE18A
:1007F00090E2ADB7BEB711968D939C9312978EE49D
:1008000092E013968D939C93149786D400D000D0D9
:10081000EDB7FEB73196CCE2D0E2ADB7BEB71196D8
:10082000CD93DC93129784EF91E08283938380E0F1
:1008300090E28483958384E090E2868397836CD4EE
:10084000EDB7FEB73896EDBFFEBFFF248E01CDE0B9
:10085000D0E226C080E06F2D2BDD8091230280FF47
:10086000FCCF80E080DD2DB73EB7285030402DBF53
:100870003EBFEDB7FEB73196ADB7BEB711960C933C
:10088000119712961C93C283D383F48215828683B8
:10089000978332D4F394EDB7FEB73896EDBFFEBF21
:1008A000FF2DF830B8F28AE190E26CE270E251D4A8
:1008B0008FEF97E8A3E181509040A040E1F700C09E
:1008C0000000FF24C7CF9091A10A95FFFCCF809331
:1008D000A00A08959091A10895FFFCCF8093A008ED
:1008E0000895E0914121F091422120913D213091E4
:1008F0003E218081E217F30749F420913B2130919A
:100900003C21209341213093422105C03196E09350
:100910004121F093422190E00895E0913F21F09130
:10092000402120913D2130913E21E217F30751F4FF
:10093000808380913B2190913C2180933F21909333
:10094000402108958193E0933F21F0934021089541
:100950001F920F920FB60F9208B60F9209B60F9220
:100960000BB60F92112418BE19BE1BBE2F933F93D6
:100970004F935F936F937F938F939F93AF93BF93A7
:10098000EF93FF938091A008C8DFFF91EF91BF9193
:10099000AF919F918F917F916F915F914F913F9117
:1009A0002F910F900BBE0F9009BE0F9008BE0F90B5
:1009B0000FBE0F901F901895E0916720F09168206E
:1009C0002091652030916620E217F30751F480836F
:1009D0008091632090916420809367209093682099
:1009E00008958193E0936720F093682008951F9203
:1009F0000F920FB60F9208B60F9209B60F920BB670
:100A00000F92112418BE19BE1BBE2F933F934F9314
:100A10005F936F937F938F939F93AF93BF93EF9366
:100A2000FF938091B008C8DFFF91EF91BF91AF9124
:100A30009F918F917F916F915F914F913F912F91F6
:100A40000F900BBE0F9009BE0F9008BE0F900FBE07
:100A50000F901F901895E091AF20F091B020209159
:100A6000AD203091AE20E217F30751F480838091DE
:100A7000AB209091AC208093AF209093B02008954C
:100A80008193E093AF20F093B02008951F920F92CE
:100A90000FB60F9208B60F9209B60F920BB60F92CF
:100AA000112418BE19BE1BBE2F933F934F935F9323
:100AB0006F937F938F939F93AF93BF93EF93FF9326
:100AC0008091A009C8DFFF91EF91BF91AF919F91F5
:100AD0008F917F916F915F914F913F912F910F90E7
:100AE0000BBE0F9009BE0F9008BE0F900FBE0F9067
:100AF0001F901895E091F720F091F8202091F520B3
:100B00003091F620E217F30751F480838091F320AF
:100B10009091F4208093F7209093F820089581938A
:100B2000E093F720F093F82008951F920F920FB6EC
:100B30000F9208B60F9209B60F920BB60F921124BE
:100B400018BE19BE1BBE2F933F934F935F936F93B5
:100B50007F938F939F93AF93BF93EF93FF93809176
:100B6000B009C8DFFF91EF91BF91AF919F918F9135
:100B70007F916F915F914F913F912F910F900BBE9D
:100B80000F9009BE0F9008BE0F900FBE0F901F90E0
:100B90001895E0918721F09188212091852130914D
:100BA0008621E217F30751F480838091832190918D
:100BB0008421809387219093882108958193E093E5
:100BC0008721F093882108951F920F920FB60F92FC
:100BD00008B60F9209B60F920BB60F92112418BEE9
:100BE00019BE1BBE2F933F934F935F936F937F93D9
:100BF0008F939F93AF93BF93EF93FF938091B00A2E
:100C0000C8DFFF91EF91BF91AF919F918F917F913D
:100C10006F915F914F913F912F910F900BBE0F906D
:100C200009BE0F9008BE0F900FBE0F901F90189531
:100C3000E0915F22F091602220915D2230915E224E
:100C4000E217F30751F4808380915B2290915C223C
:100C500080935F229093602208958193E0935F22B6
:100C6000F093602208951F920F920FB60F9208B66C
:100C70000F9209B60F920BB60F92112418BE19BE2F
:100C80001BBE2F933F934F935F936F937F938F93ED
:100C90009F93AF93BF93EF93FF938091A00BC8DF17
:100CA000FF91EF91BF91AF919F918F917F916F9144
:100CB0005F914F913F912F910F900BBE0F9009BE06
:100CC0000F9008BE0F900FBE0F901F901895E091E7
:100CD0001722F09118222091152230911622E21746
:100CE000F30751F480838091132290911422809312
:100CF00017229093182208958193E0931722F0937E
:100D0000182208951F920F920FB60F9208B60F92F5
:100D100009B60F920BB60F92112418BE19BE1BBE56
:100D20002F933F934F935F936F937F938F939F93F3
:100D3000AF93BF93EF93FF938091B00BC8DFFF9108
:100D4000EF91BF91AF919F918F917F916F915F9143
:100D50004F913F912F910F900BBE0F9009BE0F90B6
:100D600008BE0F900FBE0F901F901895FC01809148
:100D7000A2008260A0EAB0E012968C93129788E0FD
:100D8000E03AF807E9F488E0A0E4B6E011968C9325
:100D900082E891E280933D2190933E21ABE3B1E262
:100DA000CD01089680933B2190933C2114968D931E
:100DB0009C93159716968D939C9317970000D2C01D
:100DC00088E0E03BF807C1F4A0E4B6E080E81196C3
:100DD0008C93119788E011968C938AEA90E2809325
:100DE000652090936620A3E6B0E2CD01089680933B
:100DF000632090936420AEC089E0E03AF807C1F424
:100E000088E0A0E6B6E011968C93A0E4B6E01196D7
:100E10008C9382EF90E28093AD209093AE20ABEA6A
:100E2000B0E2CD0108968093AB209093AC2092C0A5
:100E300089E0E03BF807C9F480E8A0E6B6E0119647
:100E40008C9388E0A0E4B6E011968C938AE391E25B
:100E50008093F5209093F620A3EFB0E2CD010896A1
:100E60008093F3209093F42075C08AE0E03AF8076D
:100E7000C1F488E0A0E8B6E011968C93A0E4B6E057
:100E800011968C9382E192E28093CD219093CE21B2
:100E9000ABECB1E2CD0108968093CB219093CC21AD
:100EA00059C08AE0E03BF807E9F480E8A0E8B6E042
:100EB00011968C938AEC91E2809385219093862100
:100EC000A3E8B1E2CD010896809383219093842119
:100ED00014968D939C93159716968D939C931797C4
:100EE000000040C08BE0E03AF807C1F488E0A0EAD7
:100EF000B6E011968C93A0E4B6E011968C9382EA4A
:100F000092E280935D2290935E22ABE5B2E2CD0146
:100F1000089680935B2290935C221CC08BE0E03BA0
:100F2000F80701F580E8A0EAB6E011968C9388E016
:100F3000A0E4B6E011968C938AE592E280931522A4
:100F400090931622A3E1B2E2CD010896809313227A
:100F50009093142214968D939C93159716968D93C7
:100F60009C931797838180628383403880E758077A
:100F700080E0680780E0780709F487C0413880E79F
:100F8000580780E0680780E07807BCF5403885E2C4
:100F9000580780E0680780E0780709F4A4C041386A
:100FA00085E2580780E0680780E078079CF4403BC2
:100FB00084E0580780E0680780E0780709F452C0B1
:100FC000403C82E1580780E0680780E0780709F03C
:100FD0008AC04FC0403488E3580780E0680780E04B
:100FE000780709F44EC040308BE4580780E068076A
:100FF00080E0780709F077C046C0403081EE58079E
:1010000080E0680780E0780709F455C0413081EE40
:10101000580780E0680780E0780794F4403086E95C
:10102000580780E0680780E07807B9F1403C8AED16
:10103000580780E0680780E0780709F054C035C0A1
:10104000403082EC580781E0680780E07807D9F1EA
:10105000403084E8580783E0680780E0780709F0AB
:1010600042C039C088E1848383E0858386838DEC28
:1010700041C088E1848383E085838DEF86838CED96
:1010800039C088E103C08CE12FC08CE1848383E008
:1010900085838EE9868388EC2DC08CE1848383E090
:1010A000858385EE86838CEB25C08CE1848383E089
:1010B00085838EEC05C08CE1848383E085838EE894
:1010C000868388EB17C08CE1848383E085838EE67A
:1010D000868388EA0FC08CE1848383E085838EE277
:1010E000868388E907C088E1848383E0858385EF70
:1010F00086838CEC87830895DF93CF93CDB7DEB7DB
:101100009E01275F3F4F8D819E816F817885A90168
:101110004BD0CF91DF9108950F931F93DF93CF931F
:10112000CDB7DEB70F8118859E01255F3F4FF801CF
:10113000838188608383C80169857A85A90134D059
:10114000F8012381277F2383CF91DF911F910F9196
:101150000895EF92FF920F931F93CF93DF937C013B
:10116000EB018B8181FF11C000E010E008C0E88531
:10117000F985BE010995009711F00FEF1FEFF701F8
:1011800081917F01882399F702C00FEF1FEFC801FB
:10119000DF91CF911F910F91FF90EF900895609193
:1011A000A5227091A62213C22F923F924F925F9276
:1011B0006F927F928F929F92AF92BF92CF92DF9267
:1011C000EF92FF920F931F93DF93CF93CDB7DEB7CC
:1011D0002C97CDBFDEBF6C011B018A01FC0116827A
:1011E0001782838181FFC4C12E010894411C511CC8
:1011F000F6019381F10193FD859193FF81911F0188
:10120000882309F4B1C1853239F493FD859193FFA8
:1012100081911F01853221F490E0B601D8D1E8CF49
:10122000EE24FF2420E02032B0F48B3269F08C32BF
:1012300028F4803251F0833271F40BC08D3239F0D2
:10124000803349F421602CC02260246029C02860CA
:1012500027C0206125C027FD2CC0382F30533A30DD
:1012600098F426FF08C08E2D880FE82EEE0CEE0CA9
:10127000E80EE30E15C08F2D880FF82EFF0CFF0C23
:10128000F80EF30E20620CC08E3221F426FD6CC1E4
:10129000206406C08C3611F4206802C0883649F4F8
:1012A000F10193FD859193FF81911F01882309F03E
:1012B000BACF982F9554933018F09052933028F469
:1012C0000C5F1F4FFFE3F9830DC0833631F0833786
:1012D00071F0833509F05CC021C0F80180818983F9
:1012E0000E5F1F4F420171E0A72EB12C15C062E0C6
:1012F000662E712C600E711EF8018080918026FF91
:1013000003C06E2D70E002C06FEF7FEFC4012C8729
:1013100053D15C0183012C852F7716C052E0652ED6
:10132000712C600E711EF8018080918026FF03C031
:101330006E2D70E002C06FEF7FEFC4012C8731D1BA
:101340005C012C852068830123FD1EC007C080E25C
:1013500090E0B6012C873BD1FA942C858F2D90E03C
:10136000A816B906A0F310C0F40127FD859127FF48
:1013700081914F0190E0B6012C8729D12C85F11085
:10138000FA940894A108B108A114B10469F7E9C05E
:10139000843611F0893641F527FF08C0F8016081D5
:1013A0007181828193810C5F1F4F09C0F8016081B8
:1013B0007181882777FD8095982F0E5F1F4F4FE62C
:1013C000B42EB22297FF09C09095809570956195D3
:1013D0007F4F8F4F9F4FF0E8BF2AA2012AE030E0F5
:1013E00022D1782E741844C0853731F43FEEB32EE5
:1013F000B2222AE030E025C099EFB92EB2228F3612
:10140000C1F0803720F4883509F0AEC00DC08037B8
:1014100021F0883709F0A8C002C020E1B22AB4FE4A
:101420000BC084E0B82A08C0B4FE09C0E6E0BE2ABA
:1014300006C028E030E005C020E130E002C020E135
:1014400032E0B7FE08C0F80160817181828193812A
:101450000C5F1F4F07C0F8016081718180E090E050
:101460000E5F1F4FA201DFD0782E7418FFE7BF2256
:10147000B6FE0BC02EEFB2227E1438F4B4FE07C0C5
:10148000B2FC05C08FEEB82202C0A72C01C0AE2C62
:101490008B2D90E0B4FE0DC0FE01E70DF11D208103
:1014A000203319F4E9EEBE2209C0A394B2FE06C0AF
:1014B00004C086789070009709F0A3948B2C99242F
:1014C000B3FC13C0B0FE0EC0AF1428F4E72CEF0C31
:1014D000EA18AF2C07C0E72C05C080E290E0B60107
:1014E00076D0A394AF14C8F304C0AF1410F4FA1864
:1014F00001C0FF2484FE0EC080E390E0B60167D0F7
:1015000082FE1DC081FE03C088E590E010C088E720
:1015100090E00DC0C40186789070009781F081FC46
:1015200002C080E201C08BE2B7FC8DE290E0B60120
:101530004ED005C080E390E0B60149D0EA947E1415
:10154000C8F37A94F201E70DF11D808190E0B601B5
:101550003ED07720B1F705C080E290E0B60137D0E9
:10156000FA94FF20C9F744CEF6012681378102C0E4
:101570002FEF3FEFC9012C96CDBFDEBFCF91DF919A
:101580001F910F91FF90EF90DF90CF90BF90AF90A1
:101590009F908F907F906F905F904F903F902F9093
:1015A0000895FC010590615070400110D8F78095B6
:1015B00090958E0F9F1F0895FC016150704001901F
:1015C0000110D8F7809590958E0F9F1F08950F9367
:1015D0001F93CF93DF938C01EB018B8181FF1BC0A5
:1015E00082FF0DC02E813F818C819D812817390794
:1015F00064F4E881F9810193E883F98306C0E88502
:10160000F985802F0995009731F48E819F8101968D
:101610008E839F8302C00FEF1FEFC801DF91CF9130
:101620001F910F910895FA01AA27283051F1203116
:1016300081F1E8946F936E7F6E5F7F4F8F4F9F4F66
:10164000AF4FB1E03ED0B4E03CD0670F781F891FA8
:101650009A1FA11D680F791F8A1F911DA11D6A0F76
:10166000711D811D911DA11D20D009F468943F9129
:101670002AE0269F11243019305D3193DEF6CF0128
:101680000895462F4770405D4193B3E00FD0C9F7EE
:10169000F6CF462F4F70405D4A3318F0495D31FD5B
:1016A0004052419302D0A9F7EACFB4E0A6959795AE
:1016B000879577956795BA95C9F700976105710584
:1016C00008959B01AC010A2E0694579547953795CE
:1016D0002795BA95C9F7620F731F841F951FA01D28
:0616E0000895F894FFCF0D
:1016E600312E33004E6F7620323031310041444383
:1016F6002564203D2025640D0A000D0D0D00000017
:101706000002000000007302000000000000000359
:10171600000000006A0471040000000000020000DE
:08172600000063040000000054
:00000001FF
