:1000000084C10000A7C10000A5C10000A3C1000079
:10001000A1C100009FC100009DC100009BC1000064
:1000200099C1000097C1000095C1000093C1000074
:1000300091C100008FC100008DC100008BC1000084
:1000400089C1000087C1000085C1000083C1000094
:1000500081C100007FC100007DC100007BC10000A4
:1000600079C100006EC60000E6C7000073C1000041
:100070009EC600000C9467086DC100006BC10000B3
:1000800069C1000067C1000065C1000063C10000D4
:1000900061C100005FC100005DC10000FEC2000040
:1000A00042C3000086C30000CAC3000061C4000050
:1000B00051C100004FC100004DC100004BC1000004
:1000C00049C1000047C1000045C1000043C1000014
:1000D00041C1000086C400003DC100003BC10000DA
:1000E00039C1000037C1000035C1000033C1000034
:1000F00031C10000FEC600000C944B092BC100006A
:1001000029C1000027C1000025C1000023C1000053
:1001100021C100001FC100001DC10000A6C10000D8
:10012000EAC100002EC2000072C2000013C100002C
:1001300011C100000FC100000DC100000BC1000083
:1001400009C1000007C1000005C1000003C1000093
:1001500001C10000FFC00000FDC00000FBC00000A6
:100160005CC600000C94B308F5C000008CC600000B
:100170000C94FF08EFC00000EDC00000EBC00000D1
:10018000E9C00000E7C00000E5C00000E3C00000D7
:10019000E1C00000DFC00000DDC00000DBC00000E7
:1001A000D9C00000D7C00000D5C00000D3C00000F7
:1001B000D1C00000CFC00000CDC00000CBC0000007
:1001C000C9C00000C7C00000C5C00000C3C0000017
:1001D000C1C00000BFC00000BDC00000C0C600001C
:1001E0000C949709B7C00000F0C600000C94E30916
:1001F000B1C00000AFC00000ADC000006E616E0075
:10020000696E660000407A10F35A00A0724E180919
:100210000010A5D4E80000E87648170000E40B546D
:10022000020000CA9A3B000000E1F505000080963C
:100230009800000040420F000000A086010000006E
:10024000102700000000E803000000006400000028
:1002500000000A00000000000100000000002C76F1
:10026000D888DC674F0823DFC1DFAE59E1B1B7960C
:10027000E5E3E453C63AE651997696E8E6C2842669
:10028000EB898C9B62ED407C6FFCEFBC9C9F40F245
:10029000BAA56FA5F490055A2AF75C936B6CF967C1
:1002A0006DC11BFCE0E40D47FEF520E6B500D0ED86
:1002B000902E0300943577050080841E08000020EE
:1002C0004E0A000000C80C333333330F986E12838C
:1002D0001141EF8D2114893BE65516CFFEE6DB1860
:1002E000D1844B381BF77C1D901DA4BBE424203225
:1002F00084725E228100C9F124ECA1E53D2763648C
:10030000696E6F70737578585B0011241FBECFEF54
:10031000DFE3DEBFCDBF00E00CBF18BE19BE1ABEC2
:100320001BBE14E2A0E0B0E2E0EEF8E200E00BBF9A
:1003300002C007900D92AE32B107D9F71BBE26E27C
:10034000AEE2B4E201C01D92A936B207E1F77CD457
:100350000C946E1455CECF92DF92EF92FF920F93D2
:100360001F93CF93DF9380E20E94160BC0E0D2E090
:100370008C8781E20E94160B8D8788E1F82EF98226
:1003800000E10A8393E0C92ECC8211E018A318A7DC
:1003900018AB18AF19A288E089A709ABF9AE1AA368
:1003A0001AA71AAB1AAF20ECD22EDB823DE3E32E64
:1003B000E88284E20E94160BC0E4D2E08C8785E2DA
:1003C0000E94160B8D87F9820A83CC8218A318A786
:1003D00018AB18AF80E689A388E689A780E789ABC8
:1003E00088E789AF1AA31AA71AAB1AAFDB82E88293
:1003F000E0EAF0E0828181688283DF91CF911F91F2
:100400000F91FF90EF90DF90CF9008950F931F937F
:10041000FC0180E140E050E0BA01019111912227F6
:1004200017FD2095322F400F511F621F731F8150FF
:10043000A1F777FD08C0E3E0759567955795479557
:10044000EA95D1F702C040E050E0CA011F910F9138
:100450000895883038F420E2829FC0011124895C1D
:100460009B4DD4CF80E090E008951F920F920FB67D
:100470000F92112408B60F9218BE09B60F9219BE3A
:100480000AB60F921ABE0BB60F921BBE2F938F9314
:100490009F93AF93BF93CF93DF93EF93FF93AFE21D
:1004A000B4E22C912F70E22FF0E0C0E0D2E08CA1FA
:1004B0009DA1EE0FFF1FE95CFB4D808391832F5FB1
:1004C0002F708C91807F822B8C93FF91EF91DF9125
:1004D000CF91BF91AF919F918F912F910F900BBEB4
:1004E0000F900ABE0F9009BE0F9008BE0F900FBE6E
:1004F0000F901F9018951F920F920FB60F92112414
:1005000008B60F9218BE09B60F9219BE0AB60F921E
:100510001ABE0BB60F921BBE2F938F939F93AF9370
:10052000BF93CF93DF93EF93FF93A0E3B4E22C91BB
:100530002F70E22FF0E0C0E0D2E08CA59DA5EE0F79
:10054000FF1FE95AFB4D808391832F5F2F708C91A1
:10055000807F822B8C93FF91EF91DF91CF91BF91A0
:10056000AF919F918F912F910F900BBE0F900ABE6C
:100570000F9009BE0F9008BE0F900FBE0F901F90F6
:1005800018951F920F920FB60F92112408B60F9272
:1005900018BE09B60F9219BE0AB60F921ABE0BB654
:1005A0000F921BBE2F938F939F93AF93BF93CF93C5
:1005B000DF93EF93FF93A1E3B4E22C912F70E22F2E
:1005C000F0E0C0E0D2E08CA99DA9EE0FFF1FE95832
:1005D000FB4D808391832F5F2F708C91807F822BC6
:1005E0008C93FF91EF91DF91CF91BF91AF919F914C
:1005F0008F912F910F900BBE0F900ABE0F9009BEE6
:100600000F9008BE0F900FBE0F901F9018951F926D
:100610000F920FB60F92112408B60F9218BE09B6AA
:100620000F9219BE0AB60F921ABE0BB60F921BBEDE
:100630002F938F939F93AF93BF93CF93DF93EF93BA
:10064000FF93A2E3B4E22C912F70E22FF0E0C0E020
:10065000D2E08CAD9DADEE0FFF1FE956FB4D8083C0
:1006600091832F5F2F708C91807F822B8C93FF91D1
:10067000EF91DF91CF91BF91AF919F918F912F918A
:100680000F900BBE0F900ABE0F9009BE0F9008BED0
:100690000F900FBE0F901F9018951F920F920FB6DC
:1006A0000F92112408B60F9218BE09B60F9219BE08
:1006B0000AB60F921ABE0BB60F921BBE2F938F93E2
:1006C0009F93AF93BF93CF93DF93EF93FF93A3E3F6
:1006D000B4E22C912F70E22FF0E0C0E4D2E08CA1C4
:1006E0009DA1EE0FFF1FE954FB4D808391832F5F87
:1006F0002F708C91807F822B8C93FF91EF91DF91F3
:10070000CF91BF91AF919F918F912F910F900BBE81
:100710000F900ABE0F9009BE0F9008BE0F900FBE3B
:100720000F901F9018951F920F920FB60F921124E1
:1007300008B60F9218BE09B60F9219BE0AB60F92EC
:100740001ABE0BB60F921BBE2F938F939F93AF933E
:10075000BF93CF93DF93EF93FF93A4E3B4E22C9185
:100760002F70E22FF0E0C0E4D2E08CA59DA5EE0F43
:10077000FF1FE952FB4D808391832F5F2F708C9177
:10078000807F822B8C93FF91EF91DF91CF91BF916E
:10079000AF919F918F912F910F900BBE0F900ABE3A
:1007A0000F9009BE0F9008BE0F900FBE0F901F90C4
:1007B00018951F920F920FB60F92112408B60F9240
:1007C00018BE09B60F9219BE0AB60F921ABE0BB622
:1007D0000F921BBE2F938F939F93AF93BF93CF9393
:1007E000DF93EF93FF93A5E3B4E22C912F70E22FF8
:1007F000F0E0C0E4D2E08CA99DA9EE0FFF1FE95004
:10080000FB4D808391832F5F2F708C91807F822B93
:100810008C93FF91EF91DF91CF91BF91AF919F9119
:100820008F912F910F900BBE0F900ABE0F9009BEB3
:100830000F9008BE0F900FBE0F901F9018951F923B
:100840000F920FB60F92112408B60F9218BE09B678
:100850000F9219BE0AB60F921ABE0BB60F921BBEAC
:100860002F938F939F93AF93BF93CF93DF93EF9388
:10087000FF93A6E3B4E22C912F70E22FF0E0C0E4E6
:10088000D2E08CAD9DADEE0FFF1FE95EFA4D808387
:1008900091832F5F2F708C91807F822B8C93FF919F
:1008A000EF91DF91CF91BF91AF919F918F912F9158
:1008B0000F900BBE0F900ABE0F9009BE0F9008BE9E
:1008C0000F900FBE0F901F901895E0913D25F0916D
:1008D0003E258091392590913A25E817F90789F44A
:1008E00020811082809137259091382580933D2575
:1008F00090933E258091A10A85FFFCCF2093A00A0A
:1009000008958091A10A85FFFCCF80818093A00A81
:100910001192E0933D25F0933E250895E0913B250B
:10092000F0913C252091392530913A25E217F307C3
:1009300051F48083809137259091382580933B2511
:1009400090933C2508958193E0933B25F0933C25BB
:100950000895E4CF81E040913B2550913C252091C2
:100960003D2530913E254217530709F480E0089554
:100970001F920F920FB60F92112408B60F9218BE55
:1009800009B60F9219BE0BB60F921BBE2F933F9361
:100990004F935F936F937F938F939F93AF93BF9387
:1009A000EF93FF93F894D6DF882319F080E090E06E
:1009B0008CDF7894FF91EF91BF91AF919F918F91D0
:1009C0007F916F915F914F913F912F910F900BBE4F
:1009D0000F9009BE0F9008BE0F900FBE0F901F9092
:1009E00018951F920F920FB60F92112408B60F920E
:1009F00018BE09B60F9219BE0AB60F921ABE0BB6F0
:100A00000F921BBEBF92CF92DF92EF92FF920F9395
:100A10001F932F933F934F935F936F937F938F9386
:100A20009F93AF93BF93CF93DF93EF93FF93F8948C
:100A300002E216E2C0E0D0E04CE0E42E44E2F42E04
:100A400050E0C52E50E2D52EFE01EE0FFF1FEC0F39
:100A5000FD1FEE5DF94D808186FF0AC0D8018C91A3
:100A60008F5F8C9380FF22C080818F7B80831EC02C
:100A7000F801329730812181CE01992780689F93B8
:100A80008F932F933F931F922F93DF93CF93FF92D8
:100A9000EF92DF92CF920E949A108C2F8054D8014F
:100AA0008C93EDB7FEB73C96EDBFFEBF21960D5F70
:100AB0001F4FC831D10541F67894FF91EF91DF9136
:100AC000CF91BF91AF919F918F917F916F915F91E6
:100AD0004F913F912F911F910F91FF90EF90DF90D9
:100AE000CF90BF900F900BBE0F900ABE0F9009BE23
:100AF0000F9008BE0F900FBE0F901F901895809119
:100B000050008660809350008091510081FFFCCF9F
:100B10008091510082FFF8CF88ED84BF81E08093FF
:100B2000400082E083D58093540083E07FD580939A
:100B3000630084E07BD58093620010925600809120
:100B4000600081608093600082E1809364008AE7A6
:100B5000809365000895D3DF94D040E052EC61E0CB
:100B600070E080EA98E07BD4F6DB78940895CF9328
:100B7000DF938091030480FF64C080912E2469DCA0
:100B8000019625E0289FB001299F700D112480E077
:100B900090E055D520E030E040E859E3DED59F9362
:100BA0008F937F936F9320912E24822F992787FD17
:100BB00090959F932F9385E194E29F938F93CEE03E
:100BC000D0E2DF93CF930E949A1084EC93E2AED0F0
:100BD0002DB73EB7265F3F4F2DBF3EBF882361F143
:100BE00088E696E29F938F9382E194E29F938F939E
:100BF000DF93CF930E94D510809168260F900F90BD
:100C00000F900F900F900F90893651F480912E2401
:100C10008F5F80932E2488307CF010922E240CC09D
:100C20008F3651F480912E24815080932E2487FF9B
:100C300003C087E080932E2489E190E0DF91CF917B
:100C400006C0DF91CF91089586DF91DFFECF9C0132
:100C50008091010480FDFCCF80910304816080932A
:100C60000304C90168E270E00E94980F620F731FCD
:100C700060930A0470930B04109208041092090404
:100C800008958091010480FDFCCF809143008D6028
:100C90008093430081E08093000410920804109236
:100CA000090481E090E0D3CFFC01A681B7812281C5
:100CB00033818C91A217B30729F4208131812683D7
:100CC000378308951196A683B7830895F894ECDFCF
:100CD0007894089584EC93E2F9CFFC01A481B58166
:100CE00082819381A817B90731F46C938081918137
:100CF0008483958308956D93A483B5830895CF93DA
:100D0000DF93EC01CB01F894642FE7DF8B818C7FBC
:100D10008B838B8181608B837894DF91CF91089551
:100D2000482F6CE773E280EA98E0E9CFFC0181E0AC
:100D300044815581268137814217530709F480E0A9
:100D400008951F920F920FB60F92112408B60F92BA
:100D500018BE09B60F9219BE0BB60F921BBE2F9389
:100D60003F934F935F936F937F938F939F93AF9333
:100D7000BF93EF93FF936091A00884EC93E2ADDF03
:100D8000FF91EF91BF91AF919F918F917F916F9163
:100D90005F914F913F912F910F900BBE0F9009BE25
:100DA0000F9008BE0F900FBE0F901F9018951F92C6
:100DB0000F920FB60F92112408B60F9218BE09B603
:100DC0000F9219BE0BB60F921BBE2F933F934F93FA
:100DD0005F936F937F938F939F93AF93BF93EF93A3
:100DE000FF936091B00884E393E277DFFF91EF9186
:100DF000BF91AF919F918F917F916F915F914F9133
:100E00003F912F910F900BBE0F9009BE0F9008BE1F
:100E10000F900FBE0F901F9018951F920F920FB654
:100E20000F92112408B60F9218BE09B60F9219BE80
:100E30000BB60F921BBE2F933F934F935F936F930D
:100E40007F938F939F93AF93BF93EF93FF936091A3
:100E5000A00984EA92E241DFFF91EF91BF91AF9147
:100E60009F918F917F916F915F914F913F912F91C2
:100E70000F900BBE0F9009BE0F9008BE0F900FBED3
:100E80000F901F9018951F920F920FB60F9211247A
:100E900008B60F9218BE09B60F9219BE0BB60F9284
:100EA0001BBE2F933F934F935F936F937F938F93CB
:100EB0009F93AF93BF93EF93FF936091B00984E149
:100EC00092E20BDFFF91EF91BF91AF919F918F91D4
:100ED0007F916F915F914F913F912F910F900BBE3A
:100EE0000F9009BE0F9008BE0F900FBE0F901F907D
:100EF00018951F920F920FB60F92112408B60F92F9
:100F000018BE09B60F9219BE0BB60F921BBE2F93D7
:100F10003F934F935F936F937F938F939F93AF9381
:100F2000BF93EF93FF936091B00A84E891E2D5DE1E
:100F3000FF91EF91BF91AF919F918F917F916F91B1
:100F40005F914F913F912F910F900BBE0F9009BE73
:100F50000F9008BE0F900FBE0F901F9018951F9214
:100F60000F920FB60F92112408B60F9218BE09B651
:100F70000F9219BE0BB60F921BBE2F933F934F9348
:100F80005F936F937F938F939F93AF93BF93EF93F1
:100F9000FF936091A00B84EF90E29FDEFF91EF91B1
:100FA000BF91AF919F918F917F916F915F914F9181
:100FB0003F912F910F900BBE0F9009BE0F9008BE6E
:100FC0000F900FBE0F901F9018951F920F920FB6A3
:100FD0000F92112408B60F9218BE09B60F9219BECF
:100FE0000BB60F921BBE2F933F934F935F936F935C
:100FF0007F938F939F93AF93BF93EF93FF936091F2
:10100000B00B84E690E269DEFF91EF91BF91AF9162
:101010009F918F917F916F915F914F913F912F9110
:101020000F900BBE0F9009BE0F9008BE0F900FBE21
:101030000F901F9018951F920F920FB60F921124C8
:1010400008B60F9218BE09B60F9219BE0BB60F92D2
:101050001BBE2F933F934F935F936F937F938F9319
:101060009F93AF93BF93EF93FF93F89420918023C6
:10107000309181238091822390918323281739070F
:1010800019F408C078940CC08CE793E20DDE8093CD
:10109000A008F8CF8091A3088C7F8093A308F2CF9B
:1010A000FF91EF91BF91AF919F918F917F916F9140
:1010B0005F914F913F912F910F900BBE0F9009BE02
:1010C0000F9008BE0F900FBE0F901F9018951F92A3
:1010D0000F920FB60F92112408B60F9218BE09B6E0
:1010E0000F9219BE0BB60F921BBE2F933F934F93D7
:1010F0005F936F937F938F939F93AF93BF93EF9380
:10110000FF93F8942091F0223091F1228091F22205
:101110009091F3222817390719F408C078940CC06D
:101120008CEE92E2C1DD8093B008F8CF8091B308D5
:101130008C7F8093B308F2CFFF91EF91BF91AF9175
:101140009F918F917F916F915F914F913F912F91DF
:101150000F900BBE0F9009BE0F9008BE0F900FBEF0
:101160000F901F9018951F920F920FB60F92112497
:1011700008B60F9218BE09B60F9219BE0BB60F92A1
:101180001BBE2F933F934F935F936F937F938F93E8
:101190009F93AF93BF93EF93FF93F89420916022B6
:1011A0003091612280916222909163222817390741
:1011B00019F408C078940CC08CE592E275DD809338
:1011C000A009F8CF8091A3098C7F8093A309F2CF67
:1011D000FF91EF91BF91AF919F918F917F916F910F
:1011E0005F914F913F912F910F900BBE0F9009BED1
:1011F0000F9008BE0F900FBE0F901F9018951F9272
:101200000F920FB60F92112408B60F9218BE09B6AE
:101210000F9219BE0BB60F921BBE2F933F934F93A5
:101220005F936F937F938F939F93AF93BF93EF934E
:10123000FF93F8942091D0213091D1218091D22137
:101240009091D3212817390719F408C078940CC05D
:101250008CEC91E229DD8093B009F8CF8091B3093D
:101260008C7F8093B309F2CFFF91EF91BF91AF9143
:101270009F918F917F916F915F914F913F912F91AE
:101280000F900BBE0F9009BE0F9008BE0F900FBEBF
:101290000F901F9018951F920F920FB60F92112466
:1012A00008B60F9218BE09B60F9219BE0BB60F9270
:1012B0001BBE2F933F934F935F936F937F938F93B7
:1012C0009F93AF93BF93EF93FF93F89420914021A6
:1012D0003091412180914221909143212817390773
:1012E00019F408C078940CC08CE391E2DDDC8093A3
:1012F000B00AF8CF8091B30A8C7F8093B30AF2CF03
:10130000FF91EF91BF91AF919F918F917F916F91DD
:101310005F914F913F912F910F900BBE0F9009BE9F
:101320000F9008BE0F900FBE0F901F9018951F9240
:101330000F920FB60F92112408B60F9218BE09B67D
:101340000F9219BE0BB60F921BBE2F933F934F9374
:101350005F936F937F938F939F93AF93BF93EF931D
:10136000FF93F8942091B0203091B1208091B22069
:101370009091B3202817390719F408C078940CC04D
:101380008CEA90E291DC8093A00BF8CF8091A30BC4
:101390008C7F8093A30BF2CFFF91EF91BF91AF9120
:1013A0009F918F917F916F915F914F913F912F917D
:1013B0000F900BBE0F9009BE0F9008BE0F900FBE8E
:1013C0000F901F9018951F920F920FB60F92112435
:1013D00008B60F9218BE09B60F9219BE0BB60F923F
:1013E0001BBE2F933F934F935F936F937F938F9386
:1013F0009F93AF93BF93EF93FF93F8942091202096
:1014000030912120809122209091232028173907A4
:1014100019F408C078940CC08CE190E245DC80930C
:10142000B00BF8CF8091B30B8C7F8093B30BF2CFCE
:10143000FF91EF91BF91AF919F918F917F916F91AC
:101440005F914F913F912F910F900BBE0F9009BE6E
:101450000F9008BE0F900FBE0F901F901895FC01C3
:10146000E03B89E0F80719F168F4E03B88E0F80711
:10147000C1F0E03A89E0F807C1F0E03A88E0F80707
:1014800019F50DC0E03A8BE0F807C9F0E03B8BE0BE
:10149000F807B9F0E03B8AE0F807B1F40CC088E047
:1014A00001C080E8809341060FC088E001C080E859
:1014B0008093610609C080E88093810605C088E0BA
:1014C00001C080E88093A1068091A2008360809390
:1014D000A200838180628383403880E758076105DA
:1014E000710509F464C024F5403885E258076105A8
:1014F000710509F492C074F4403B84E0580761051B
:10150000710509F441C0403C52416105710509F083
:1015100084C041C0403488E358076105710509F46F
:1015200042C041155B446105710509F076C03DC0BC
:10153000411581EE58076105710509F44EC06CF440
:10154000411586E9580761057105C9F1403C5A4DBE
:101550006105710509F061C03AC0483488EE58074A
:1015600081E06807710509F448C0411584E858070F
:1015700083E06807710509F448C04115524C614089
:10158000710509F04AC031C088E1848383E0858316
:1015900086838DEC49C088E1848383E085838DEF69
:1015A00086838CED41C088E103C08CE137C08CE1BB
:1015B000848383E085838EE9868388EC35C08CE163
:1015C000848383E0858385EE86838CEB2DC08CE15C
:1015D000848383E085838EEC05C08CE1848383E083
:1015E00085838EE8868388EB1FC08CE1848383E04B
:1015F00085838EE6868388EA17C08CE1848383E046
:10160000858380EC868387EA0FC08CE1848383E046
:1016100085838EE2868388E907C088E1848383E03E
:10162000858385EF86838CEC87830895AAECB1E0EF
:1016300092E09C93E82FF0E084911C920895E89446
:1016400009C097FB3EF490958095709561957F4F0A
:101650008F4F9F4F9923A9F0F92F96E9BB279395B8
:10166000F695879577956795B795F111F8CFFAF4C8
:10167000BB0F11F460FF1BC06F5F7F4F8F4F9F4FF9
:1016800016C0882311F096E911C0772321F09EE857
:10169000872F762F05C0662371F096E8862F70E0BD
:1016A00060E02AF09A95660F771F881FDAF7880F97
:1016B0009695879597F9089597F99F6780E870E068
:1016C00060E008959FEF80EC089500240A941616B8
:1016D000170618060906089500240A941216130620
:1016E000140605060895092E0394000C11F48823AE
:1016F00052F0BB0F40F4BF2B11F460FF04C06F5FCA
:101700007F4F8F4F9F4F089557FD9058440F551F9F
:1017100059F05F3F71F04795880F97FB991F61F073
:101720009F3F79F087950895121613061406551FEA
:10173000F2CF4695F1DF08C0161617061806991F56
:10174000F1CF86957105610508940895E894BB274B
:1017500066277727CB0197F908950BD0C4CFB5DF63
:1017600028F0BADF18F0952309F0A6CFABCF1124EB
:10177000EECFCADFA0F3959FD1F3950F50E0551F30
:10178000629FF001729FBB27F00DB11D639FAA27D6
:10179000F00DB11DAA1F649F6627B00DA11D661F25
:1017A000829F2227B00DA11D621F739FB00DA11D46
:1017B000621F839FA00D611D221F749F3327A00D00
:1017C000611D231F849F600D211D822F762F6A2F9C
:1017D00011249F5750408AF0E1F088234AF0EE0F21
:1017E000FF1FBB1F661F771F881F91505040A9F72E
:1017F0009E3F510570F060CFAACF5F3FECF3983E5B
:10180000DCF3869577956795B795F795E7959F5F94
:10181000C1F7FE2B880F911D9695879597F908952E
:101820002F923F924F925F926F927F928F929F92F0
:10183000AF92BF92CF92DF92EF92FF920F931F93DE
:10184000CF93DF93CDB7DEB76297CDBFDEBF7C010C
:101850001B016A01FC0116821782838181FD03C08E
:101860004EC3650105C088248394912C8C0E9D1E67
:10187000F7019381F10193FD859193FF81911F0100
:10188000882309F438C3853239F493FD859193FF99
:1018900081911F01853229F4B70190E05AD4560195
:1018A000E0CF712C612C20E02032A8F48B3261F063
:1018B00028F4803251F0833271F40BC08D3239F04C
:1018C000803349F4216028C02260246025C028604C
:1018D00023C0206121C027FD27C0382F30533A3064
:1018E00078F426FF06C0FAE07F9E300D1124732E97
:1018F00013C04AE0649E300D1124632E20620CC098
:101900008E3221F426FDF7C2206406C08C3611F415
:10191000206802C0883641F4F10193FD859193FF60
:1019200081911F018111C0CF982F9554933018F4E5
:101930002061805E06C0982F9556933008F094C1C0
:101940002F7E26FD02C016E0712EBFE35B2E5222D1
:10195000853619F4F0E45F2A07C0863619F440E8AA
:10196000542A02C071107A9457FE07C05BE35715E2
:1019700048F0472C439427E00DC087E0871530F0EE
:10198000272D07C027E0ACE34A2E04C027E0F7E08C
:101990007F2E412C560194E0A90EB11CF601608106
:1019A000718182819381042DA401D6D28C01498159
:1019B0004C8740FF02C043FF07C051FC08C052FEE5
:1019C00009C0E0E2DE2E07C07DE2D72E04C06BE244
:1019D000D62E01C0D12C8C858C7089F1DD2011F0C0
:1019E00084E001C083E0861510F0612C0AC0681AFB
:1019F00053FC07C0B70180E290E0ABD36A94D1F703
:101A0000F4CFDD2021F0B7018D2D90E0A2D35C85CD
:101A100053FD03C000E012E00BC00CEF11E008C062
:101A200051108052B70190E094D30F5F1F4F02C056
:101A300080E15822F80184918111F2CF59C257FEFA
:101A40000EC0400E4C8544FF04C08A81813309F4E6
:101A50004A9414144CF558E0541548F12CC056FC27
:101A60002AC0872D90E08017910744F00C3F8FEF3C
:101A7000180724F090E8592A01C07A94772049F099
:101A8000E2E0F0E0EC0FFD1FE70DF11D80818033F7
:101A9000A1F357FE10C0472C4394872D90E0081700
:101AA000190744F4701A07C04424439404C058E052
:101AB000452E01C0712C57FE07C0101611063CF4CC
:101AC00098012F5F3F4F05C025E030E002C021E0C4
:101AD00030E0DD2011F02F5F3F4F772031F0472DB0
:101AE00050E04F5F5F4F240F351F462D50E0241705
:101AF000350714F4621A01C0612C852D897041F4F8
:101B000005C0B70180E290E024D36A946110F9CF58
:101B1000DD2021F0B7018D2D90E01BD353FC08C0D0
:101B200005C0B70180E390E014D36A946110F9CF47
:101B300057FE54C0680117FF02C0C12CD12C20E011
:101B400030E0A801441951094D875E8728014C18DF
:101B50005D08480C591C872D90E044275527481BE9
:101B6000590B4F87588B5FEFC516D50641F4B70167
:101B70008EE290E02A8B398BECD239892A890C15B8
:101B80001D0554F04D855E854C155D052CF4F20164
:101B9000E20FF31F818101C080E351E0C51AD10833
:101BA0002F5F3F4F4F855889C416D50644F0B701C3
:101BB00090E02A8B398BCDD22A893989D4CFC016AF
:101BC000D10649F49A81963328F4953321F45C8543
:101BD00054FD01C081E3B70190E044C08A818133A4
:101BE00019F04C854F7E4C87B70190E0B2D271104E
:101BF00005C054FE14C085E490E013C0B7018EE226
:101C000090E0A7D242E0D42EF401ED0DF11DD39463
:101C1000B701808190E09DD27A94B1F7EACF85E652
:101C200090E0B70196D217FD06C00115110541F4E9
:101C30005C8554FF05C01195019511098DE201C025
:101C40008BE2B70190E085D280E303C08F5F0A503A
:101C500011090A301105D4F7B70190E07AD2B70123
:101C6000C801C09676D244C1833631F0833781F003
:101C7000833509F05AC023C0560182E0A80EB11C7A
:101C8000F60180818983CC24C394D12C840113C0B4
:101C90005601F2E0AF0EB11CF6010081118126FF62
:101CA00003C0672D70E002C06FEF7FEFC8012A8B81
:101CB00036D26C012A899FE7592E522216C056014E
:101CC000F2E0AF0EB11CF6010081118126FF03C0C6
:101CD000672D70E002C06FEF7FEFC8012A8B14D22E
:101CE0006C012A8980E8582E522A53FC1AC005C07C
:101CF000B70180E290E02DD26A94862D90E0C8165C
:101D0000D906B0F30EC0F80157FC859157FE8191BA
:101D10008F01B70190E01DD261106A94F1E0CF1AF3
:101D2000D108C114D10479F7E3C0843611F08936A3
:101D300049F5560127FF09C044E0A40EB11CF60185
:101D400060817181828193810AC0F2E0AF0EB11C83
:101D5000F60160817181882777FD8095982F122F79
:101D60001F7697FF08C090958095709561957F4F7D
:101D70008F4F9F4F10682AE030E0A40125D2D82E63
:101D8000D8183FC0122F853721F41F7E2AE030E09B
:101D90001FC0197F8F36A1F020F4883509F0ABC041
:101DA0000BC0803721F0883709F0A5C001C0106151
:101DB00014FF09C0146007C024FF08C0166006C0E5
:101DC00028E030E005C020E130E002C020E132E050
:101DD000560117FF09C0F4E0AF0EB11CF601608197
:101DE00071818281938108C0F2E0AF0EB11CF601CF
:101DF0006081718180E090E0A401E6D1D82ED818EE
:101E00001F7716FF0BC0212F2E7FD71450F414FF1D
:101E10000AC012FD08C0212F2E7E05C00D2D212FD6
:101E200003C00D2D01C0072D24FF0CC0FE01ED0DD8
:101E3000F11D8081803311F4297E08C022FF05C086
:101E40000E5F04C0822F867809F00F5F23FD13C058
:101E500020FF0EC07D2C061558F4760C701A062D46
:101E600007C0B70180E290E02A8B73D10F5F2A8907
:101E70000615B8F304C0061510F4601A01C0612CF1
:101E800024FF11C0B70180E390E02A8B62D12A8938
:101E900022FF1CC021FF03C088E590E002C088E754
:101EA00090E0B7010CC0822F867881F021FD02C03E
:101EB00080E201C08BE227FD8DE2B70190E049D1BD
:101EC00005C0B70180E390E044D17A94D714C8F3F9
:101ED000DA94F401ED0DF11DB701808190E039D164
:101EE000D110F6CF05C0B70180E290E032D16A94FC
:101EF0006110F9CFB6CCF7012681378102C02FEFF0
:101F00003FEFC9016296CDBFDEBFDF91CF911F9138
:101F10000F91FF90EF90DF90CF90BF90AF909F9088
:101F20008F907F906F905F904F903F902F9008958B
:101F3000AA1BBB1B51E107C0AA1FBB1FA617B707EF
:101F400010F0A61BB70B881F991F5A95A9F780950B
:101F50009095BC01CD010895283008F027E0332783
:101F6000DA01990F311D87FD9160009661057105B9
:101F700039F432602E5F3D9330E32A95E1F70895FE
:101F80009F3F30F080387105610509F03C5F3C5F90
:101F90003D93913008F08068911DDF93CF931F939C
:101FA0000F93FF92EF92192F987F9695E92F9695B0
:101FB0009695E90FFF27E25AFD4F99273327EE2424
:101FC000FF24A701E70105900894079428F4360F31
:101FD000E71EF81E491F511D660F771F881F991FA6
:101FE0000694A1F70590079428F4E70EF81E491F00
:101FF000561FC11D770F881F991F661F0694A1F7F2
:102000000590079428F4F80E491F561FC71FD11DCD
:10201000880F991F661F771F0694A1F705900794F4
:1020200020F4490F561FC71FD81F990F661F771F2F
:10203000881F0694A9F784911095177041F0D695E2
:10204000C79557954795F794E7941A95C1F7E4E03B
:10205000F2E06894159015913591659195910590F0
:102060007FE27395E118F10A430B560BC90BD009B7
:10207000C0F7E10CF11E431F561FC91FD01D7EF48F
:10208000703311F48A95E6CFE894015030F0080FD0
:102090000AF40027021708F4202F2395022F7A3321
:1020A00028F079E37D932A95E9F710C07D932A956E
:1020B00089F6069497956795379517951794E118C3
:1020C000F10A430B560BC90BD00998F023957E916A
:1020D00073957A3308F070E37C932013B8F77E9100
:1020E00070617D9330F0839571E37D9370E32A9561
:1020F000E1F71124EF90FF900F911F91CF91DF91A5
:10210000992787FD90950895FC01059061507040D6
:102110000110D8F7809590958E0F9F1F0895FC01B0
:102120006150704001900110D8F7809590958E0F06
:102130009F1F0895CF93DF93CDB7DEB7CE010A96E8
:10214000AC01688579858E819F816ADBDF91CF91B3
:1021500008950F931F93CF93DF938C01EB018B8135
:1021600081FD03C00FEF1FEF1AC082FF0DC02E814B
:102170003F818C819D812817390764F4E881F981BA
:102180000193E883F98306C0E885F985802F1995C6
:10219000892B41F78E819F8101968E839F83C80191
:1021A000DF91CF911F910F910895CF93DF93CDB71A
:1021B000DEB7CE010A96AC01688579858E819F8154
:1021C000FCD1DF91CF910895FA01AA27283051F16F
:1021D000203181F1E8946F936E7F6E5F7F4F8F4F58
:1021E0009F4FAF4FB1E03ED0B4E03CD0670F781FB7
:1021F000891F9A1FA11D680F791F8A1F911DA11D9C
:102200006A0F711D811D911DA11D20D009F46894D4
:102210003F912AE0269F11243019305D3193DEF67C
:10222000CF010895462F4770405D4193B3E00FD032
:10223000C9F7F6CF462F4F70405D4A3318F0495D1D
:1022400031FD4052419302D0A9F7EACFB4E0A69500
:102250009795879577956795BA95C9F70097610522
:10226000710508959B01AC010A2E06945795479578
:1022700037952795BA95C9F7620F731F841F951F6D
:10228000A01D089520FD09C0FC0123FD05C022FF0B
:1022900002C073836283518340830895CF92DF929B
:1022A000EF92FF920F931F9344FD10C046FD10C0A4
:1022B000DB01FC01AA0FBB1FEE1FFF1F1094D1F71B
:1022C0006A0F7B1F8E1F9F1F31E003C033E001C0E8
:1022D00034E0660F771F881F991F3150D1F76B01CB
:1022E0007C01C20ED11CE11CF11C97018601B601D4
:1022F000C9011F910F91FF90EF90DF90CF9008954B
:102300000F931F93CF93DF938C01C80189D2EC0107
:1023100097FD06C072D2892BC1F7B801CE01C0D299
:10232000CE01DF91CF911F910F9108958F929F92CF
:10233000AF92CF92DF92EF92FF920F931F93CF93C2
:10234000DF93EC01A62E4A01022F6AD2AC01552779
:102350004B32510521F04D32510549F40068AA94E1
:1023600011F480E05CC0CE015BD297FDFACF102F54
:102370001D7F302F3073D1F48033C1F4AA9409F457
:102380003BC0CE014DD297FD37C0883711F088355C
:1023900041F41264AA9481F1CE0142D297FF06C0A3
:1023A0002BC006FF02C0126001C01261C12CD12CEB
:1023B0007601282F2053283078F014FF03C0BE0187
:1023C0006FD217C02A3040F016FFF9CF2F7D322F81
:1023D00031513630A0F72750412FC701B6015EDFDB
:1023E0006B017C011260AA9451F0CE0119D297FFC3
:1023F000E0CF11FD04C0B5CFC12CD12C760117FF61
:1024000008C0F094E094D094C094C11CD11CE11C8D
:10241000F11C212FB701A601C40134DF81E0DF9157
:10242000CF911F910F91FF90EF90DF90CF90AF90E1
:102430009F908F9008956F927F929F92AF92BF92DC
:10244000CF92DF92EF92FF920F931F93CF93DF9380
:10245000CDB7DEB7A197CDBFDEBF6C017A01890190
:10246000FE01319680E2DF011D928A95E9F7D601DF
:1024700013969C9020E030E0A12CA0E0B12CCF017D
:1024800041E050E0F80193FC759193FE71918F014A
:10249000711103C000E010E07EC07E3519F42115F3
:1024A000310559F1EB2DF0E0E217F3073CF47D35EF
:1024B00069F17D3219F4AA2319F103C0A11101C0F9
:1024C000A72EE72FE695E695E6953C016E0E711C6A
:1024D000F301A72FA7703A0102C0660C771CAA95DA
:1024E000E2F7D301B081BA2BB0837A1559F07A158F
:1024F00010F47F5FE6CF7150E4CFBB24B39403C0E8
:10250000A1E001C0A0E02F5F3F4FBCCFAA2319F08C
:102510008E8180628E83B11003C0BB24B3940BC044
:10252000FE013196CE018196208120952193E817F6
:10253000F907D1F7F2CFC60169A372D169A197FD5E
:1025400023C0282F269526952695E1E0F0E0EC0F94
:10255000FD1FE20FF11D208130E0AC0147705527CF
:1025600002C0359527954A95E2F720FD03C0B601D4
:1025700097D10AC0E114F10419F0D7018D937D01C0
:102580006150B12CC1F602C0B11084CFE114F10446
:1025900011F0F7011082C801A196CDBFDEBFDF9117
:1025A000CF911F910F91FF90EF90DF90CF90BF9050
:1025B000AF909F907F906F9008954F925F927F921F
:1025C0008F929F92AF92BF92CF92DF92EF92FF9243
:1025D0000F931F93CF93DF931F92CDB7DEB78C017C
:1025E0002B017A01FC0116821782A12CE2C08C2DEE
:1025F00090E003D1892B19F0C80182DEDAC0F5E240
:10260000CF120AC0F201D3FC3591D3FE31912F01D4
:10261000353261F455E2C52EC80102D197FDD4C010
:10262000C81609F4C6C0B8013BD1D0C03A3241F453
:10263000D3FC3591D3FE31912F01BB24B39401C05B
:10264000B12C712C0FC0F2E0BF2A672D70E080E042
:1026500090E040E223DE762EF201D3FC3591D3FEEA
:1026600031912F01232F20532A3068F3B1FE03C08C
:10267000711003C0ABC077247A94383619F03C3619
:1026800099F40AC0F201D3FC3591D3FE31912F01A8
:10269000383651F4F8E0BF2A84E0B82AF201D3FCBE
:1026A0003591D3FE31912F01332309F48FC0632F6D
:1026B00070E08EEF92E03983A8D03981892B09F43C
:1026C00085C0B0FC07C0F701C080D18082E0E80E71
:1026D000F11C02C0C12CD12C3E3649F4F8014681D0
:1026E000578160E070E02B2DC601CCDD62C033362F
:1026F00089F4B1FC02C077247394C80191D097FD8E
:1027000063C0C114D10419F0F60181936F017A946A
:10271000A1F74DC03B3551F49201A601672DC801C8
:102720008ADE2C01009709F042C03CC0C801398301
:10273000E7DD398197FD48C03F3641F128F4343652
:1027400011F1393631F527C0333719F0353709F52E
:102750001AC0C80165D04C0197FD0FC04ED0892B1F
:1027600021F0B801C4019CD008C0C114D10419F0F3
:10277000F60181926F017A9461F7C114D104B9F026
:10278000F601108214C0F0E2BF2A05C080E1B82A29
:1027900002C090E4B92A2B2DA601672DC801C6DD21
:1027A000811105C0F8018381807371F40FC0B0FE00
:1027B000A394F801D380F201D3FCC590D3FEC1905D
:1027C0002F01C11014CF02C0AA2019F02A2D30E029
:1027D00002C02FEF3FEFC9010F90DF91CF911F9102
:1027E0000F91FF90EF90DF90CF90BF90AF909F90B0
:1027F0008F907F905F904F90089591116CC08032C0
:1028000019F089508550D0F70895FC0105900616FF
:1028100021F00020D9F7C00108953197CF01089524
:10282000CF93DF93EC013B8130FF34C036FF0AC009
:102830003F7B3B838E819F8101968E839F832A817C
:1028400030E02AC032FF0FC0E881F98180819927EA
:1028500087FD9095009719F430623B831BC0319639
:10286000E883F9830EC0EA85FB85199597FF09C0B7
:102870002B81019611F480E101C080E2822B8B83D1
:1028800009C02E813F812F5F3F4F2E833F839C01E4
:10289000332702C02FEF3FEFC901DF91CF91089599
:1028A000FB01238120FF13C026FD11C08F3F3FEFA6
:1028B000930769F082832F7D2064238326813781EB
:1028C00021503109268337839C01332702C02FEF23
:1028D0003FEFC9010895992788270895F894FFCFFD
:1028E0000000000200000000A90400000000000039
:1028F00000030000000090066A0600002420632008
:10290000242024200000000000000000000000003F
:1029100000000000000000000000000000000000B7
:1029200000000000000000000000000000000000A7
:102930000000000000000000000000000000000097
:10294000000000006C20AB206C206C200000000018
:102950000000000000000000000000000000000077
:102960000000000000000000000000000000000067
:102970000000000000000000000000000000000057
:10298000000000000000000000000000B420F32060
:10299000B420B4200000000000000000000000008F
:1029A0000000000000000000000000000000000027
:1029B0000000000000000000000000000000000017
:1029C0000000000000000000000000000000000007
:1029D00000000000FC203B21FC20FC200000000047
:1029E00000000000000000000000000000000000E7
:1029F00000000000000000000000000000000000D7
:102A000000000000000000000000000000000000C6
:102A100000000000000000000000000044218321AD
:102A200044214421000000000000000000000000DC
:102A30000000000000000000000000000000000096
:102A40000000000000000000000000000000000086
:102A50000000000000000000000000000000000076
:102A6000000000008C21CB218C218C210000000073
:102A70000000000000000000000000000000000056
:102A80000000000000000000000000000000000046
:102A90000000000000000000000000000000000036
:102AA000000000000000000000000000D4211322FC
:102AB000D421D4210000000000000000000000002C
:102AC0000000000000000000000000000000000006
:102AD00000000000000000000000000000000000F6
:102AE00000000000000000000000000000000000E6
:102AF000000000001C225B221C221C22000000009F
:102B000000000000000000000000000000000000C5
:102B100000000000000000000000000000000000B5
:102B200000000000000000000000000000000000A5
:102B30000000000000000000000000006422A3224A
:102B40006422642200000000000000000000000079
:102B50000000000000000000000000000000000075
:102B60000000000000000000000000000000000065
:102B70000000000000000000000000000000000055
:102B800000000000AC22EB22AC22AC2200000000CE
:102B90000000000000000000000000000000000035
:102BA0000000000000000000000000000000000025
:102BB0000000000000000000000000000000000015
:102BC000000000000000000000000000F422332399
:102BD000F422F422000000000000000000000000C9
:102BE00000000000000000000000000000000000E5
:102BF00000000000000000000000000000000000D5
:102C000000000000000000000000000000000000C4
:102C1000000000003C237B233C233C2300000000F9
:102C200000000000000000000000000000000000A4
:102C30000000000000000000000000000000000094
:102C40000000000000000000000000000000000084
:102C50000000000000000000000000008423C323E7
:102C60008423842300000000000000000000000016
:102C70000000000000000000000000000000000054
:102C80000000000000000000000000000000000044
:102C90000000000000000000000000000000000034
:102CA00000000000CC230B24CC23CC230000000028
:102CB0000000000000000000000000000000000014
:102CC0000000000000000000000000000000000004
:102CD00000000000000000000000000000000000F4
:102CE00000000000000000000000000025632563D4
:102CF0002563256300616E616C6F672070696E20CB
:0E2D00002564203D2025312E34660D0A00008A
:00000001FF
