:100000007EC10000A1C100009FC100009DC1000091
:100010009BC1000099C1000097C1000095C100007C
:1000200093C1000091C100008FC100008DC100008C
:100030008BC1000089C1000087C1000085C100009C
:1000400083C1000081C100007FC100007DC10000AC
:100050007BC1000079C1000077C1000075C10000BC
:1000600073C1000048C60000C0C700006DC1000099
:1000700078C600000C94410867C1000065C100000B
:1000800063C1000061C100005FC100005DC10000EC
:100090005BC1000059C1000057C10000C9C2000087
:1000A0000DC3000051C3000095C3000085C40000CB
:1000B0004BC1000049C1000047C1000045C100001C
:1000C00043C1000041C100003FC100003DC100002C
:1000D0003BC10000AAC4000037C1000035C10000C8
:1000E00033C1000031C100002FC100002DC100004C
:1000F0002BC10000D8C600000C94250925C10000C2
:1001000023C1000021C100001FC100001DC100006B
:100110001BC1000019C1000017C1000071C100001F
:10012000B5C10000F9C100003DC200000DC10000D2
:100130000BC1000009C1000007C1000005C100009B
:1001400003C1000001C10000FFC00000FDC00000AD
:10015000FBC00000F9C00000F7C00000F5C00000BF
:1001600036C60000DAC70000EFC0000066C6000017
:100170000C94D908E9C00000E7C00000E5C0000009
:10018000E3C00000E1C00000DFC00000DDC00000EF
:10019000DBC00000D9C00000D7C00000D5C00000FF
:1001A000D3C00000D1C00000CFC00000CDC000000F
:1001B000CBC00000C9C00000C7C00000C5C000001F
:1001C000C3C00000C1C00000BFC00000BDC000002F
:1001D000BBC00000B9C00000B7C000009AC6000054
:1001E0000C947109B1C00000CAC600000C94BD098E
:1001F000ABC00000A9C00000A7C000006E616E0087
:10020000696E660000407A10F35A00A0724E180919
:100210000010A5D4E80000E87648170000E40B546D
:10022000020000CA9A3B000000E1F505000080963C
:100230009800000040420F000000A086010000006E
:10024000102700000000E803000000006400000028
:1002500000000A00000000000100000000002C76F1
:10026000D888DC674F0823DFC1DFAE59E1B1B7960C
:10027000E5E3E453C63AE651997696E8E6C2842669
:10028000EB898C9B62ED407C6FFCEFBC9C9F40F245
:10029000BAA56FA5F490055A2AF75C936B6CF967C1
:1002A0006DC11BFCE0E40D47FEF520E6B500D0ED86
:1002B000902E0300943577050080841E08000020EE
:1002C0004E0A000000C80C333333330F986E12838C
:1002D0001141EF8D2114893BE65516CFFEE6DB1860
:1002E000D1844B381BF77C1D901DA4BBE424203225
:1002F00084725E228100C9F124ECA1E53D2711241E
:100300001FBECFEFDFE3DEBFCDBF00E00CBF18BEE6
:1003100019BE1ABE1BBE13E2A0E0B0E2ECE5F2E2A9
:1003200000E00BBF02C007900D92A03FB107D9F7C4
:100330001BBE26E2A0EFB3E201C01D92A932B207B4
:10034000E1F748D40C942C115BCECF92DF92EF9260
:10035000FF920F931F93CF93DF9380E20E94F00AE6
:10036000C0E0D2E08C8781E20E94F00A8D8788E1AC
:10037000F82EF98200E10A8397E0C92ECC8211E0C1
:1003800018A318A718AB18AF19A288E089A709AB62
:10039000F9AE1AA31AA71AAB1AAF20ECD22EDB8241
:1003A0003DE3E32EE88284E20E94F00AC0E4D2E05A
:1003B0008C8785E20E94F00A8D87F9820A83CC82BD
:1003C00018A318A718AB18AF80E689A388E689A7F9
:1003D00080E789AB88E789AF1AA31AA71AAB1AAFCF
:1003E000DB82E882E0EAF0E0828181688283DF914B
:1003F000CF911F910F91FF90EF90DF90CF900895D4
:100400001F920F920FB60F92112408B60F9218BECA
:1004100009B60F9219BE0AB60F921ABE0BB60F920A
:100420001BBE2F938F939F93AF93BF93CF93DF9375
:10043000EF93FF93A0EFB3E22C912F70E22FF0E047
:10044000C0E0D2E08CA19DA1EE0FFF1FE850FC4D53
:10045000808391832F5F2F708C91807F822B8C9370
:10046000FF91EF91DF91CF91BF91AF919F918F91CC
:100470002F910F900BBE0F900ABE0F9009BE0F90E8
:1004800008BE0F900FBE0F901F9018951F920F92ED
:100490000FB60F92112408B60F9218BE09B60F922C
:1004A00019BE0AB60F921ABE0BB60F921BBE2F933F
:1004B0008F939F93AF93BF93CF93DF93EF93FF936C
:1004C000A1EFB3E22C912F70E22FF0E0C0E0D2E078
:1004D0008CA59DA5EE0FFF1FE85EFB4D80839183E9
:1004E0002F5F2F708C91807F822B8C93FF91EF91E7
:1004F000DF91CF91BF91AF919F918F912F910F90ED
:100500000BBE0F900ABE0F9009BE0F9008BE0F9051
:100510000FBE0F901F9018951F920F920FB60F925B
:10052000112408B60F9218BE09B60F9219BE0AB66A
:100530000F921ABE0BB60F921BBE2F938F939F93F1
:10054000AF93BF93CF93DF93EF93FF93A2EFB3E209
:100550002C912F70E22FF0E0C0E0D2E08CA99DA991
:10056000EE0FFF1FE85CFB4D808391832F5F2F70A0
:100570008C91807F822B8C93FF91EF91DF91CF91B3
:10058000BF91AF919F918F912F910F900BBE0F90C4
:100590000ABE0F9009BE0F9008BE0F900FBE0F90BD
:1005A0001F9018951F920F920FB60F92112408B644
:1005B0000F9218BE09B60F9219BE0AB60F921ABE54
:1005C0000BB60F921BBE2F938F939F93AF93BF9346
:1005D000CF93DF93EF93FF93A3EFB3E22C912F70B0
:1005E000E22FF0E0C0E0D2E08CAD9DADEE0FFF1F3A
:1005F000E85AFB4D808391832F5F2F708C91807F11
:10060000822B8C93FF91EF91DF91CF91BF91AF91AE
:100610009F918F912F910F900BBE0F900ABE0F905C
:1006200009BE0F9008BE0F900FBE0F901F90189537
:100630001F920F920FB60F92112408B60F9218BE98
:1006400009B60F9219BE0AB60F921ABE0BB60F92D8
:100650001BBE2F938F939F93AF93BF93CF93DF9343
:10066000EF93FF93A4EFB3E22C912F70E22FF0E011
:10067000C0E4D2E08CA19DA1EE0FFF1FE858FB4D16
:10068000808391832F5F2F708C91807F822B8C933E
:10069000FF91EF91DF91CF91BF91AF919F918F919A
:1006A0002F910F900BBE0F900ABE0F9009BE0F90B6
:1006B00008BE0F900FBE0F901F9018951F920F92BB
:1006C0000FB60F92112408B60F9218BE09B60F92FA
:1006D00019BE0AB60F921ABE0BB60F921BBE2F930D
:1006E0008F939F93AF93BF93CF93DF93EF93FF933A
:1006F000A5EFB3E22C912F70E22FF0E0C0E4D2E03E
:100700008CA59DA5EE0FFF1FE856FB4D80839183BE
:100710002F5F2F708C91807F822B8C93FF91EF91B4
:10072000DF91CF91BF91AF919F918F912F910F90BA
:100730000BBE0F900ABE0F9009BE0F9008BE0F901F
:100740000FBE0F901F9018951F920F920FB60F9229
:10075000112408B60F9218BE09B60F9219BE0AB638
:100760000F921ABE0BB60F921BBE2F938F939F93BF
:10077000AF93BF93CF93DF93EF93FF93A6EFB3E2D3
:100780002C912F70E22FF0E0C0E4D2E08CA99DA95B
:10079000EE0FFF1FE854FB4D808391832F5F2F7076
:1007A0008C91807F822B8C93FF91EF91DF91CF9181
:1007B000BF91AF919F918F912F910F900BBE0F9092
:1007C0000ABE0F9009BE0F9008BE0F900FBE0F908B
:1007D0001F9018951F920F920FB60F92112408B612
:1007E0000F9218BE09B60F9219BE0AB60F921ABE22
:1007F0000BB60F921BBE2F938F939F93AF93BF9314
:10080000CF93DF93EF93FF93A7EFB3E22C912F7079
:10081000E22FF0E0C0E4D2E08CAD9DADEE0FFF1F03
:10082000E852FB4D808391832F5F2F708C91807FE6
:10083000822B8C93FF91EF91DF91CF91BF91AF917C
:100840009F918F912F910F900BBE0F900ABE0F902A
:1008500009BE0F9008BE0F900FBE0F901F90189505
:1008600088E08093810644E04093820680EE95E222
:100870008093FA249093FB2480E095E28093F824FF
:100880009093F9248093FC249093FD248093FE247C
:100890009093FF248CE08093A40A33E03093A50A60
:1008A00080EC8093A60A87EA8093A70A80E1809370
:1008B000920621E02093890640938A0680E197E220
:1008C0008093660A9093670A85E08093400A30938C
:1008D000410A2093460A8091A20081608093A20081
:1008E000A1EEB5E280E090E0FC01EE0FFF1FE80F03
:1008F000F91FED51FA4D20812F7720831D921C9214
:1009000011972081206420830196139688319105E8
:1009100059F70895E091FE24F091FF248091FA2484
:100920009091FB24E817F90789F4208110828091C7
:10093000F8249091F9248093FE249093FF248091D1
:10094000A10A85FFFCCF2093A00A08958091A10AF7
:1009500085FFFCCF80818093A00A1192E093FE2452
:10096000F093FF240895E091FC24F091FD24209160
:10097000FA243091FB24E217F30751F4808380912D
:10098000F8249091F9248093FC249093FD240895F9
:100990008193E093FC24F093FD24089581E040913D
:1009A000FC245091FD242091FE243091FF24421715
:1009B000530709F480E008951F920F920FB60F922B
:1009C000112408B60F9218BE09B60F9219BE0BB6C5
:1009D0000F921BBE2F933F934F935F936F937F9321
:1009E0008F939F93AF93BF93EF93FF93F894D6DFCA
:1009F000882319F080E090E08DDF7894FF91EF91EB
:100A0000BF91AF919F918F917F916F915F914F9126
:100A10003F912F910F900BBE0F9009BE0F9008BE13
:100A20000F900FBE0F901F9018951F920F920FB648
:100A30000F92112408B60F9218BE09B60F9219BE74
:100A40000AB60F921ABE0BB60F921BBEDF92EF9240
:100A5000FF920F931F932F933F934F935F936F9347
:100A60007F938F939F93AF93BF93CF93DF93EF9336
:100A7000FF93F89441EEE42E45E2F42E03EE15E2E6
:100A8000C0E0D0E0FE01EE0FFF1FEC0FFD1FED51A7
:100A9000FA4D808186FF09C0D8018C918F5F8C93BD
:100AA00080FF12C080818F7B0EC08C2F5CDFF7012E
:100AB000818159DFD7018C9156DF8C2F806853DFFD
:100AC0008C2F8054F80180832196F3E0EF0EF11C07
:100AD0000D5F1F4FC831D105A9F67894FF91EF91B2
:100AE000DF91CF91BF91AF919F918F917F916F9146
:100AF0005F914F913F912F911F910F91FF90EF9038
:100B0000DF900F900BBE0F900ABE0F9009BE0F90A2
:100B100008BE0F900FBE0F901F9018950F931F9354
:100B2000CF93DF93962F653B08F094EB8150682FAD
:100B300070E0EB01CC0FDD1FC60FD71F8E010F51E8
:100B40001A4D8FE0989FB0011124882777FD80957A
:100B5000982FE2D520E030E041E654E44BD5AED505
:100B6000F80160837183CD51DA4D888180688F7B75
:100B70008883DF91CF911F910F910895809150004C
:100B80008660809350008091510081FFFCCF80915E
:100B9000510082FFF8CF88ED84BF81E08093400050
:100BA00082E01ED58093540083E01AD580936300C1
:100BB00084E016D580936200109256008091600008
:100BC00081608093600082E1809364008AE7809373
:100BD0006500089502D00ED0FECFD0DF41DE40E0A8
:100BE00052EC61E070E080EA98E013D4AEDB4CD0C8
:100BF00078940895CF93DF93D0E012C06D2F8C2F9F
:100C00008DDFCF5FC931D1F72FEF83EF91E0215016
:100C100080409040E1F700C00000DF5FD43BA1F0CE
:100C2000C1E0ECCF6D2F8C2F79DFCF5FC931D1F7C9
:100C30002FEF83EF91E0215080409040E1F700C01A
:100C40000000D15011F403C0D4EBC1E0EBCFDF9131
:100C5000CF9108959C018091010480FDFCCF80918B
:100C60000304816080930304C90164E170E00E9481
:100C7000A00F620F731F60930A0470930B0410920D
:100C800008041092090408958091010480FDFCCFAE
:100C9000809143008D608093430085E08093000441
:100CA000109208041092090481E090E0D3CFFC0177
:100CB000A681B781228133818C91A217B30729F4D1
:100CC000208131812683378308951196A683B783C7
:100CD0000895FC01A481B58182819381A817B90789
:100CE00031F46C93808191818483958308956D9311
:100CF000A483B58308951F920F920FB60F9211240B
:100D000008B60F9218BE09B60F9219BE0BB60F9215
:100D10001BBE2F933F934F935F936F937F938F935C
:100D20009F93AF93BF93EF93FF936091A00888EADE
:100D300093E2CFDFFF91EF91BF91AF919F918F91A0
:100D40007F916F915F914F913F912F910F900BBECB
:100D50000F9009BE0F9008BE0F900FBE0F901F900E
:100D600018951F920F920FB60F92112408B60F928A
:100D700018BE09B60F9219BE0BB60F921BBE2F9369
:100D80003F934F935F936F937F938F939F93AF9313
:100D9000BF93EF93FF936091B00888E193E299DFEE
:100DA000FF91EF91BF91AF919F918F917F916F9143
:100DB0005F914F913F912F910F900BBE0F9009BE05
:100DC0000F9008BE0F900FBE0F901F9018951F92A6
:100DD0000F920FB60F92112408B60F9218BE09B6E3
:100DE0000F9219BE0BB60F921BBE2F933F934F93DA
:100DF0005F936F937F938F939F93AF93BF93EF9383
:100E0000FF936091A00988E892E263DFFF91EF9180
:100E1000BF91AF919F918F917F916F915F914F9112
:100E20003F912F910F900BBE0F9009BE0F9008BEFF
:100E30000F900FBE0F901F9018951F920F920FB634
:100E40000F92112408B60F9218BE09B60F9219BE60
:100E50000BB60F921BBE2F933F934F935F936F93ED
:100E60007F938F939F93AF93BF93EF93FF93609183
:100E7000B00988EF91E22DDFFF91EF91BF91AF9123
:100E80009F918F917F916F915F914F913F912F91A2
:100E90000F900BBE0F9009BE0F9008BE0F900FBEB3
:100EA0000F901F9018951F920F920FB60F9211245A
:100EB00008B60F9218BE09B60F9219BE0BB60F9264
:100EC0001BBE2F933F934F935F936F937F938F93AB
:100ED0009F93AF93BF93EF93FF936091B00A88E61F
:100EE00091E2F7DEFF91EF91BF91AF919F918F91CA
:100EF0007F916F915F914F913F912F910F900BBE1A
:100F00000F9009BE0F9008BE0F900FBE0F901F905C
:100F100018951F920F920FB60F92112408B60F92D8
:100F200018BE09B60F9219BE0BB60F921BBE2F93B7
:100F30003F934F935F936F937F938F939F93AF9361
:100F4000BF93EF93FF936091A00B88ED90E2C1DE19
:100F5000FF91EF91BF91AF919F918F917F916F9191
:100F60005F914F913F912F910F900BBE0F9009BE53
:100F70000F9008BE0F900FBE0F901F9018951F92F4
:100F80000F920FB60F92112408B60F9218BE09B631
:100F90000F9219BE0BB60F921BBE2F933F934F9328
:100FA0005F936F937F938F939F93AF93BF93EF93D1
:100FB000FF936091B00B88E490E28BDEFF91EF919C
:100FC000BF91AF919F918F917F916F915F914F9161
:100FD0003F912F910F900BBE0F9009BE0F9008BE4E
:100FE0000F900FBE0F901F9018951F920F920FB683
:100FF0000F92112408B60F9218BE09B60F9219BEAF
:101000000BB60F921BBE2F933F934F935F936F933B
:101010007F938F939F93AF93BF93EF93FF93F89436
:1010200020916423309165238091662390916723FA
:101030002817390719F408C078940CC080E693E2A9
:1010400036DE8093A008F8CF8091A3088C7F809330
:10105000A308F2CFFF91EF91BF91AF919F918F9134
:101060007F916F915F914F913F912F910F900BBEA8
:101070000F9009BE0F9008BE0F900FBE0F901F90EB
:1010800018951F920F920FB60F92112408B60F9267
:1010900018BE09B60F9219BE0BB60F921BBE2F9346
:1010A0003F934F935F936F937F938F939F93AF93F0
:1010B000BF93EF93FF93F8942091D4223091D522DF
:1010C0008091D6229091D7222817390719F408C0A9
:1010D00078940CC080ED92E2EADD8093B008F8CFFE
:1010E0008091B3088C7F8093B308F2CFFF91EF918A
:1010F000BF91AF919F918F917F916F915F914F9130
:101100003F912F910F900BBE0F9009BE0F9008BE1C
:101110000F900FBE0F901F9018951F920F920FB651
:101120000F92112408B60F9218BE09B60F9219BE7D
:101130000BB60F921BBE2F933F934F935F936F930A
:101140007F938F939F93AF93BF93EF93FF93F89405
:10115000209144223091452280914622909147224D
:101160002817390719F408C078940CC080E492E27B
:101170009EDD8093A009F8CF8091A3098C7F809396
:10118000A309F2CFFF91EF91BF91AF919F918F9102
:101190007F916F915F914F913F912F910F900BBE77
:1011A0000F9009BE0F9008BE0F900FBE0F901F90BA
:1011B00018951F920F920FB60F92112408B60F9236
:1011C00018BE09B60F9219BE0BB60F921BBE2F9315
:1011D0003F934F935F936F937F938F939F93AF93BF
:1011E000BF93EF93FF93F8942091B4213091B521F0
:1011F0008091B6219091B7212817390719F408C0BA
:1012000078940CC080EB91E252DD8093B009F8CF66
:101210008091B3098C7F8093B309F2CFFF91EF9156
:10122000BF91AF919F918F917F916F915F914F91FE
:101230003F912F910F900BBE0F9009BE0F9008BEEB
:101240000F900FBE0F901F9018951F920F920FB620
:101250000F92112408B60F9218BE09B60F9219BE4C
:101260000BB60F921BBE2F933F934F935F936F93D9
:101270007F938F939F93AF93BF93EF93FF93F894D4
:1012800020912421309125218091262190912721A0
:101290002817390719F408C078940CC080E291E24D
:1012A00006DD8093B00AF8CF8091B30A8C7F8093DB
:1012B000B30AF2CFFF91EF91BF91AF919F918F91C0
:1012C0007F916F915F914F913F912F910F900BBE46
:1012D0000F9009BE0F9008BE0F900FBE0F901F9089
:1012E00018951F920F920FB60F92112408B60F9205
:1012F00018BE09B60F9219BE0BB60F921BBE2F93E4
:101300003F934F935F936F937F938F939F93AF938D
:10131000BF93EF93FF93F894209194203091952000
:1013200080919620909197202817390719F408C0CA
:1013300078940CC080E990E2BADC8093A00BF8CFDF
:101340008091A30B8C7F8093A30BF2CFFF91EF9141
:10135000BF91AF919F918F917F916F915F914F91CD
:101360003F912F910F900BBE0F9009BE0F9008BEBA
:101370000F900FBE0F901F9018951F920F920FB6EF
:101380000F92112408B60F9218BE09B60F9219BE1B
:101390000BB60F921BBE2F933F934F935F936F93A8
:1013A0007F938F939F93AF93BF93EF93FF93F894A3
:1013B00020910420309105208091062090910720F3
:1013C0002817390719F408C078940CC080E090E21F
:1013D0006EDC8093B00BF8CF8091B30B8C7F809341
:1013E000B30BF2CFFF91EF91BF91AF919F918F918E
:1013F0007F916F915F914F913F912F910F900BBE15
:101400000F9009BE0F9008BE0F900FBE0F901F9057
:101410001895FC01E03B89E0F80719F168F4E03B1E
:1014200088E0F807C1F0E03A89E0F807C1F0E03A57
:1014300088E0F80719F50DC0E03A8BE0F807C9F02D
:10144000E03B8BE0F807B9F0E03B8AE0F807B1F445
:101450000CC088E001C080E8809341060FC088E09E
:1014600001C080E88093610609C080E8809381060E
:1014700005C088E001C080E88093A1068091A200A9
:1014800083608093A200838180628383403880E7F9
:1014900058076105710509F464C024F5403885E2F8
:1014A00058076105710509F492C074F4403B84E06B
:1014B00058076105710509F441C0403C524161057E
:1014C000710509F084C041C0403488E358076105C4
:1014D000710509F442C041155B446105710509F0CD
:1014E00076C03DC0411581EE58076105710509F4CC
:1014F0004EC06CF4411586E9580761057105C9F1C4
:10150000403C5A4D6105710509F061C03AC048344C
:1015100088EE580781E06807710509F448C0411555
:1015200084E8580783E06807710509F448C041154D
:10153000524C6140710509F04AC031C088E1848392
:1015400083E0858386838DEC49C088E1848383E0D2
:1015500085838DEF86838CED41C088E103C08CE1EB
:1015600037C08CE1848383E085838EE9868388ECB1
:1015700035C08CE1848383E0858385EE86838CEBA4
:101580002DC08CE1848383E085838EEC05C08CE1E3
:10159000848383E085838EE8868388EB1FC08CE19B
:1015A000848383E085838EE6868388EA17C08CE196
:1015B000848383E0858380EC868387EA0FC08CE197
:1015C000848383E085838EE2868388E907C088E18F
:1015D000848383E0858385EF86838CEC87830895FD
:1015E000AAECB1E092E09C93E82FF0E084911C9289
:1015F00008955058BB27AA270ED0E0C0D1D030F0B4
:10160000D6D020F031F49F3F11F41EF4C6C00EF482
:10161000E095E7FBBCC0E92FE2D080F3BA17620780
:1016200073078407950718F071F49EF5FAC00EF45D
:10163000E0950B2EBA2FA02D0B01B90190010C01E2
:10164000CA01A0011124FF27591B99F0593F50F4FA
:10165000503E68F11A16F040A22F232F342F442752
:10166000585FF3CF469537952795A795F04053954A
:10167000C9F77EF41F16BA0B620B730B840BBAF01A
:101680009150A1F0FF0FBB1F661F771F881FC2F785
:101690000EC0BA0F621F731F841F48F48795779599
:1016A0006795B795F7959E3F08F0B3CF9395880F50
:1016B00008F09927EE0F97958795089598D088F0B0
:1016C0009F5790F0B92F9927B751A0F0D1F0660F2E
:1016D000771F881F991F1AF0BA95C9F712C0B13049
:1016E00081F09FD0B1E008959CC0672F782F8827A4
:1016F000B85F39F0B93FCCF3869577956795B39588
:10170000D9F73EF490958095709561957F4F8F4FF6
:101710009F4F0895E89409C097FB3EF490958095FB
:10172000709561957F4F8F4F9F4F9923A9F0F92FA7
:1017300096E9BB279395F695879577956795B79525
:10174000F111F8CFFAF4BB0F11F460FF1BC06F5F0B
:101750007F4F8F4F9F4F16C0882311F096E911C01D
:10176000772321F09EE8872F762F05C0662371F03E
:1017700096E8862F70E060E02AF09A95660F771F52
:10178000881FDAF7880F9695879597F9089597F946
:101790009F6780E870E060E008959FEF80EC089517
:1017A00000240A9416161706180609060895002440
:1017B0000A9412161306140605060895092E0394BA
:1017C000000C11F4882352F0BB0F40F4BF2B11F42E
:1017D00060FF04C06F5F7F4F8F4F9F4F089557FD8D
:1017E0009058440F551F59F05F3F71F04795880F8F
:1017F00097FB991F61F09F3F79F087950895121626
:1018000013061406551FF2CF4695F1DF08C01616D1
:1018100017061806991FF1CF869571056105089482
:101820000895E894BB2766277727CB0197F9089599
:101830002F923F924F925F926F927F928F929F92E0
:10184000AF92BF92CF92DF92EF92FF920F931F93CE
:10185000CF93DF93CDB7DEB76297CDBFDEBF7C01FC
:101860001B016A01FC0116821782838181FD03C07E
:101870004EC3650105C088248394912C8C0E9D1E57
:10188000F7019381F10193FD859193FF81911F01F0
:10189000882309F438C3853239F493FD859193FF89
:1018A00081911F01853229F4B70190E04BD4560194
:1018B000E0CF712C612C20E02032A8F48B3261F053
:1018C00028F4803251F0833271F40BC08D3239F03C
:1018D000803349F4216028C02260246025C028603C
:1018E00023C0206121C027FD27C0382F30533A3054
:1018F00078F426FF06C0FAE07F9E300D1124732E87
:1019000013C04AE0649E300D1124632E20620CC087
:101910008E3221F426FDF7C2206406C08C3611F405
:10192000206802C0883641F4F10193FD859193FF50
:1019300081911F018111C0CF982F9554933018F4D5
:101940002061805E06C0982F9556933008F094C1B0
:101950002F7E26FD02C016E0712EBFE35B2E5222C1
:10196000853619F4F0E45F2A07C0863619F440E89A
:10197000542A02C071107A9457FE07C05BE35715D2
:1019800048F0472C439427E00DC087E0871530F0DE
:10199000272D07C027E0ACE34A2E04C027E0F7E07C
:1019A0007F2E412C560194E0A90EB11CF6016081F6
:1019B000718182819381042DA401D6D28C01498149
:1019C0004C8740FF02C043FF07C051FC08C052FED5
:1019D00009C0E0E2DE2E07C07DE2D72E04C06BE234
:1019E000D62E01C0D12C8C858C7089F1DD2011F0B0
:1019F00084E001C083E0861510F0612C0AC0681AEB
:101A000053FC07C0B70180E290E09CD36A94D1F701
:101A1000F4CFDD2021F0B7018D2D90E093D35C85CC
:101A200053FD03C000E012E00BC00CEF11E008C052
:101A300051108052B70190E085D30F5F1F4F02C055
:101A400080E15822F80184918111F2CF59C257FEEA
:101A50000EC0400E4C8544FF04C08A81813309F4D6
:101A60004A9414144CF558E0541548F12CC056FC17
:101A70002AC0872D90E08017910744F00C3F8FEF2C
:101A8000180724F090E8592A01C07A94772049F089
:101A9000E2E0F0E0EC0FFD1FE70DF11D80818033E7
:101AA000A1F357FE10C0472C4394872D90E00817F0
:101AB000190744F4701A07C04424439404C058E042
:101AC000452E01C0712C57FE07C0101611063CF4BC
:101AD00098012F5F3F4F05C025E030E002C021E0B4
:101AE00030E0DD2011F02F5F3F4F772031F0472DA0
:101AF00050E04F5F5F4F240F351F462D50E02417F5
:101B0000350714F4621A01C0612C852D897041F4E7
:101B100005C0B70180E290E015D36A946110F9CF57
:101B2000DD2021F0B7018D2D90E00CD353FC08C0CF
:101B300005C0B70180E390E005D36A946110F9CF46
:101B400057FE54C0680117FF02C0C12CD12C20E001
:101B500030E0A801441951094D875E8728014C18CF
:101B60005D08480C591C872D90E044275527481BD9
:101B7000590B4F87588B5FEFC516D50641F4B70157
:101B80008EE290E02A8B398BDDD239892A890C15B7
:101B90001D0554F04D855E854C155D052CF4F20154
:101BA000E20FF31F818101C080E351E0C51AD10823
:101BB0002F5F3F4F4F855889C416D50644F0B701B3
:101BC00090E02A8B398BBED22A893989D4CFC016AE
:101BD000D10649F49A81963328F4953321F45C8533
:101BE00054FD01C081E3B70190E044C08A81813394
:101BF00019F04C854F7E4C87B70190E0A3D271104D
:101C000005C054FE14C085E490E013C0B7018EE215
:101C100090E098D242E0D42EF401ED0DF11DD39462
:101C2000B701808190E08ED27A94B1F7EACF85E651
:101C300090E0B70187D217FD06C00115110541F4E8
:101C40005C8554FF05C01195019511098DE201C015
:101C50008BE2B70190E076D280E303C08F5F0A5039
:101C600011090A301105D4F7B70190E06BD2B70122
:101C7000C801C09667D244C1833631F0833781F002
:101C8000833509F05AC023C0560182E0A80EB11C6A
:101C9000F60180818983CC24C394D12C840113C0A4
:101CA0005601F2E0AF0EB11CF6010081118126FF52
:101CB00003C0672D70E002C06FEF7FEFC8012A8B71
:101CC00036D26C012A899FE7592E522216C056013E
:101CD000F2E0AF0EB11CF6010081118126FF03C0B6
:101CE000672D70E002C06FEF7FEFC8012A8B14D21E
:101CF0006C012A8980E8582E522A53FC1AC005C06C
:101D0000B70180E290E01ED26A94862D90E0C8165A
:101D1000D906B0F30EC0F80157FC859157FE8191AA
:101D20008F01B70190E00ED261106A94F1E0CF1AF2
:101D3000D108C114D10479F7E3C0843611F0893693
:101D400049F5560127FF09C044E0A40EB11CF60175
:101D500060817181828193810AC0F2E0AF0EB11C73
:101D6000F60160817181882777FD8095982F122F69
:101D70001F7697FF08C090958095709561957F4F6D
:101D80008F4F9F4F10682AE030E0A40107D2D82E71
:101D9000D8183FC0122F853721F41F7E2AE030E08B
:101DA0001FC0197F8F36A1F020F4883509F0ABC031
:101DB0000BC0803721F0883709F0A5C001C0106141
:101DC00014FF09C0146007C024FF08C0166006C0D5
:101DD00028E030E005C020E130E002C020E132E040
:101DE000560117FF09C0F4E0AF0EB11CF601608187
:101DF00071818281938108C0F2E0AF0EB11CF601BF
:101E00006081718180E090E0A401C8D1D82ED818FB
:101E10001F7716FF0BC0212F2E7FD71450F414FF0D
:101E20000AC012FD08C0212F2E7E05C00D2D212FC6
:101E300003C00D2D01C0072D24FF0CC0FE01ED0DC8
:101E4000F11D8081803311F4297E08C022FF05C076
:101E50000E5F04C0822F867809F00F5F23FD13C048
:101E600020FF0EC07D2C061558F4760C701A062D36
:101E700007C0B70180E290E02A8B64D10F5F2A8906
:101E80000615B8F304C0061510F4601A01C0612CE1
:101E900024FF11C0B70180E390E02A8B53D12A8937
:101EA00022FF1CC021FF03C088E590E002C088E744
:101EB00090E0B7010CC0822F867881F021FD02C02E
:101EC00080E201C08BE227FD8DE2B70190E03AD1BC
:101ED00005C0B70180E390E035D17A94D714C8F3F8
:101EE000DA94F401ED0DF11DB701808190E02AD163
:101EF000D110F6CF05C0B70180E290E023D16A94FB
:101F00006110F9CFB6CCF7012681378102C02FEFDF
:101F10003FEFC9016296CDBFDEBFDF91CF911F9128
:101F20000F91FF90EF90DF90CF90BF90AF909F9078
:101F30008F907F906F905F904F903F902F9008957B
:101F4000AA1BBB1B51E107C0AA1FBB1FA617B707DF
:101F500010F0A61BB70B881F991F5A95A9F78095FB
:101F60009095BC01CD010895283008F027E0332773
:101F7000DA01990F311D87FD9160009661057105A9
:101F800039F432602E5F3D9330E32A95E1F70895EE
:101F90009F3F30F080387105610509F03C5F3C5F80
:101FA0003D93913008F08068911DDF93CF931F938C
:101FB0000F93FF92EF92192F987F9695E92F9695A0
:101FC0009695E90FFF27E25AFD4F99273327EE2414
:101FD000FF24A701E70105900894079428F4360F21
:101FE000E71EF81E491F511D660F771F881F991F96
:101FF0000694A1F70590079428F4E70EF81E491FF0
:10200000561FC11D770F881F991F661F0694A1F7E1
:102010000590079428F4F80E491F561FC71FD11DBD
:10202000880F991F661F771F0694A1F705900794E4
:1020300020F4490F561FC71FD81F990F661F771F1F
:10204000881F0694A9F784911095177041F0D695D2
:10205000C79557954795F794E7941A95C1F7E4E02B
:10206000F2E06894159015913591659195910590E0
:102070007FE27395E118F10A430B560BC90BD009A7
:10208000C0F7E10CF11E431F561FC91FD01D7EF47F
:10209000703311F48A95E6CFE894015030F0080FC0
:1020A0000AF40027021708F4202F2395022F7A3311
:1020B00028F079E37D932A95E9F710C07D932A955E
:1020C00089F6069497956795379517951794E118B3
:1020D000F10A430B560BC90BD00998F023957E915A
:1020E00073957A3308F070E37C932013B8F77E91F0
:1020F00070617D9330F0839571E37D9370E32A9551
:10210000E1F71124EF90FF900F911F91CF91DF9194
:10211000992787FD90950895FC01059061507040C6
:102120000110D8F7809590958E0F9F1F0895FC01A0
:102130006150704001900110D8F7809590958E0FF6
:102140009F1F08950F931F93CF93DF938C01EB0193
:102150008B8181FD03C00FEF1FEF1AC082FF0DC0FE
:102160002E813F818C819D812817390764F4E88195
:10217000F9810193E883F98306C0E885F985802F0A
:102180001995892B41F78E819F8101968E839F83BC
:10219000C801DF91CF911F910F910895FA01AA27ED
:1021A000283051F1203181F1E8946F936E7F6E5F9A
:1021B0007F4F8F4F9F4FAF4FB1E03ED0B4E03CD048
:1021C000670F781F891F9A1FA11D680F791F8A1F2B
:1021D000911DA11D6A0F711D811D911DA11D20D092
:1021E00009F468943F912AE0269F11243019305D4C
:1021F0003193DEF6CF010895462F4770405D41933D
:10220000B3E00FD0C9F7F6CF462F4F70405D4A3389
:1022100018F0495D31FD4052419302D0A9F7EACF51
:10222000B4E0A6959795879577956795BA95C9F780
:1022300000976105710508959B01AC010A2E069473
:102240005795479537952795BA95C9F7620F731F2C
:0C225000841F951FA01D0895F894FFCF77
:10225C000820472008200820000000000000000093
:10226C000000000000000000000000000000000062
:10227C000000000000000000000000000000000052
:10228C000000000000000000000000000000000042
:10229C00000000000000000050208F205020502033
:1022AC000000000000000000000000000000000022
:1022BC000000000000000000000000000000000012
:1022CC000000000000000000000000000000000002
:1022DC0000000000000000000000000000000000F2
:1022EC009820D720982098200000000000000000C3
:1022FC0000000000000000000000000000000000D2
:10230C0000000000000000000000000000000000C1
:10231C0000000000000000000000000000000000B1
:10232C000000000000000000E0201F21E020E02061
:10233C000000000000000000000000000000000091
:10234C000000000000000000000000000000000081
:10235C000000000000000000000000000000000071
:10236C000000000000000000000000000000000061
:10237C0028216721282128210000000000000000EE
:10238C000000000000000000000000000000000041
:10239C000000000000000000000000000000000031
:1023AC000000000000000000000000000000000021
:1023BC0000000000000000007021AF21702170218E
:1023CC000000000000000000000000000000000001
:1023DC0000000000000000000000000000000000F1
:1023EC0000000000000000000000000000000000E1
:1023FC0000000000000000000000000000000000D1
:10240C00B821F721B821B82100000000000000001D
:10241C0000000000000000000000000000000000B0
:10242C0000000000000000000000000000000000A0
:10243C000000000000000000000000000000000090
:10244C00000000000000000000223F2200220022B9
:10245C000000000000000000000000000000000070
:10246C000000000000000000000000000000000060
:10247C000000000000000000000000000000000050
:10248C000000000000000000000000000000000040
:10249C004822872248224822000000000000000049
:1024AC000000000000000000000000000000000020
:1024BC000000000000000000000000000000000010
:1024CC000000000000000000000000000000000000
:1024DC0000000000000000009022CF2290229022E9
:1024EC0000000000000000000000000000000000E0
:1024FC0000000000000000000000000000000000D0
:10250C0000000000000000000000000000000000BF
:10251C0000000000000000000000000000000000AF
:10252C00D8221723D822D822000000000000000077
:10253C00000000000000000000000000000000008F
:10254C00000000000000000000000000000000007F
:10255C00000000000000000000000000000000006F
:10256C00000000000000000020235F232023202314
:10257C00000000000000000000000000000000004F
:10258C00000000000000000000000000000000003F
:10259C00000000000000000000000000000000002F
:1025AC00000000000000000000000000000000001F
:1025BC006823A723682368230000000000000000A4
:1025CC0000000000000000000000000000000000FF
:1025DC0000000000000000000000000000000000EF
:1025EC0000000000000000000000000000000000DF
:1025FC000000000000000000B023EF23B023B02344
:10260C0000000000000000000000000000000000BE
:10261C0000000000000000000000000000000000AE
:10262C00000000000000000000000000000000009E
:10263C00000000000000000000000000000000008E
:00000001FF
