:100000007EC10000A1C100009FC100009DC1000091
:100010009BC1000099C1000097C1000095C100007C
:1000200093C1000091C100008FC100008DC100008C
:100030008BC1000089C1000087C1000085C100009C
:1000400083C1000081C100007FC100007DC10000AC
:100050007BC1000079C1000077C1000075C10000BC
:1000600073C10000E5C400005DC600006DC1000062
:1000700015C50000A3C6000067C1000065C10000EF
:1000800063C1000061C100005FC100005DC10000EC
:100090005BC1000059C1000057C100006EC20000E2
:1000A000B2C20000F6C200003AC30000D1C3000093
:1000B0004BC1000049C1000047C1000045C100001C
:1000C00043C1000041C100003FC100003DC100002C
:1000D0003BC10000F6C3000037C1000035C100007D
:1000E00033C1000031C100002FC100002DC100004C
:1000F0002BC1000075C5000045C7000025C10000E8
:1001000023C1000021C100001FC100001DC100006B
:100110001BC1000019C1000017C1000016C100007A
:100120005AC100009EC10000E2C100000DC10000E4
:100130000BC1000009C1000007C1000005C100009B
:1001400003C1000001C10000FFC00000FDC00000AD
:10015000FBC00000F9C00000F7C00000F5C00000BF
:10016000D3C4000077C60000EFC0000003C5000044
:10017000BDC60000E9C00000E7C00000E5C0000007
:10018000E3C00000E1C00000DFC00000DDC00000EF
:10019000DBC00000D9C00000D7C00000D5C00000FF
:1001A000D3C00000D1C00000CFC00000CDC000000F
:1001B000CBC00000C9C00000C7C00000C5C000001F
:1001C000C3C00000C1C00000BFC00000BDC000002F
:1001D000BBC00000B9C00000B7C0000037C50000B8
:1001E0001DC70000B1C0000067C5000063C7000064
:1001F000ABC00000A9C00000A7C000006E616E0087
:10020000696E660000407A10F35A00A0724E180919
:100210000010A5D4E80000E87648170000E40B546D
:10022000020000CA9A3B000000E1F505000080963C
:100230009800000040420F000000A086010000006E
:10024000102700000000E803000000006400000028
:1002500000000A00000000000100000000002C76F1
:10026000D888DC674F0823DFC1DFAE59E1B1B7960C
:10027000E5E3E453C63AE651997696E8E6C2842669
:10028000EB898C9B62ED407C6FFCEFBC9C9F40F245
:10029000BAA56FA5F490055A2AF75C936B6CF967C1
:1002A0006DC11BFCE0E40D47FEF520E6B500D0ED86
:1002B000902E0300943577050080841E08000020EE
:1002C0004E0A000000C80C333333330F986E12838C
:1002D0001141EF8D2114893BE65516CFFEE6DB1860
:1002E000D1844B381BF77C1D901DA4BBE424203225
:1002F00084725E228100C9F124ECA1E53D2711241E
:100300001FBECFEFDFE3DEBFCDBF00E00CBF18BEE6
:1003100019BE1ABE1BBE14E2A0E0B0E2EEE6FBE19D
:1003200000E00BBF02C007900D92A830B107D9F7CB
:100330001BBE26E2A8E0B4E201C01D92A134B207C0
:10034000E1F74DD30C94B50D5BCE1F920F920FB613
:100350000F92112408B60F9218BE09B60F9219BE5B
:100360000AB60F921ABE0BB60F921BBE2F938F9335
:100370009F93AF93BF93CF93DF93EF93FF93A8E047
:10038000B4E22C912F70E22FF0E0C0E0D2E08CA11B
:100390009DA1EE0FFF1FE05FFB4D808391832F5FD8
:1003A0002F708C91807F822B8C93FF91EF91DF9146
:1003B000CF91BF91AF919F918F912F910F900BBED5
:1003C0000F900ABE0F9009BE0F9008BE0F900FBE8F
:1003D0000F901F9018951F920F920FB60F92112435
:1003E00008B60F9218BE09B60F9219BE0AB60F9240
:1003F0001ABE0BB60F921BBE2F938F939F93AF9392
:10040000BF93CF93DF93EF93FF93A9E0B4E22C91D6
:100410002F70E22FF0E0C0E0D2E08CA59DA5EE0F9A
:10042000FF1FE05DFB4D808391832F5F2F708C91C8
:10043000807F822B8C93FF91EF91DF91CF91BF91C1
:10044000AF919F918F912F910F900BBE0F900ABE8D
:100450000F9009BE0F9008BE0F900FBE0F901F9017
:1004600018951F920F920FB60F92112408B60F9293
:1004700018BE09B60F9219BE0AB60F921ABE0BB675
:100480000F921BBE2F938F939F93AF93BF93CF93E6
:10049000DF93EF93FF93AAE0B4E22C912F70E22F49
:1004A000F0E0C0E0D2E08CA99DA9EE0FFF1FE05B59
:1004B000FB4D808391832F5F2F708C91807F822BE7
:1004C0008C93FF91EF91DF91CF91BF91AF919F916D
:1004D0008F912F910F900BBE0F900ABE0F9009BE07
:1004E0000F9008BE0F900FBE0F901F9018951F928F
:1004F0000F920FB60F92112408B60F9218BE09B6CC
:100500000F9219BE0AB60F921ABE0BB60F921BBEFF
:100510002F938F939F93AF93BF93CF93DF93EF93DB
:10052000FF93ABE0B4E22C912F70E22FF0E0C0E03B
:10053000D2E08CAD9DADEE0FFF1FE059FB4D8083E7
:1005400091832F5F2F708C91807F822B8C93FF91F2
:10055000EF91DF91CF91BF91AF919F918F912F91AB
:100560000F900BBE0F900ABE0F9009BE0F9008BEF1
:100570000F900FBE0F901F9018951F920F920FB6FD
:100580000F92112408B60F9218BE09B60F9219BE29
:100590000AB60F921ABE0BB60F921BBE2F938F9303
:1005A0009F93AF93BF93CF93DF93EF93FF93ACE011
:1005B000B4E22C912F70E22FF0E0C0E4D2E08CA1E5
:1005C0009DA1EE0FFF1FE057FB4D808391832F5FAE
:1005D0002F708C91807F822B8C93FF91EF91DF9114
:1005E000CF91BF91AF919F918F912F910F900BBEA3
:1005F0000F900ABE0F9009BE0F9008BE0F900FBE5D
:100600000F901F9018951F920F920FB60F92112402
:1006100008B60F9218BE09B60F9219BE0AB60F920D
:100620001ABE0BB60F921BBE2F938F939F93AF935F
:10063000BF93CF93DF93EF93FF93ADE0B4E22C91A0
:100640002F70E22FF0E0C0E4D2E08CA59DA5EE0F64
:10065000FF1FE055FB4D808391832F5F2F708C919E
:10066000807F822B8C93FF91EF91DF91CF91BF918F
:10067000AF919F918F912F910F900BBE0F900ABE5B
:100680000F9009BE0F9008BE0F900FBE0F901F90E5
:1006900018951F920F920FB60F92112408B60F9261
:1006A00018BE09B60F9219BE0AB60F921ABE0BB643
:1006B0000F921BBE2F938F939F93AF93BF93CF93B4
:1006C000DF93EF93FF93AEE0B4E22C912F70E22F13
:1006D000F0E0C0E4D2E08CA99DA9EE0FFF1FE0532B
:1006E000FB4D808391832F5F2F708C91807F822BB5
:1006F0008C93FF91EF91DF91CF91BF91AF919F913B
:100700008F912F910F900BBE0F900ABE0F9009BED4
:100710000F9008BE0F900FBE0F901F9018951F925C
:100720000F920FB60F92112408B60F9218BE09B699
:100730000F9219BE0AB60F921ABE0BB60F921BBECD
:100740002F938F939F93AF93BF93CF93DF93EF93A9
:10075000FF93AFE0B4E22C912F70E22FF0E0C0E401
:10076000D2E08CAD9DADEE0FFF1FE051FB4D8083BD
:1007700091832F5F2F708C91807F822B8C93FF91C0
:10078000EF91DF91CF91BF91AF919F918F912F9179
:100790000F900BBE0F900ABE0F9009BE0F9008BEBF
:1007A0000F900FBE0F901F901895E0911625F091B5
:1007B00017258091122590911325E817F90789F4E0
:1007C000208110828091102590911125809316250B
:1007D000909317258091A10A85FFFCCF2093A00A52
:1007E00008958091A10A85FFFCCF80818093A00AA3
:1007F0001192E0931625F09317250895E0911425A2
:10080000F09115252091122530911325E217F30759
:1008100051F48083809110259091112580931425A7
:100820009093152508958193E0931425F093152551
:100830000895E4CF81E04091142550911525209131
:100840001625309117254217530709F480E00895C3
:100850001F920F920FB60F92112408B60F9218BE76
:1008600009B60F9219BE0BB60F921BBE2F933F9382
:100870004F935F936F937F938F939F93AF93BF93A8
:10088000EF93FF93F894D6DF882319F080E090E08F
:100890008CDF7894FF91EF91BF91AF919F918F91F1
:1008A0007F916F915F914F913F912F910F900BBE70
:1008B0000F9009BE0F9008BE0F900FBE0F901F90B3
:1008C00018951F920F920FB60F92112408B60F922F
:1008D00018BE09B60F9219BE0AB60F921ABE0BB611
:1008E0000F921BBEBF92CF92DF92EF92FF920F93B7
:1008F0001F932F933F934F935F936F937F938F93A8
:100900009F93AF93BF93CF93DF93EF93FF93F894AD
:100910000BEF15E2C0E0D0E04EEFE42E43E2F42E00
:1009200050E0C52E50E2D52EFE01EE0FFF1FEC0F5A
:10093000FD1FE550FA4D808186FF0AC0D8018C91D9
:100940008F5F8C9380FF22C080818F7B80831EC04D
:10095000F801329730812181CE01992780689F93D9
:100960008F932F933F931F922F93DF93CF93FF92F9
:10097000EF92DF92CF920E941C0D8C2F8054D801F1
:100980008C93EDB7FEB73C96EDBFFEBF21960D5F91
:100990001F4FC831D10541F67894FF91EF91DF9157
:1009A000CF91BF91AF919F918F917F916F915F9107
:1009B0004F913F912F911F910F91FF90EF90DF90FA
:1009C000CF90BF900F900BBE0F900ABE0F9009BE44
:1009D0000F9008BE0F900FBE0F901F90189502D079
:1009E00002D0FECF08950895FC01A681B78122812F
:1009F00033818C91A217B30729F42081318126839A
:100A0000378308951196A683B7830895FC01A481C6
:100A1000B58182819381A817B90731F46C938081E5
:100A200091818483958308956D93A483B5830895FC
:100A30001F920F920FB60F92112408B60F9218BE94
:100A400009B60F9219BE0BB60F921BBE2F933F93A0
:100A50004F935F936F937F938F939F93AF93BF93C6
:100A6000EF93FF936091A00886EB93E2CFDFFF91B5
:100A7000EF91BF91AF919F918F917F916F915F9116
:100A80004F913F912F910F900BBE0F9009BE0F9089
:100A900008BE0F900FBE0F901F9018951F920F92D7
:100AA0000FB60F92112408B60F9218BE09B60F9216
:100AB00019BE0BB60F921BBE2F933F934F935F93BC
:100AC0006F937F938F939F93AF93BF93EF93FF9316
:100AD0006091B00886E293E299DFFF91EF91BF91B8
:100AE000AF919F918F917F916F915F914F913F91C6
:100AF0002F910F900BBE0F9009BE0F9008BE0F9064
:100B00000FBE0F901F9018951F920F920FB60F9265
:100B1000112408B60F9218BE09B60F9219BE0BB673
:100B20000F921BBE2F933F934F935F936F937F93CF
:100B30008F939F93AF93BF93EF93FF936091A0091F
:100B400086E992E263DFFF91EF91BF91AF919F91B0
:100B50008F917F916F915F914F913F912F910F9066
:100B60000BBE0F9009BE0F9008BE0F900FBE0F90E6
:100B70001F9018951F920F920FB60F92112408B66E
:100B80000F9218BE09B60F9219BE0BB60F921BBE7C
:100B90002F933F934F935F936F937F938F939F9385
:100BA000AF93BF93EF93FF936091B00986E092E219
:100BB0002DDFFF91EF91BF91AF919F918F917F9129
:100BC0006F915F914F913F912F910F900BBE0F90BE
:100BD00009BE0F9008BE0F900FBE0F901F90189582
:100BE0001F920F920FB60F92112408B60F9218BEE3
:100BF00009B60F9219BE0BB60F921BBE2F933F93EF
:100C00004F935F936F937F938F939F93AF93BF9314
:100C1000EF93FF936091B00A86E791E2F7DEFF91D0
:100C2000EF91BF91AF919F918F917F916F915F9164
:100C30004F913F912F910F900BBE0F9009BE0F90D7
:100C400008BE0F900FBE0F901F9018951F920F9225
:100C50000FB60F92112408B60F9218BE09B60F9264
:100C600019BE0BB60F921BBE2F933F934F935F930A
:100C70006F937F938F939F93AF93BF93EF93FF9364
:100C80006091A00B86EE90E2C1DEFF91EF91BF91E3
:100C9000AF919F918F917F916F915F914F913F9114
:100CA0002F910F900BBE0F9009BE0F9008BE0F90B2
:100CB0000FBE0F901F9018951F920F920FB60F92B4
:100CC000112408B60F9218BE09B60F9219BE0BB6C2
:100CD0000F921BBE2F933F934F935F936F937F931E
:100CE0008F939F93AF93BF93EF93FF936091B00B5C
:100CF00086E590E28BDEFF91EF91BF91AF919F91DE
:100D00008F917F916F915F914F913F912F910F90B4
:100D10000BBE0F9009BE0F9008BE0F900FBE0F9034
:100D20001F9018951F920F920FB60F92112408B6BC
:100D30000F9218BE09B60F9219BE0BB60F921BBECA
:100D40002F933F934F935F936F937F938F939F93D3
:100D5000AF93BF93EF93FF93F89420917223309158
:100D6000732380917423909175232817390719F400
:100D700008C078940CC08EE693E236DE8093A0081B
:100D8000F8CF8091A3088C7F8093A308F2CFFF91C6
:100D9000EF91BF91AF919F918F917F916F915F91F3
:100DA0004F913F912F910F900BBE0F9009BE0F9066
:100DB00008BE0F900FBE0F901F9018951F920F92B4
:100DC0000FB60F92112408B60F9218BE09B60F92F3
:100DD00019BE0BB60F921BBE2F933F934F935F9399
:100DE0006F937F938F939F93AF93BF93EF93FF93F3
:100DF000F8942091E2223091E3228091E4229091B4
:100E0000E5222817390719F408C078940CC08EED34
:100E100092E2EADD8093B008F8CF8091B3088C7F2E
:100E20008093B308F2CFFF91EF91BF91AF919F9163
:100E30008F917F916F915F914F913F912F910F9083
:100E40000BBE0F9009BE0F9008BE0F900FBE0F9003
:100E50001F9018951F920F920FB60F92112408B68B
:100E60000F9218BE09B60F9219BE0BB60F921BBE99
:100E70002F933F934F935F936F937F938F939F93A2
:100E8000AF93BF93EF93FF93F89420915222309148
:100E9000532280915422909155222817390719F432
:100EA00008C078940CC08EE492E29EDD8093A00985
:100EB000F8CF8091A3098C7F8093A309F2CFFF9193
:100EC000EF91BF91AF919F918F917F916F915F91C2
:100ED0004F913F912F910F900BBE0F9009BE0F9035
:100EE00008BE0F900FBE0F901F9018951F920F9283
:100EF0000FB60F92112408B60F9218BE09B60F92C2
:100F000019BE0BB60F921BBE2F933F934F935F9367
:100F10006F937F938F939F93AF93BF93EF93FF93C1
:100F2000F8942091C2213091C3218091C4219091E5
:100F3000C5212817390719F408C078940CC08EEB26
:100F400091E252DD8093B009F8CF8091B3098C7F94
:100F50008093B309F2CFFF91EF91BF91AF919F9131
:100F60008F917F916F915F914F913F912F910F9052
:100F70000BBE0F9009BE0F9008BE0F900FBE0F90D2
:100F80001F9018951F920F920FB60F92112408B65A
:100F90000F9218BE09B60F9219BE0BB60F921BBE68
:100FA0002F933F934F935F936F937F938F939F9371
:100FB000AF93BF93EF93FF93F89420913221309138
:100FC000332180913421909135212817390719F464
:100FD00008C078940CC08EE291E206DD8093B00ADE
:100FE000F8CF8091B30A8C7F8093B30AF2CFFF9140
:100FF000EF91BF91AF919F918F917F916F915F9191
:101000004F913F912F910F900BBE0F9009BE0F9003
:1010100008BE0F900FBE0F901F9018951F920F9251
:101020000FB60F92112408B60F9218BE09B60F9290
:1010300019BE0BB60F921BBE2F933F934F935F9336
:101040006F937F938F939F93AF93BF93EF93FF9390
:10105000F8942091A2203091A3208091A420909117
:10106000A5202817390719F408C078940CC08EE918
:1010700090E2BADC8093A00BF8CF8091A30B8C7F19
:101080008093A30BF2CFFF91EF91BF91AF919F910E
:101090008F917F916F915F914F913F912F910F9021
:1010A0000BBE0F9009BE0F9008BE0F900FBE0F90A1
:1010B0001F9018951F920F920FB60F92112408B629
:1010C0000F9218BE09B60F9219BE0BB60F921BBE37
:1010D0002F933F934F935F936F937F938F939F9340
:1010E000AF93BF93EF93FF93F89420911220309128
:1010F000132080911420909115202817390719F496
:1011000008C078940CC08EE090E26EDC8093B00B47
:10111000F8CF8091B30B8C7F8093B30BF2CFFF910C
:10112000EF91BF91AF919F918F917F916F915F915F
:101130004F913F912F910F900BBE0F9009BE0F90D2
:1011400008BE0F900FBE0F901F9018952F923F92E0
:101150004F925F926F927F928F929F92AF92BF92C7
:10116000CF92DF92EF92FF920F931F93CF93DF9373
:10117000CDB7DEB76297CDBFDEBF7C011B016A0130
:10118000FC0116821782838181FD03C04EC3650175
:1011900005C088248394912C8C0E9D1EF7019381A9
:1011A000F10193FD859193FF81911F01882309F43B
:1011B00038C3853239F493FD859193FF81911F01E6
:1011C000853229F4B70190E046D45601E0CF712C66
:1011D000612C20E02032A8F48B3261F028F48032B8
:1011E00051F0833271F40BC08D3239F0803349F401
:1011F000216028C02260246025C0286023C02061AF
:1012000021C027FD27C0382F30533A3078F426FF0D
:1012100006C0FAE07F9E300D1124732E13C04AE001
:10122000649E300D1124632E20620CC08E3221F496
:1012300026FDF7C2206406C08C3611F4206802C077
:10124000883641F4F10193FD859193FF81911F014F
:101250008111C0CF982F9554933018F42061805E8F
:1012600006C0982F9556933008F094C12F7E26FD26
:1012700002C016E0712EBFE35B2E5222853619F4B0
:10128000F0E45F2A07C0863619F440E8542A02C009
:1012900071107A9457FE07C05BE3571548F0472C4E
:1012A000439427E00DC087E0871530F0272D07C055
:1012B00027E0ACE34A2E04C027E0F7E07F2E412C64
:1012C000560194E0A90EB11CF60160817181828102
:1012D0009381042DA401C2D28C0149814C8740FF27
:1012E00002C043FF07C051FC08C052FE09C0E0E243
:1012F000DE2E07C07DE2D72E04C06BE2D62E01C0E1
:10130000D12C8C858C7089F1DD2011F084E001C036
:1013100083E0861510F0612C0AC0681A53FC07C0E0
:10132000B70180E290E097D36A94D1F7F4CFDD2043
:1013300021F0B7018D2D90E08ED35C8553FD03C065
:1013400000E012E00BC00CEF11E008C05110805219
:10135000B70190E080D30F5F1F4F02C080E1582299
:10136000F80184918111F2CF59C257FE0EC0400E90
:101370004C8544FF04C08A81813309F44A941414D3
:101380004CF558E0541548F12CC056FC2AC0872D66
:1013900090E08017910744F00C3F8FEF180724F07E
:1013A00090E8592A01C07A94772049F0E2E0F0E011
:1013B000EC0FFD1FE70DF11D80818033A1F357FE77
:1013C00010C0472C4394872D90E00817190744F468
:1013D000701A07C04424439404C058E0452E01C04D
:1013E000712C57FE07C0101611063CF498012F5FB0
:1013F0003F4F05C025E030E002C021E030E0DD20B5
:1014000011F02F5F3F4F772031F0472D50E04F5FB5
:101410005F4F240F351F462D50E02417350714F475
:10142000621A01C0612C852D897041F405C0B70195
:1014300080E290E010D36A946110F9CFDD2021F0B2
:10144000B7018D2D90E007D353FC08C005C0B7014C
:1014500080E390E000D36A946110F9CF57FE54C046
:10146000680117FF02C0C12CD12C20E030E0A80198
:10147000441951094D875E8728014C185D08480CB6
:10148000591C872D90E044275527481B590B4F873F
:10149000588B5FEFC516D50641F4B7018EE290E098
:1014A0002A8B398BD8D239892A890C151D0554F01D
:1014B0004D855E854C155D052CF4F201E20FF31F9E
:1014C000818101C080E351E0C51AD1082F5F3F4FF1
:1014D0004F855889C416D50644F0B70190E02A8B91
:1014E000398BB9D22A893989D4CFC016D10649F4AB
:1014F0009A81963328F4953321F45C8554FD01C01C
:1015000081E3B70190E044C08A81813319F04C85B2
:101510004F7E4C87B70190E09ED2711005C054FEFB
:1015200014C085E490E013C0B7018EE290E093D23E
:1015300042E0D42EF401ED0DF11DD394B70180816A
:1015400090E089D27A94B1F7EACF85E690E0B701CE
:1015500082D217FD06C00115110541F45C8554FFC8
:1015600005C01195019511098DE201C08BE2B7010B
:1015700090E071D280E303C08F5F0A5011090A30F6
:101580001105D4F7B70190E066D2B701C801C09643
:1015900062D244C1833631F0833781F0833509F05C
:1015A0005AC023C0560182E0A80EB11CF60180810A
:1015B0008983CC24C394D12C840113C05601F2E05A
:1015C000AF0EB11CF6010081118126FF03C0672D0B
:1015D00070E002C06FEF7FEFC8012A8B22D26C014E
:1015E0002A899FE7592E522216C05601F2E0AF0E0B
:1015F000B11CF6010081118126FF03C0672D70E048
:1016000002C06FEF7FEFC8012A8B00D26C012A89DC
:1016100080E8582E522A53FC1AC005C0B70180E258
:1016200090E019D26A94862D90E0C816D906B0F3DE
:101630000EC0F80157FC859157FE81918F01B701CB
:1016400090E009D261106A94F1E0CF1AD108C11478
:10165000D10479F7E3C0843611F0893649F5560193
:1016600027FF09C044E0A40EB11CF601608171811E
:10167000828193810AC0F2E0AF0EB11CF601608155
:101680007181882777FD8095982F122F1F7697FFFD
:1016900008C090958095709561957F4F8F4F9F4FB3
:1016A00010682AE030E0A40102D2D82ED8183FC03A
:1016B000122F853721F41F7E2AE030E01FC0197FEA
:1016C0008F36A1F020F4883509F0ABC00BC080370D
:1016D00021F0883709F0A5C001C0106114FF09C0CE
:1016E000146007C024FF08C0166006C028E030E080
:1016F00005C020E130E002C020E132E0560117FFD2
:1017000009C0F4E0AF0EB11CF601608171818281E5
:10171000938108C0F2E0AF0EB11CF60160817181C7
:1017200080E090E0A401C3D1D82ED8181F7716FF0F
:101730000BC0212F2E7FD71450F414FF0AC012FDC6
:1017400008C0212F2E7E05C00D2D212F03C00D2D89
:1017500001C0072D24FF0CC0FE01ED0DF11D80819D
:10176000803311F4297E08C022FF05C00E5F04C03B
:10177000822F867809F00F5F23FD13C020FF0EC073
:101780007D2C061558F4760C701A062D07C0B7018B
:1017900080E290E02A8B5FD10F5F2A890615B8F3AB
:1017A00004C0061510F4601A01C0612C24FF11C09A
:1017B000B70180E390E02A8B4ED12A8922FF1CC01A
:1017C00021FF03C088E590E002C088E790E0B70100
:1017D0000CC0822F867881F021FD02C080E201C01A
:1017E0008BE227FD8DE2B70190E035D105C0B7014E
:1017F00080E390E030D17A94D714C8F3DA94F401FE
:10180000ED0DF11DB701808190E025D1D110F6CF0B
:1018100005C0B70180E290E01ED16A946110F9CF53
:10182000B6CCF7012681378102C02FEF3FEFC90107
:101830006296CDBFDEBFDF91CF911F910F91FF90D8
:10184000EF90DF90CF90BF90AF909F908F907F9060
:101850006F905F904F903F902F900895283008F040
:1018600027E03327DA01990F311D87FD916000963B
:101870006105710539F432602E5F3D9330E32A959E
:10188000E1F708959F3F30F080387105610509F058
:101890003C5F3C5F3D93913008F08068911DDF9381
:1018A000CF931F930F93FF92EF92192F987F9695E6
:1018B000E92F96959695E90FFF27E25AFD4F992754
:1018C0003327EE24FF24A701E7010590089407942D
:1018D00028F4360FE71EF81E491F511D660F771FAB
:1018E000881F991F0694A1F70590079428F4E70E26
:1018F000F81E491F561FC11D770F881F991F661FAD
:101900000694A1F70590079428F4F80E491F561F76
:10191000C71FD11D880F991F661F771F0694A1F757
:101920000590079420F4490F561FC71FD81F990F21
:10193000661F771F881F0694A9F78491109517706A
:1019400041F0D695C79557954795F794E7941A9522
:10195000C1F7E4E0F2E06894159015913591659136
:10196000959105907FE27395E118F10A430B560BB0
:10197000C90BD009C0F7E10CF11E431F561FC91F48
:10198000D01D7EF4703311F48A95E6CFE8940150AF
:1019900030F0080F0AF40027021708F4202F2395CF
:1019A000022F7A3328F079E37D932A95E9F710C066
:1019B0007D932A9589F6069497956795379517959F
:1019C0001794E118F10A430B560BC90BD00998F094
:1019D00023957E9173957A3308F070E37C932013FE
:1019E000B8F77E9170617D9330F0839571E37D93BC
:1019F00070E32A95E1F71124EF90FF900F911F916A
:101A0000CF91DF91992787FD90950895FC0105906E
:101A1000615070400110D8F7809590958E0F9F1FF0
:101A20000895FC016150704001900110D8F7809535
:101A300090958E0F9F1F0895CF93DF93CDB7DEB79C
:101A4000CE010A96AC01688579858E819F817EDB07
:101A5000DF91CF9108950F931F93CF93DF938C0164
:101A6000EB018B8181FD03C00FEF1FEF1AC082FFD6
:101A70000DC02E813F818C819D812817390764F428
:101A8000E881F9810193E883F98306C0E885F98547
:101A9000802F1995892B41F78E819F8101968E8326
:101AA0009F83C801DF91CF911F910F910895FA0193
:101AB000AA27283051F1203181F1E8946F936E7F8D
:101AC0006E5F7F4F8F4F9F4FAF4FB1E03ED0B4E07E
:101AD0003CD0670F781F891F9A1FA11D680F791FBF
:101AE0008A1F911DA11D6A0F711D811D911DA11DD0
:101AF00020D009F468943F912AE0269F11243019E0
:101B0000305D3193DEF6CF010895462F4770405D7A
:101B10004193B3E00FD0C9F7F6CF462F4F70405D29
:101B20004A3318F0495D31FD4052419302D0A9F784
:101B3000EACFB4E0A6959795879577956795BA957E
:101B4000C9F700976105710508959B01AC010A2E44
:101B500006945795479537952795BA95C9F7620F1B
:0E1B6000731F841F951FA01D0895F894FFCFDA
:101B6E000000000200000000190400000000162012
:101B7E005520162016200000000000000000000076
:101B8E000000000000000000000000000000000047
:101B9E000000000000000000000000000000000037
:101BAE000000000000000000000000000000000027
:101BBE000000000000005E209D205E205E200000E0
:101BCE000000000000000000000000000000000007
:101BDE0000000000000000000000000000000000F7
:101BEE0000000000000000000000000000000000E7
:101BFE000000000000000000000000000000A62011
:101C0E00E520A620A6200000000000000000000035
:101C1E0000000000000000000000000000000000B6
:101C2E0000000000000000000000000000000000A6
:101C3E000000000000000000000000000000000096
:101C4E00000000000000EE202D21EE20EE2000000E
:101C5E000000000000000000000000000000000076
:101C6E000000000000000000000000000000000066
:101C7E000000000000000000000000000000000056
:101C8E0000000000000000000000000000003621EF
:101C9E0075213621362100000000000000000000F2
:101CAE000000000000000000000000000000000026
:101CBE000000000000000000000000000000000016
:101CCE000000000000000000000000000000000006
:101CDE000000000000007E21BD217E217E2100003B
:101CEE0000000000000000000000000000000000E6
:101CFE0000000000000000000000000000000000D6
:101D0E0000000000000000000000000000000000C5
:101D1E000000000000000000000000000000C621CE
:101D2E000522C621C62100000000000000000000B0
:101D3E000000000000000000000000000000000095
:101D4E000000000000000000000000000000000085
:101D5E000000000000000000000000000000000075
:101D6E000000000000000E224D220E220E22000066
:101D7E000000000000000000000000000000000055
:101D8E000000000000000000000000000000000045
:101D9E000000000000000000000000000000000035
:101DAE0000000000000000000000000000005622AD
:101DBE00952256225622000000000000000000006E
:101DCE000000000000000000000000000000000005
:101DDE0000000000000000000000000000000000F5
:101DEE0000000000000000000000000000000000E5
:101DFE000000000000009E22DD229E229E22000096
:101E0E0000000000000000000000000000000000C4
:101E1E0000000000000000000000000000000000B4
:101E2E0000000000000000000000000000000000A4
:101E3E000000000000000000000000000000E6228C
:101E4E002523E622E622000000000000000000002C
:101E5E000000000000000000000000000000000074
:101E6E000000000000000000000000000000000064
:101E7E000000000000000000000000000000000054
:101E8E000000000000002E236D232E232E230000C1
:101E9E000000000000000000000000000000000034
:101EAE000000000000000000000000000000000024
:101EBE000000000000000000000000000000000014
:101ECE00000000000000000000000000000076236B
:101EDE00B5237623762300000000000000000000EA
:101EEE0000000000000000000000000000000000E4
:101EFE0000000000000000000000000000000000D4
:101F0E0000000000000000000000000000000000C3
:101F1E00000000000000BE23FD23BE23BE230000F0
:101F2E0000000000000000000000000000000000A3
:101F3E000000000000000000000000000000000093
:101F4E000000000000000000000000000000000083
:101F5E0000000000000000000000000000002563EB
:081F6E002563256325630000D3
:00000001FF
