:1000000014C023C022C021C05FC31FC01EC033C3A1
:100010001CC01BC01AC019C018C017C016C015C01C
:1000200014C013C012C011C010C011241FBECFE5F0
:10003000D1E0DEBFCDBF11E0A0E6B0E001C01D926F
:10004000A634B107E1F763D250C405C3DF93CF9361
:100050000F92CDB7DEB7198235C08981282F30E0E5
:100060008981482F50E080E890E002C095958795FF
:100070004A95E2F7482F4095C901880F991F820FD2
:10008000931F8B569F4FFC0140838981282F30E0BE
:10009000C901880F991F820F931F8A569F4F2FEF18
:1000A000FC0120838981282F30E0C901880F991F26
:1000B000820F931F89569F4F2FEFFC012083898168
:1000C0008F5F89838981883040F219823EC089819F
:1000D000882F90E09C01285F3F4FC901880F991F2E
:1000E000820F931F8B569F4F2FEFFC012083898136
:1000F000882F90E09C01285F3F4F8981482F50E076
:1001000080E890E002C0959587954A95E2F7482FE0
:100110004095C901880F991F820F931F8A569F4FE0
:10012000FC0140838981882F90E09C01285F3F4F2C
:10013000C901880F991F820F931F89569F4F2FEF78
:10014000FC01208389818F5F89838981883008F44D
:10015000BECF19823EC08981882F90E09C01205F2C
:100160003F4FC901880F991F820F931F8B569F4FD6
:100170002FEFFC0120838981882F90E09C01205F74
:100180003F4FC901880F991F820F931F8A569F4FB7
:100190002FEFFC0120838981882F90E09C01205F54
:1001A0003F4F8981482F50E080E890E002C095954C
:1001B00087954A95E2F7482F4095C901880F991F06
:1001C000820F931F89569F4FFC01408389818F5F67
:1001D00089838981883008F4BECF0F90CF91DF9159
:1001E0000895DF93CF930F92CDB7DEB7198217C072
:1001F0008981882F90E02981222F30E0220F331F40
:100200002D593F4FF90120813181880F991F80526C
:100210009F4FFC013183208389818F5F898389818E
:10022000883130F31092620085E990E0909361008C
:100230008093600080EE90E0909313018093120110
:1002400083E690E090939400809393000F90CF9179
:10025000DF910895DF93CF930F92CDB7DEB7198268
:100260001FC08981482F50E08981882F90E09C0130
:1002700082959295907F9827807F9827B901681B77
:10028000790BCB0183529B4F9C01CA01880F991FA8
:1002900080529F4FFC013183208389818F5F898346
:1002A00089818831F0F20F90CF91DF910895DF932B
:1002B000CF9300D0CDB7DEB781E08A83B0C01A8279
:1002C00081E08983A8C08981882F90E0880F991FD9
:1002D00080529F4FFC01208131818981882F90E0DD
:1002E0000197880F991F80529F4FFC018081918157
:1002F0002817390708F08CC08981282F30E0C90100
:10030000880F991F820F931F9C012B563F4F8DED35
:1003100090E043E0F90100802F5F3F4FFC01008235
:10032000019641504423B1F78981882F90E0880FCE
:10033000991F80529F4FFC01808191819093110100
:10034000809310018981882F90E02981222F30E04D
:1003500021503040880F991F80529F4F220F331F2A
:1003600020523F4FF90120813181FC0131832083EC
:100370008981482F50E08981882F90E09C0121508D
:100380003040CA01880F991F840F951FAC014B564E
:100390005F4FC901880F991F820F931F9C012B5635
:1003A0003F4FCA0143E0F90100802F5F3F4FFC013E
:1003B0000082019641504423B1F78981882F90E053
:1003C0000197880F991F80529F4F20911001309103
:1003D0001101FC01318320838981882F90E09C01E9
:1003E00021503040C901880F991F820F931F8B56EF
:1003F0009F4F2DED30E043E0F90100802F5F3F4F2C
:10040000FC010082019641504423B1F781E08A83C8
:1004100089818F5F89838981883108F454CF8A81EB
:10042000882309F04CCF0F900F90CF91DF91089562
:10043000DF93CF9300D0CDB7DEB7198247C01A82C1
:100440003EC08981882F90E09C012F5F3F4F8A81B9
:10045000682F70E08981882F90E0AC014F5F5F4F7B
:100460008A81E82FF0E0CA01880F991F840F951F39
:100470008E0F9F1F8B569F4FFC01A0818981482FB3
:1004800050E08A81E82FF0E0CA01880F991F840F9D
:10049000951F8E0F9F1F8B569F4FFC0180814A2F07
:1004A0004823C901880F991F820F931F860F971F3A
:1004B0008B569F4FFC0140838A818F5F8A838A819C
:1004C000833008F4BECF89818F5F8983898187312A
:1004D00008F4B5CF0F900F90CF91DF910895DF937F
:1004E000CF93CDB7DEB72AE430E08091120190912E
:1004F0001301FC0140815181F9015183408302962F
:100500009093130180931201CF91DF910895DF93AF
:10051000CF93CDB7DEB787E390E02FEFFC012083C8
:1005200081E390E02EEFFC01208382E390E0FC0168
:10053000108220D156DE8ADD8DDEB9DE79DFF7D07C
:1005400078948CE490E0FC0120813181809112014B
:1005500090911301FC01808191818217930708F02B
:1005600063C028E330E08091600090916100FC015D
:100570004081F9014083019690936100809360006F
:1005800082E390E020E1FC01208382E390E022E31B
:1005900030E0F90120812F70FC01208328E330E056
:1005A0008091600090916100FC014081F9014083DD
:1005B0000196909361008093600082E390E020E2D6
:1005C000FC01208382E390E022E330E0F901208106
:1005D0002F70FC01208328E330E08091600090912F
:1005E0006100FC014081F901408301969093610014
:1005F0008093600000000000000082E390E020E4AF
:10060000FC01208382E390E022E330E0F9012081C5
:100610002F70FC01208380911201909113010296AA
:100620009093130180931201809112019091130114
:10063000F1E08E309F0708F484CFD3DD07DD0ADEBA
:1006400036DEF6DE00008CE490E0FC0180819181D2
:100650000097C9F776CF1F920F920FB60F92112411
:10066000DF93CF93CDB7DEB7CF91DF910F900FBE61
:100670000F901F9018951F920F920FB60F92112492
:100680002F933F934F935F936F937F938F939F939A
:10069000AF93BF93EF93FF93DF93CF93CDB7DEB7C5
:1006A0003BD0CF91DF91FF91EF91BF91AF919F919F
:1006B0008F917F916F915F914F913F912F910F900B
:1006C0000FBE0F901F9018951F920F920FB60F92AA
:1006D00011242F938F939F93EF93FF93DF93CF93E7
:1006E000CDB7DEB782E390E020E7FC01208388E30A
:1006F00090E02FEFFC01208382E390E0FC01108268
:10070000CF91DF91FF91EF919F918F912F910F905A
:100710000FBE0F901F901895DF93CF93CDB7DEB724
:100720008CE290E0FC018081CF91DF910895DF930E
:10073000CF93CDB7DEB78FE490E0FC0110828EE45A
:1007400090E02AE1FC01208389E590E020E4FC01AF
:10075000208384E490E020E335E7FC0131832083AB
:100760008AE490E020E335E7FC0131832083CF91D8
:10077000DF910895DF93CF93CDB7DEB782E290E0AB
:10078000FC01108289E290E022E0FC0120838AE2F1
:1007900090E020E9FC012083CF91DF910895DF9361
:1007A000CF9300D00F92CDB7DEB789837B836A8366
:1007B00000008BE290E0FC018081882F90E0857042
:1007C00090700097B1F38CE290E02981FC012083C6
:1007D0000F900F900F90CF91DF910895DF93CF93FB
:1007E00000D00F92CDB7DEB79B838A83809124011E
:1007F0009091250121E08534920789F480912401AC
:1008000090912501FC018081898386E291E090939B
:100810002501809324018981882F90E00EC02091CA
:10082000240130912501F9018081882F90E02F5F0C
:100830003F4F30932501209324010F900F900F908C
:10084000CF91DF910895DF93CF930F92CDB7DEB7AD
:100850008983809122019091230121E085349207C0
:1008600071F480912201909123012981FC01208360
:1008700086E291E090932301809322010CC0809145
:100880002201909123012981FC01208301969093FC
:100890002301809322010F90CF91DF910895DF9380
:1008A000CF93CDB7DEB72091220130912301809103
:1008B0002401909125012817390711F480E001C027
:1008C00081E0CF91DF910895DF93CF9300D0CDB732
:1008D000DEB79A8389838CE290E0FC018081B3DFEC
:0E08E0000F900F90CF91DF910895F894FFCF05
:00000001FF
