:1000000014C023C022C021C0D8C11FC01EC01DC043
:100010001CC01BC01AC019C018C017C016C015C01C
:1000200014C013C012C011C010C011241FBECFE5F0
:10003000D1E0DEBFCDBF11E0A0E6B0E001C01D926F
:10004000AE31B107E1F786D2C5C2ACC1CF93DF9321
:10005000E7E9F0E080E090E021E030E06FEFA90117
:10006000082E02C0440F551F0A94E2F740954083C2
:1000700061836283019633968830910581F7EFEAB8
:10008000F0E080E090E06FEF21E030E06083A901D4
:10009000082E02C0440F551F0A94E2F74095418391
:1000A0006283019633968830910581F7E7ECF0E0A2
:1000B00080E090E06FEF21E030E060836183A90190
:1000C000082E02C0440F551F0A94E2F74095428360
:1000D000019633968830910581F71092DF001092D7
:1000E000E0001092E10060931501609316016093A7
:1000F000170127E930E080E090E041E050E0E82F90
:10010000DC01AA0FBB1FAE51BF4F6D917C911197BF
:1001100061157105E1F4E901AFEDB0E063E00D9028
:1001200009926150E1F7E695E695E695F0E0EB5E21
:10013000FE4FBC0167707070DA0102C0AA0FBB1FCE
:100140006A95E2F7BD0160957081672360830000C6
:1001500001962D5F3F4F8831910589F6DF91CF9150
:100160000895A4E6B0E080E090E02D913D91FC017F
:10017000EE0FFF1FEE51FF4F318320830196883130
:10018000910599F787E990E090936300809362006E
:1001900082EE90E09093190180931801089580E019
:1001A00090E0FC01EE0FFF1FEE51FF4F1182108215
:1001B000019688319105A9F7E4E6F0E011821082FA
:1001C000349680E0E439F807C9F70895EF92FF927A
:1001D0000F931F93CF93DF9352C0AB01BA016F5FB0
:1001E0007F4FDB01AA0FBB1FAE51BF4FCD91DC91FA
:1001F000DA01AA0FBB1FAE51BF4F4D915C91119711
:10020000C417D50790F57C01CFEDD0E0482F592FCA
:10021000DA0143E00D9009924150E1F742815381A8
:1002200050931301409312014081518153834283C3
:1002300089014E2D5F2DEA01422F532FDA0143E051
:100240000D9009924150E1F7409112015091130134
:1002500051834083402F512FEA01AFEDB0E043E0DE
:100260000D9009924150E1F711E003962D5F3F4F49
:1002700032966731710509F0B0CF112359F08AE940
:1002800090E09C0123503040E2EEF0E040E050E08E
:1002900010E0A4CFDF91CF911F910F91FF90EF90CD
:1002A00008950F931F93CF93DF9300E010E020E0B9
:1002B00030E0E0E0F0E01EC0AE01420F531F400FFF
:1002C000511FDA0113967C916991AE01420F531FC1
:1002D000400F511F6723DA0112966C931297C817CB
:1002E000D90751F73196235030400D5F1F4FE7314A
:1002F000F10571F0CF0163E070E05AD1EC01C9560D
:10030000DF4F88279927821B930B86569F4FD4CFA8
:10031000DF91CF911F910F9108951F93EFEDF0E0C2
:10032000DF01139783E00D9001928150E1F787E19F
:10033000809360002CC0212F30E0C9010197FC019F
:10034000EE0FFF1FEE51FF4F60817181F901EE0F3B
:10035000FF1FEE51FF4F4081518164177507A1F4D3
:100360001182108263E070E023D1FC01E956FF4F57
:10037000C90163E070E01CD1DC01A956BF4F83E0E6
:100380000D9001928150E1F711501093600010918F
:100390006000112381F61F91089582B392E08927AE
:1003A00082BB08951F920F920FB60F921124000086
:1003B0000F900FBE0F901F9018951F920F920FB6BF
:1003C0000F9211248F939F93F8948091610088235A
:1003D000A9F08091150188BB82B3805F82BB8091B8
:1003E000160188BB82B3805F82BB8091170188BBF6
:1003F00082B3805E82BB82B38F7003C082B394E00D
:10040000892782BB78949F918F910F900FBE0F9098
:100410001F9018958FEF87BB8EEF81BB18BA82B300
:10042000806782BB82B38F7082BBBDD09ADE0EDE46
:10043000B6DECCDE36DF71DFAAD078940895CF9394
:10044000DF932CB53DB5A0911801B09119018D91A4
:100450009C91119782179307D8F5009759F18091D5
:100460006100882339F1C0916200D0916300FE01E0
:10047000819188BBF0936300E093620082B3805F58
:1004800082BB898188BBCF010196909363008093E2
:10049000620022B3205F22BB218128BB019690938A
:1004A00063008093620082B3805E82BB82B38F70F0
:1004B00082BB09C080916200909163000396909383
:1004C0006300809362001296B0931901A093180103
:1004D000809118019091190121E08031920709F073
:1004E00008F4AFCFDF91CF9108953BDEAFDD6EDE34
:1004F000D8DE13DF0895E0911A01E233D0F48E2F95
:10050000806890911D019817A1F4F0E0EE0FFF1F95
:10051000EC59FF4F30911B0120E080911C0190E0CD
:10052000822B932B91838083A895929A81E080936C
:100530006100089580911B0180931A0180911C0134
:1005400080931B0180911D0180931C018CB18093CD
:100550001D0108952DE088E190E00FB6F894A8956C
:1005600081BD0FBE21BD1092610054DF929867DFFC
:10057000BCDF04C0C0DF5F9B02C0DCDF0EDF8CB5D8
:100580009DB521E0853F9207A8F70000F0CF1FBC82
:100590008AE18EBD80E489BF80E395E795BD84BD87
:1005A0009BBD8ABD089512B885E089B9549A089513
:1005B0005527002480FF02C0060E571F660F771FC5
:1005C0006115710521F096958795009799F7952FFC
:0805D000802D0895F894FFCF7F
:00000001FF
