:1000000014C023C022C021C069C21FC01EC0EAC2E2
:100010001CC01BC01AC019C018C017C016C015C01C
:1000200014C013C012C011C010C011241FBECFE5F0
:10003000D1E0DEBFCDBF11E0A0E6B0E001C01D926F
:10004000AE34B107E1F7A9D103C33EC2CF93DF932A
:10005000E6E9F0E080E090E021E030E06FEFA90118
:10006000082E02C0440F551F0A94E2F740954083C2
:1000700061836283019633968830910581F7EEEAB9
:10008000F0E080E090E06FEF21E030E06083A901D4
:10009000082E02C0440F551F0A94E2F74095418391
:1000A0006283019633968830910581F7E6ECF0E0A3
:1000B00080E090E06FEF21E030E060836183A90190
:1000C000082E02C0440F551F0A94E2F74095428360
:1000D000019633968830910581F71092DE001092D8
:1000E000DF001092E00060931401609315016093AB
:1000F000160126E930E080E090E041E050E0E82F92
:10010000DC01AA0FBB1FAF51BF4F6D917C911197BE
:1001100061157105E1F4E901AEEDB0E063E00D9029
:1001200009926150E1F7E695E695E695F0E0EC5E20
:10013000FE4FBC0167707070DA0102C0AA0FBB1FCE
:100140006A95E2F7BD0160957081672360830000C6
:1001500001962D5F3F4F8831910589F6DF91CF9150
:100160000895A3E6B0E080E090E02D913D91FC0180
:10017000EE0FFF1FEF51FF4F31832083019688312F
:10018000910599F786E990E0909362008093610071
:1001900081EE90E09093180180931701089580E01C
:1001A00090E0FC01EE0FFF1FEF51FF4F1182108214
:1001B000019688319105A9F70895EF92FF920F9368
:1001C0001F93CF93DF9352C0AB01BA016F5F7F4F94
:1001D000DB01AA0FBB1FAF51BF4FCD91DC91DA01FC
:1001E000AA0FBB1FAF51BF4F4D915C911197C41720
:1001F000D50790F57C01CEEDD0E0482F592FDA01DC
:1002000043E00D9009924150E1F7428153815093B0
:10021000120140931101408151815383428389012E
:100220004E2D5F2DEA01422F532FDA0143E00D904E
:1002300009924150E1F7409111015091120151830F
:100240004083402F512FEA01AEEDB0E043E00D9026
:1002500009924150E1F711E003962D5F3F4F32962E
:100260006731710509F0B0CF112359F089E990E0A9
:100270009C0123503040E1EEF0E040E050E010E01F
:10028000A4CFDF91CF911F910F91FF90EF90089530
:100290000F931F93CF93DF9300E010E020E030E056
:1002A000E0E0F0E01EC0AE01420F531F400F511FAF
:1002B000DA0113967C916991AE01420F531F400FF2
:1002C000511F6723DA0112966C931297C817D9074A
:1002D00051F73196235030400D5F1F4FE731F10544
:1002E00071F0CF0163E070E0A1D1EC01CA56DF4F9D
:1002F00088279927821B930B87569F4FD4CFDF9176
:10030000CF911F910F9108951F93EEEDF0E0DF0163
:10031000139783E00D9001928150E1F787E180937C
:1003200060002CC0212F30E0C9010197FC01EE0FC5
:10033000FF1FEF51FF4F60817181F901EE0FFF1F29
:10034000EF51FF4F4081518164177507A1F411826D
:10035000108263E070E06AD1FC01EA56FF4FC901E8
:1003600063E070E063D1DC01AA56BF4F83E00D90DB
:1003700001928150E1F711501093600010916000DC
:10038000112381F61F9108951FD18F30910524F418
:1003900082B392E0892782BB08951F9310921901BE
:1003A0008FEF87BB8EEF81BB12BAC3D0DADE4EDE91
:1003B000F6DE03DF6DDFA8DFB0D0789410E14CB536
:1003C0005DB58091170190911801FC012081318168
:1003D00024173507A0F5A0916100B0916200029644
:1003E0002115310519F1FD01219128BBF09362001F
:1003F000E093610012BB11962C91119728BB9F01CD
:100400002F5F3F4F309362002093610042B3405F03
:1004100042BB418148BB2F5F3F4F30936200209326
:10042000610022B3205E22BB12BA05C01396B093BE
:100430006200A0936100909318018093170180914E
:10044000170190911801F1E08F309F0709F008F42F
:10045000B6CF87DEFBDDB1DE1BDF56DF579A94DFB8
:100460002BC0243058F180E090E072D080931301CB
:10047000883110F580E090E06BD08093940080E0AC
:1004800090E066D08093930080E090E061D080930C
:100490009500E09113019E2F9068891761F4F0E0B8
:1004A000EE0FFF1FED59FF4F809193009091940044
:1004B0009183808301C08BD0209119018CB59DB5AB
:1004C0008B30910570F67BCF1F920F920FB60F9273
:1004D00011240F900FBE0F901F9018951F920F922E
:1004E0000FB60F9211248F938091140188BB80E185
:1004F00082BB8091150188BB82B3805F82BB8091F3
:10050000160188BB82B3805E82BB12BA579A8F9164
:100510000F900FBE0F901F9018951FBC8AE18EBDE3
:1005200080E489BF80E395E795BD84BD9BBD8ABD0E
:10053000089512B885E089B9549A8EE191E09093BC
:100540001B0180931A0190931D0180931C01089553
:1005500080911901815080931901E0911C01F09163
:100560001D0181E0ED34F80719F48081BF9701C0C7
:100570008191F0931D01E0931C0190E0089590910A
:1005800019019F5F90931901E0911A01F0911B01ED
:1005900091E0ED34F90719F48083BF9701C081938E
:1005A000F0931B01E0931A01EFDE089581E0409182
:1005B0001A0150911B0120911C0130911D0142171D
:1005C000530709F480E008958091190108958091FE
:1005D0001C0190911D0190931B0180931A011092B0
:1005E000190108951F920F920FB60F9211242F93A5
:1005F0003F934F935F936F937F938F939F93AF93AB
:10060000BF93EF93FF938CB1BADFFF91EF91BF914E
:10061000AF919F918F917F916F915F914F913F919A
:100620002F910F900FBE0F901F9018955527002403
:1006300080FF02C0060E571F660F771F61157105F8
:1006400021F096958795009799F7952F802D08951D
:04065000F894FFCF4C
:00000001FF
