:1000000014C023C022C021C04DC21FC01EC0A4C244
:100010001CC01BC01AC019C018C017C016C015C01C
:1000200014C013C012C011C010C011241FBECFE5F0
:10003000D1E0DEBFCDBF11E0A0E6B0E001C01D926F
:10004000AE34B107E1F7B5D1A8C221C2CF93DF9397
:10005000EBECF0E080E090E021E030E06FEFA90110
:10006000082E02C0440F551F0A94E2F740954083C2
:1000700061836283019633968830910581F7E3EEC0
:10008000F0E080E090E06FEF21E030E06083A901D4
:10009000082E02C0440F551F0A94E2F74095418391
:1000A0006283019633968830910581F7EBEFF0E09B
:1000B00080E090E06FEF21E030E060836183A90190
:1000C000082E02C0440F551F0A94E2F74095428360
:1000D000019633968830910581F7109213011092A2
:1000E0001401109215016093490160934A016093D5
:1000F0004B012BEC30E080E090E041E050E0E82F55
:10010000DC01AA0FBB1FAA5EBE4F6D917C911197B7
:1001100061157105E1F4E901A3E1B1E063E00D903F
:1001200009926150E1F7E695E695E695F0E0E75B28
:10013000FE4FBC0167707070DA0102C0AA0FBB1FCE
:100140006A95E2F7BD0160957081672360830000C6
:1001500001962D5F3F4F8831910589F6DF91CF9150
:100160000895A4E6B0E080E090E02D913D91FC017F
:10017000EE0FFF1FEA5EFE4F318320830196883128
:10018000910599F78BEC90E0909363008093620067
:1001900086E191E090934D0180934C01089580E0B9
:1001A00090E02AEC38E0FC01EE0FFF1FEA5EFE4F04
:1001B00031832083019688319105A9F7E4E6F0E0C8
:1001C0008AEC98E08193919320E0E439F207D1F72B
:1001D0000895EF92FF920F931F93CF93DF9352C036
:1001E000AB01BA016F5F7F4FDB01AA0FBB1FAA5E95
:1001F000BE4FCD91DC91DA01AA0FBB1FAA5EBE4FA4
:100200004D915C911197C417D50790F57C01C3E11E
:10021000D1E0482F592FDA0143E00D900992415067
:10022000E1F7428153815093470140934601408159
:1002300051815383428389014E2D5F2DEA01422F64
:10024000532FDA0143E00D9009924150E1F74091BC
:1002500046015091470151834083402F512FEA01BD
:10026000A3E1B1E043E00D9009924150E1F711E0C4
:1002700003962D5F3F4F32966731710509F0B0CF7D
:10028000112359F08EEC90E09C0123503040E6E1C0
:10029000F1E040E050E010E0A4CFDF91CF911F915A
:1002A0000F91FF90EF9008950F931F93CF93DF93DB
:1002B00000E010E020E030E0E0E0F0E01EC0AE0141
:1002C000420F531F400F511FDA0113967C91699121
:1002D000AE01420F531F400F511F6723DA011296E0
:1002E0006C931297C817D90751F7319623503040B5
:1002F0000D5F1F4FE731F10571F0CF0163E070E052
:100300003AD1EC01C553DF4F88279927821B930B05
:1003100082539F4FD4CFDF91CF911F910F910895BA
:100320001F93E3E1F1E0DF01139783E00D90019269
:100330008150E1F787E1809360002CC0212F30E0ED
:10034000C9010197FC01EE0FFF1FEA5EFE4F6081BD
:100350007181F901EE0FFF1FEA5EFE4F408151816E
:1003600064177507A1F41182108263E070E003D175
:10037000FC01E553FF4FC90163E070E0FCD0DC01F4
:10038000A553BF4F83E00D9001928150E1F71150CA
:100390001093600010916000112381F61F91089561
:1003A000809161008E3220F482B392E0892782BB73
:1003B0000895109261008FEF87BB8EEF81BB82B3EF
:1003C0008F7082BB9CD0CDDE41DEE9DE02DF6CDFC8
:1003D000A7DF89D078944CB55DB580914C019091A0
:1003E0004D01FC012081318124173507C0F5A09112
:1003F0006200B091630002962115310539F1FD01CB
:10040000219128BBF0936300E093620022B3205F48
:1004100022BB11962C91119728BB9F012F5F3F4F54
:10042000309363002093620042B3405F42BB41813E
:1004300048BB2F5F3F4F309363002093620022B38D
:10044000205E22BB22B32F7022BB05C01396B0934F
:100450006300A093620090934D0180934C018091C2
:100460004C0190914D01F1E084349F0709F008F4AC
:10047000B2CF77DEEBDDADDE17DF52DF579A90DFCC
:100480008CB59DB5893C9105D8F70000A4CF1F928B
:100490000F920FB60F92112400000F900FBE0F9015
:1004A0001F9018951F920F920FB60F9211248F93E1
:1004B0009F93F8948FEF88BB92B3905F92BB88BBF9
:1004C00092B3905F92BB88BB82B3805E82BB82B3E3
:1004D0008F7082BB579878949F918F910F900FBE29
:1004E0000F901F9018951FBC8AE18EBD80E489BFD4
:1004F00080E395E795BD84BD9BBD8ABD089512B884
:100500008CE089B9549A8BE990E09093980080939D
:10051000970090939A008093990008950895089504
:1005200081E040919700509198002091990030917E
:100530009A004217530709F480E008958091610002
:1005400008958091990090919A00909398008093DB
:1005500097001092610008951F920F920FB60F92AC
:1005600011248F93F8948CB178948F910F900FBED3
:100570000F901F9018955527002480FF02C0060E8B
:10058000571F660F771F6115710521F096958795A6
:0E059000009799F7952F802D0895F894FFCFCE
:00000001FF
