:020000020000FC
:020000000CC032
:02000800D8C15D
:02000E00D7C158
:10001800D1C108D011D059D0E9D0A9D1A9D1B9D12D
:100028007894FFCF00270093220002E00093290074
:1000380000E900932A00089501E00093C00002E05F
:100048000093C10004E00093C20008E00093C300DD
:1000580000E10093C40000E20093C50000E40093AF
:10006800C60000E80093C70001E00093C80002E062
:100078000093C90004E00093CA0008E00093CB0095
:1000880000E10093CC0000E20093CD0000E400936F
:10009800CE0000E80093CF0001E00093D00002E01A
:1000A8000093D10004E00093D20008E00093D3004D
:1000B80000E10093D40000E20093D50000E400932F
:1000C800D60000E80093D700089505E0009390005B
:1000D80000E0009391000AE00093920000E0009392
:1000E80093000FE00093940000E00093950004E172
:1000F8000093960000E00093970009E100939800B0
:1001080000E0009399000EE100939A0000E000934C
:100118009B0003E200939C0000E000939D0008E22E
:1001280000939E0000E000939F000DE20093A00062
:1001380000E00093A10002E30093A20000E0009316
:10014800A30007E30093A40000E00093A5000CE3DC
:100158000093A60000E00093A70001E40093A80024
:1001680000E00093A90006E40093AA0000E00093D1
:10017800AB000BE40093AC0000E00093AD0000E599
:100188000093AE0000E00093AF0005E50093B000D7
:1001980000E00093B1000AE50093B20000E000938C
:1001A800B3000FE50093B40000E00093B50004E647
:1001B8000093B60000E00093B70009E60093B8008A
:1001C80000E00093B9000EE60093BA0000E0009347
:1001D800BB0003E70093BC0000E00093BD0008E704
:1001E8000093BE0000E00093BF00089500916000F6
:1001F80000939000009161000093910000916200CB
:1002080000939200009163000093930000916400B2
:10021800009394000091650000939500009166009A
:100228000093960000916700009397000091680082
:1002380000939800009169000093990000916A006A
:1002480000939A0000916B0000939B0000916C0052
:1002580000939C0000916D0000939D0000916E003A
:1002680000939E0000916F0000939F000091700022
:100278000093A000009171000093A100009172000A
:100288000093A200009173000093A30000917400F2
:100298000093A400009175000093A50000917600DA
:1002A8000093A600009177000093A70000917800C2
:1002B8000093A800009179000093A90000917A00AA
:1002C8000093AA0000917B000093AB0000917C0092
:1002D8000093AC0000917D000093AD0000917E007A
:1002E8000093AE0000917F000093AF000091800062
:1002F8000093B000009181000093B100009182004A
:100308000093B200009183000093B3000091840031
:100318000093B400009185000093B5000091860019
:100328000093B600009187000093B7000091880001
:100338000093B800009189000093B90000918A00E9
:100348000093BA0000918B000093BB0000918C00D1
:100358000093BC0000918D000093BD0000918E00B9
:100368000093BE0000918F000093BF000895089588
:100378000091900000934A000091910000934B0077
:10038800009190000093480000919100009349006B
:10039800089500E000934F000AE100934E0000E446
:1003A8000093390000E30093240005E7009325003B
:0803B800089518951895189599
:00000001FF
